{
  "contractName": "SLMNFT1155",
  "abi": [
    {
      "inputs": [],
      "stateMutability": "nonpayable",
      "type": "constructor"
    },
    {
      "anonymous": false,
      "inputs": [
        {
          "indexed": true,
          "internalType": "address",
          "name": "account",
          "type": "address"
        },
        {
          "indexed": true,
          "internalType": "address",
          "name": "operator",
          "type": "address"
        },
        {
          "indexed": false,
          "internalType": "bool",
          "name": "approved",
          "type": "bool"
        }
      ],
      "name": "ApprovalForAll",
      "type": "event"
    },
    {
      "anonymous": false,
      "inputs": [
        {
          "indexed": true,
          "internalType": "address",
          "name": "previousOwner",
          "type": "address"
        },
        {
          "indexed": true,
          "internalType": "address",
          "name": "newOwner",
          "type": "address"
        }
      ],
      "name": "OwnershipTransferred",
      "type": "event"
    },
    {
      "anonymous": false,
      "inputs": [
        {
          "indexed": true,
          "internalType": "address",
          "name": "operator",
          "type": "address"
        },
        {
          "indexed": true,
          "internalType": "address",
          "name": "from",
          "type": "address"
        },
        {
          "indexed": true,
          "internalType": "address",
          "name": "to",
          "type": "address"
        },
        {
          "indexed": false,
          "internalType": "uint256[]",
          "name": "ids",
          "type": "uint256[]"
        },
        {
          "indexed": false,
          "internalType": "uint256[]",
          "name": "values",
          "type": "uint256[]"
        }
      ],
      "name": "TransferBatch",
      "type": "event"
    },
    {
      "anonymous": false,
      "inputs": [
        {
          "indexed": true,
          "internalType": "address",
          "name": "operator",
          "type": "address"
        },
        {
          "indexed": true,
          "internalType": "address",
          "name": "from",
          "type": "address"
        },
        {
          "indexed": true,
          "internalType": "address",
          "name": "to",
          "type": "address"
        },
        {
          "indexed": false,
          "internalType": "uint256",
          "name": "id",
          "type": "uint256"
        },
        {
          "indexed": false,
          "internalType": "uint256",
          "name": "value",
          "type": "uint256"
        }
      ],
      "name": "TransferSingle",
      "type": "event"
    },
    {
      "anonymous": false,
      "inputs": [
        {
          "indexed": false,
          "internalType": "string",
          "name": "value",
          "type": "string"
        },
        {
          "indexed": true,
          "internalType": "uint256",
          "name": "id",
          "type": "uint256"
        }
      ],
      "name": "URI",
      "type": "event"
    },
    {
      "inputs": [
        {
          "internalType": "address",
          "name": "account",
          "type": "address"
        },
        {
          "internalType": "uint256",
          "name": "id",
          "type": "uint256"
        }
      ],
      "name": "balanceOf",
      "outputs": [
        {
          "internalType": "uint256",
          "name": "",
          "type": "uint256"
        }
      ],
      "stateMutability": "view",
      "type": "function",
      "constant": true
    },
    {
      "inputs": [
        {
          "internalType": "address[]",
          "name": "accounts",
          "type": "address[]"
        },
        {
          "internalType": "uint256[]",
          "name": "ids",
          "type": "uint256[]"
        }
      ],
      "name": "balanceOfBatch",
      "outputs": [
        {
          "internalType": "uint256[]",
          "name": "",
          "type": "uint256[]"
        }
      ],
      "stateMutability": "view",
      "type": "function",
      "constant": true
    },
    {
      "inputs": [
        {
          "internalType": "address",
          "name": "account",
          "type": "address"
        },
        {
          "internalType": "uint256",
          "name": "id",
          "type": "uint256"
        },
        {
          "internalType": "uint256",
          "name": "value",
          "type": "uint256"
        }
      ],
      "name": "burn",
      "outputs": [],
      "stateMutability": "nonpayable",
      "type": "function"
    },
    {
      "inputs": [
        {
          "internalType": "address",
          "name": "account",
          "type": "address"
        },
        {
          "internalType": "uint256[]",
          "name": "ids",
          "type": "uint256[]"
        },
        {
          "internalType": "uint256[]",
          "name": "values",
          "type": "uint256[]"
        }
      ],
      "name": "burnBatch",
      "outputs": [],
      "stateMutability": "nonpayable",
      "type": "function"
    },
    {
      "inputs": [
        {
          "internalType": "uint256",
          "name": "id",
          "type": "uint256"
        }
      ],
      "name": "exists",
      "outputs": [
        {
          "internalType": "bool",
          "name": "",
          "type": "bool"
        }
      ],
      "stateMutability": "view",
      "type": "function",
      "constant": true
    },
    {
      "inputs": [
        {
          "internalType": "address",
          "name": "account",
          "type": "address"
        },
        {
          "internalType": "address",
          "name": "operator",
          "type": "address"
        }
      ],
      "name": "isApprovedForAll",
      "outputs": [
        {
          "internalType": "bool",
          "name": "",
          "type": "bool"
        }
      ],
      "stateMutability": "view",
      "type": "function",
      "constant": true
    },
    {
      "inputs": [],
      "name": "owner",
      "outputs": [
        {
          "internalType": "address",
          "name": "",
          "type": "address"
        }
      ],
      "stateMutability": "view",
      "type": "function",
      "constant": true
    },
    {
      "inputs": [],
      "name": "renounceOwnership",
      "outputs": [],
      "stateMutability": "nonpayable",
      "type": "function"
    },
    {
      "inputs": [
        {
          "internalType": "address",
          "name": "from",
          "type": "address"
        },
        {
          "internalType": "address",
          "name": "to",
          "type": "address"
        },
        {
          "internalType": "uint256[]",
          "name": "ids",
          "type": "uint256[]"
        },
        {
          "internalType": "uint256[]",
          "name": "amounts",
          "type": "uint256[]"
        },
        {
          "internalType": "bytes",
          "name": "data",
          "type": "bytes"
        }
      ],
      "name": "safeBatchTransferFrom",
      "outputs": [],
      "stateMutability": "nonpayable",
      "type": "function"
    },
    {
      "inputs": [
        {
          "internalType": "address",
          "name": "from",
          "type": "address"
        },
        {
          "internalType": "address",
          "name": "to",
          "type": "address"
        },
        {
          "internalType": "uint256",
          "name": "id",
          "type": "uint256"
        },
        {
          "internalType": "uint256",
          "name": "amount",
          "type": "uint256"
        },
        {
          "internalType": "bytes",
          "name": "data",
          "type": "bytes"
        }
      ],
      "name": "safeTransferFrom",
      "outputs": [],
      "stateMutability": "nonpayable",
      "type": "function"
    },
    {
      "inputs": [
        {
          "internalType": "address",
          "name": "operator",
          "type": "address"
        },
        {
          "internalType": "bool",
          "name": "approved",
          "type": "bool"
        }
      ],
      "name": "setApprovalForAll",
      "outputs": [],
      "stateMutability": "nonpayable",
      "type": "function"
    },
    {
      "inputs": [
        {
          "internalType": "bytes4",
          "name": "interfaceId",
          "type": "bytes4"
        }
      ],
      "name": "supportsInterface",
      "outputs": [
        {
          "internalType": "bool",
          "name": "",
          "type": "bool"
        }
      ],
      "stateMutability": "view",
      "type": "function",
      "constant": true
    },
    {
      "inputs": [
        {
          "internalType": "uint256",
          "name": "id",
          "type": "uint256"
        }
      ],
      "name": "totalSupply",
      "outputs": [
        {
          "internalType": "uint256",
          "name": "",
          "type": "uint256"
        }
      ],
      "stateMutability": "view",
      "type": "function",
      "constant": true
    },
    {
      "inputs": [
        {
          "internalType": "address",
          "name": "newOwner",
          "type": "address"
        }
      ],
      "name": "transferOwnership",
      "outputs": [],
      "stateMutability": "nonpayable",
      "type": "function"
    },
    {
      "inputs": [
        {
          "internalType": "uint256",
          "name": "",
          "type": "uint256"
        }
      ],
      "name": "uri",
      "outputs": [
        {
          "internalType": "string",
          "name": "",
          "type": "string"
        }
      ],
      "stateMutability": "view",
      "type": "function",
      "constant": true
    },
    {
      "inputs": [
        {
          "internalType": "string",
          "name": "newuri",
          "type": "string"
        }
      ],
      "name": "setURI",
      "outputs": [],
      "stateMutability": "nonpayable",
      "type": "function"
    },
    {
      "inputs": [
        {
          "internalType": "address",
          "name": "account",
          "type": "address"
        },
        {
          "internalType": "uint256",
          "name": "id",
          "type": "uint256"
        },
        {
          "internalType": "uint256",
          "name": "amount",
          "type": "uint256"
        },
        {
          "internalType": "bytes",
          "name": "data",
          "type": "bytes"
        }
      ],
      "name": "mint",
      "outputs": [],
      "stateMutability": "nonpayable",
      "type": "function"
    },
    {
      "inputs": [
        {
          "internalType": "address",
          "name": "to",
          "type": "address"
        },
        {
          "internalType": "uint256[]",
          "name": "ids",
          "type": "uint256[]"
        },
        {
          "internalType": "uint256[]",
          "name": "amounts",
          "type": "uint256[]"
        },
        {
          "internalType": "bytes",
          "name": "data",
          "type": "bytes"
        }
      ],
      "name": "mintBatch",
      "outputs": [],
      "stateMutability": "nonpayable",
      "type": "function"
    }
  ],
  "bytecode": "0x60806040523480156200001157600080fd5b506040518060200160405280600081525062000033816200005a60201b60201c565b5062000054620000486200007660201b60201c565b6200007e60201b60201c565b62000258565b80600290805190602001906200007292919062000144565b5050565b600033905090565b6000600360009054906101000a900473ffffffffffffffffffffffffffffffffffffffff16905081600360006101000a81548173ffffffffffffffffffffffffffffffffffffffff021916908373ffffffffffffffffffffffffffffffffffffffff1602179055508173ffffffffffffffffffffffffffffffffffffffff168173ffffffffffffffffffffffffffffffffffffffff167f8be0079c531659141344cd1fd0a4f28419497f9722a3daafe3b4186f6b6457e060405160405180910390a35050565b828054620001529062000223565b90600052602060002090601f016020900481019282620001765760008555620001c2565b82601f106200019157805160ff1916838001178555620001c2565b82800160010185558215620001c2579182015b82811115620001c1578251825591602001919060010190620001a4565b5b509050620001d19190620001d5565b5090565b5b80821115620001f0576000816000905550600101620001d6565b5090565b7f4e487b7100000000000000000000000000000000000000000000000000000000600052602260045260246000fd5b600060028204905060018216806200023c57607f821691505b602082108103620002525762000251620001f4565b5b50919050565b613f1780620002686000396000f3fe608060405234801561001057600080fd5b50600436106101155760003560e01c8063715018a6116100a2578063bd85b03911610071578063bd85b039146102da578063e985e9c51461030a578063f242432a1461033a578063f2fde38b14610356578063f5298aca1461037257610115565b8063715018a61461027a578063731133e9146102845780638da5cb5b146102a0578063a22cb465146102be57610115565b80631f7fdffa116100e95780631f7fdffa146101c65780632eb2c2d6146101e25780634e1273f4146101fe5780634f558e791461022e5780636b20c4541461025e57610115565b8062fdd58e1461011a57806301ffc9a71461014a57806302fe53051461017a5780630e89341c14610196575b600080fd5b610134600480360381019061012f919061267f565b61038e565b60405161014191906126ce565b60405180910390f35b610164600480360381019061015f9190612741565b610456565b6040516101719190612789565b60405180910390f35b610194600480360381019061018f91906128ea565b610538565b005b6101b060048036038101906101ab9190612933565b6105c0565b6040516101bd91906129e8565b60405180910390f35b6101e060048036038101906101db9190612b73565b610654565b005b6101fc60048036038101906101f79190612c2e565b6106e2565b005b61021860048036038101906102139190612dc0565b610783565b6040516102259190612ef6565b60405180910390f35b61024860048036038101906102439190612933565b61089c565b6040516102559190612789565b60405180910390f35b61027860048036038101906102739190612f18565b6108b0565b005b61028261094d565b005b61029e60048036038101906102999190612fa3565b6109d5565b005b6102a8610a63565b6040516102b59190613035565b60405180910390f35b6102d860048036038101906102d3919061307c565b610a8d565b005b6102f460048036038101906102ef9190612933565b610aa3565b60405161030191906126ce565b60405180910390f35b610324600480360381019061031f91906130bc565b610ac0565b6040516103319190612789565b60405180910390f35b610354600480360381019061034f91906130fc565b610b54565b005b610370600480360381019061036b9190613193565b610bf5565b005b61038c600480360381019061038791906131c0565b610cec565b005b60008073ffffffffffffffffffffffffffffffffffffffff168373ffffffffffffffffffffffffffffffffffffffff16036103fe576040517f08c379a00000000000000000000000000000000000000000000000000000000081526004016103f590613285565b60405180910390fd5b60008083815260200190815260200160002060008473ffffffffffffffffffffffffffffffffffffffff1673ffffffffffffffffffffffffffffffffffffffff16815260200190815260200160002054905092915050565b60007fd9b67a26000000000000000000000000000000000000000000000000000000007bffffffffffffffffffffffffffffffffffffffffffffffffffffffff1916827bffffffffffffffffffffffffffffffffffffffffffffffffffffffff1916148061052157507f0e89341c000000000000000000000000000000000000000000000000000000007bffffffffffffffffffffffffffffffffffffffffffffffffffffffff1916827bffffffffffffffffffffffffffffffffffffffffffffffffffffffff1916145b80610531575061053082610d89565b5b9050919050565b610540610df3565b73ffffffffffffffffffffffffffffffffffffffff1661055e610a63565b73ffffffffffffffffffffffffffffffffffffffff16146105b4576040517f08c379a00000000000000000000000000000000000000000000000000000000081526004016105ab906132f1565b60405180910390fd5b6105bd81610dfb565b50565b6060600280546105cf90613340565b80601f01602080910402602001604051908101604052809291908181526020018280546105fb90613340565b80156106485780601f1061061d57610100808354040283529160200191610648565b820191906000526020600020905b81548152906001019060200180831161062b57829003601f168201915b50505050509050919050565b61065c610df3565b73ffffffffffffffffffffffffffffffffffffffff1661067a610a63565b73ffffffffffffffffffffffffffffffffffffffff16146106d0576040517f08c379a00000000000000000000000000000000000000000000000000000000081526004016106c7906132f1565b60405180910390fd5b6106dc84848484610e15565b50505050565b6106ea610df3565b73ffffffffffffffffffffffffffffffffffffffff168573ffffffffffffffffffffffffffffffffffffffff161480610730575061072f8561072a610df3565b610ac0565b5b61076f576040517f08c379a0000000000000000000000000000000000000000000000000000000008152600401610766906133e3565b60405180910390fd5b61077c8585858585611041565b5050505050565b606081518351146107c9576040517f08c379a00000000000000000000000000000000000000000000000000000000081526004016107c090613475565b60405180910390fd5b6000835167ffffffffffffffff8111156107e6576107e56127bf565b5b6040519080825280602002602001820160405280156108145781602001602082028036833780820191505090505b50905060005b84518110156108915761086185828151811061083957610838613495565b5b602002602001015185838151811061085457610853613495565b5b602002602001015161038e565b82828151811061087457610873613495565b5b6020026020010181815250508061088a906134f3565b905061081a565b508091505092915050565b6000806108a883610aa3565b119050919050565b6108b8610df3565b73ffffffffffffffffffffffffffffffffffffffff168373ffffffffffffffffffffffffffffffffffffffff1614806108fe57506108fd836108f8610df3565b610ac0565b5b61093d576040517f08c379a0000000000000000000000000000000000000000000000000000000008152600401610934906135ad565b60405180910390fd5b610948838383611362565b505050565b610955610df3565b73ffffffffffffffffffffffffffffffffffffffff16610973610a63565b73ffffffffffffffffffffffffffffffffffffffff16146109c9576040517f08c379a00000000000000000000000000000000000000000000000000000000081526004016109c0906132f1565b60405180910390fd5b6109d36000611630565b565b6109dd610df3565b73ffffffffffffffffffffffffffffffffffffffff166109fb610a63565b73ffffffffffffffffffffffffffffffffffffffff1614610a51576040517f08c379a0000000000000000000000000000000000000000000000000000000008152600401610a48906132f1565b60405180910390fd5b610a5d848484846116f6565b50505050565b6000600360009054906101000a900473ffffffffffffffffffffffffffffffffffffffff16905090565b610a9f610a98610df3565b83836118a6565b5050565b600060046000838152602001908152602001600020549050919050565b6000600160008473ffffffffffffffffffffffffffffffffffffffff1673ffffffffffffffffffffffffffffffffffffffff16815260200190815260200160002060008373ffffffffffffffffffffffffffffffffffffffff1673ffffffffffffffffffffffffffffffffffffffff16815260200190815260200160002060009054906101000a900460ff16905092915050565b610b5c610df3565b73ffffffffffffffffffffffffffffffffffffffff168573ffffffffffffffffffffffffffffffffffffffff161480610ba25750610ba185610b9c610df3565b610ac0565b5b610be1576040517f08c379a0000000000000000000000000000000000000000000000000000000008152600401610bd8906135ad565b60405180910390fd5b610bee8585858585611a12565b5050505050565b610bfd610df3565b73ffffffffffffffffffffffffffffffffffffffff16610c1b610a63565b73ffffffffffffffffffffffffffffffffffffffff1614610c71576040517f08c379a0000000000000000000000000000000000000000000000000000000008152600401610c68906132f1565b60405180910390fd5b600073ffffffffffffffffffffffffffffffffffffffff168173ffffffffffffffffffffffffffffffffffffffff1603610ce0576040517f08c379a0000000000000000000000000000000000000000000000000000000008152600401610cd79061363f565b60405180910390fd5b610ce981611630565b50565b610cf4610df3565b73ffffffffffffffffffffffffffffffffffffffff168373ffffffffffffffffffffffffffffffffffffffff161480610d3a5750610d3983610d34610df3565b610ac0565b5b610d79576040517f08c379a0000000000000000000000000000000000000000000000000000000008152600401610d70906135ad565b60405180910390fd5b610d84838383611cad565b505050565b60007f01ffc9a7000000000000000000000000000000000000000000000000000000007bffffffffffffffffffffffffffffffffffffffffffffffffffffffff1916827bffffffffffffffffffffffffffffffffffffffffffffffffffffffff1916149050919050565b600033905090565b8060029080519060200190610e11929190612534565b5050565b600073ffffffffffffffffffffffffffffffffffffffff168473ffffffffffffffffffffffffffffffffffffffff1603610e84576040517f08c379a0000000000000000000000000000000000000000000000000000000008152600401610e7b906136d1565b60405180910390fd5b8151835114610ec8576040517f08c379a0000000000000000000000000000000000000000000000000000000008152600401610ebf90613763565b60405180910390fd5b6000610ed2610df3565b9050610ee381600087878787611ef3565b60005b8451811015610f9c57838181518110610f0257610f01613495565b5b6020026020010151600080878481518110610f2057610f1f613495565b5b6020026020010151815260200190815260200160002060008873ffffffffffffffffffffffffffffffffffffffff1673ffffffffffffffffffffffffffffffffffffffff1681526020019081526020016000206000828254610f829190613783565b925050819055508080610f94906134f3565b915050610ee6565b508473ffffffffffffffffffffffffffffffffffffffff16600073ffffffffffffffffffffffffffffffffffffffff168273ffffffffffffffffffffffffffffffffffffffff167f4a39dc06d4c0dbc64b70af90fd698a233a518aa5d07e595d983b8c0526c8f7fb87876040516110149291906137d9565b60405180910390a461102b81600087878787611f09565b61103a81600087878787611f11565b5050505050565b8151835114611085576040517f08c379a000000000000000000000000000000000000000000000000000000000815260040161107c90613763565b60405180910390fd5b600073ffffffffffffffffffffffffffffffffffffffff168473ffffffffffffffffffffffffffffffffffffffff16036110f4576040517f08c379a00000000000000000000000000000000000000000000000000000000081526004016110eb90613882565b60405180910390fd5b60006110fe610df3565b905061110e818787878787611ef3565b60005b84518110156112bf57600085828151811061112f5761112e613495565b5b60200260200101519050600085838151811061114e5761114d613495565b5b60200260200101519050600080600084815260200190815260200160002060008b73ffffffffffffffffffffffffffffffffffffffff1673ffffffffffffffffffffffffffffffffffffffff168152602001908152602001600020549050818110156111ef576040517f08c379a00000000000000000000000000000000000000000000000000000000081526004016111e690613914565b60405180910390fd5b81810360008085815260200190815260200160002060008c73ffffffffffffffffffffffffffffffffffffffff1673ffffffffffffffffffffffffffffffffffffffff168152602001908152602001600020819055508160008085815260200190815260200160002060008b73ffffffffffffffffffffffffffffffffffffffff1673ffffffffffffffffffffffffffffffffffffffff16815260200190815260200160002060008282546112a49190613783565b92505081905550505050806112b8906134f3565b9050611111565b508473ffffffffffffffffffffffffffffffffffffffff168673ffffffffffffffffffffffffffffffffffffffff168273ffffffffffffffffffffffffffffffffffffffff167f4a39dc06d4c0dbc64b70af90fd698a233a518aa5d07e595d983b8c0526c8f7fb87876040516113369291906137d9565b60405180910390a461134c818787878787611f09565b61135a818787878787611f11565b505050505050565b600073ffffffffffffffffffffffffffffffffffffffff168373ffffffffffffffffffffffffffffffffffffffff16036113d1576040517f08c379a00000000000000000000000000000000000000000000000000000000081526004016113c8906139a6565b60405180910390fd5b8051825114611415576040517f08c379a000000000000000000000000000000000000000000000000000000000815260040161140c90613763565b60405180910390fd5b600061141f610df3565b905061143f81856000868660405180602001604052806000815250611ef3565b60005b835181101561158c5760008482815181106114605761145f613495565b5b60200260200101519050600084838151811061147f5761147e613495565b5b60200260200101519050600080600084815260200190815260200160002060008973ffffffffffffffffffffffffffffffffffffffff1673ffffffffffffffffffffffffffffffffffffffff16815260200190815260200160002054905081811015611520576040517f08c379a000000000000000000000000000000000000000000000000000000000815260040161151790613a38565b60405180910390fd5b81810360008085815260200190815260200160002060008a73ffffffffffffffffffffffffffffffffffffffff1673ffffffffffffffffffffffffffffffffffffffff168152602001908152602001600020819055505050508080611584906134f3565b915050611442565b50600073ffffffffffffffffffffffffffffffffffffffff168473ffffffffffffffffffffffffffffffffffffffff168273ffffffffffffffffffffffffffffffffffffffff167f4a39dc06d4c0dbc64b70af90fd698a233a518aa5d07e595d983b8c0526c8f7fb86866040516116049291906137d9565b60405180910390a461162a81856000868660405180602001604052806000815250611f09565b50505050565b6000600360009054906101000a900473ffffffffffffffffffffffffffffffffffffffff16905081600360006101000a81548173ffffffffffffffffffffffffffffffffffffffff021916908373ffffffffffffffffffffffffffffffffffffffff1602179055508173ffffffffffffffffffffffffffffffffffffffff168173ffffffffffffffffffffffffffffffffffffffff167f8be0079c531659141344cd1fd0a4f28419497f9722a3daafe3b4186f6b6457e060405160405180910390a35050565b600073ffffffffffffffffffffffffffffffffffffffff168473ffffffffffffffffffffffffffffffffffffffff1603611765576040517f08c379a000000000000000000000000000000000000000000000000000000000815260040161175c906136d1565b60405180910390fd5b600061176f610df3565b9050600061177c856120e8565b90506000611789856120e8565b905061179a83600089858589611ef3565b8460008088815260200190815260200160002060008973ffffffffffffffffffffffffffffffffffffffff1673ffffffffffffffffffffffffffffffffffffffff16815260200190815260200160002060008282546117f99190613783565b925050819055508673ffffffffffffffffffffffffffffffffffffffff16600073ffffffffffffffffffffffffffffffffffffffff168473ffffffffffffffffffffffffffffffffffffffff167fc3d58168c5ae7397731d063d5bbf3d657854427343f4c083240f7aacaa2d0f628989604051611877929190613a58565b60405180910390a461188e83600089858589611f09565b61189d83600089898989612162565b50505050505050565b8173ffffffffffffffffffffffffffffffffffffffff168373ffffffffffffffffffffffffffffffffffffffff1603611914576040517f08c379a000000000000000000000000000000000000000000000000000000000815260040161190b90613af3565b60405180910390fd5b80600160008573ffffffffffffffffffffffffffffffffffffffff1673ffffffffffffffffffffffffffffffffffffffff16815260200190815260200160002060008473ffffffffffffffffffffffffffffffffffffffff1673ffffffffffffffffffffffffffffffffffffffff16815260200190815260200160002060006101000a81548160ff0219169083151502179055508173ffffffffffffffffffffffffffffffffffffffff168373ffffffffffffffffffffffffffffffffffffffff167f17307eab39ab6107e8899845ad3d59bd9653f200f220920489ca2b5937696c3183604051611a059190612789565b60405180910390a3505050565b600073ffffffffffffffffffffffffffffffffffffffff168473ffffffffffffffffffffffffffffffffffffffff1603611a81576040517f08c379a0000000000000000000000000000000000000000000000000000000008152600401611a7890613882565b60405180910390fd5b6000611a8b610df3565b90506000611a98856120e8565b90506000611aa5856120e8565b9050611ab5838989858589611ef3565b600080600088815260200190815260200160002060008a73ffffffffffffffffffffffffffffffffffffffff1673ffffffffffffffffffffffffffffffffffffffff16815260200190815260200160002054905085811015611b4c576040517f08c379a0000000000000000000000000000000000000000000000000000000008152600401611b4390613914565b60405180910390fd5b85810360008089815260200190815260200160002060008b73ffffffffffffffffffffffffffffffffffffffff1673ffffffffffffffffffffffffffffffffffffffff168152602001908152602001600020819055508560008089815260200190815260200160002060008a73ffffffffffffffffffffffffffffffffffffffff1673ffffffffffffffffffffffffffffffffffffffff1681526020019081526020016000206000828254611c019190613783565b925050819055508773ffffffffffffffffffffffffffffffffffffffff168973ffffffffffffffffffffffffffffffffffffffff168573ffffffffffffffffffffffffffffffffffffffff167fc3d58168c5ae7397731d063d5bbf3d657854427343f4c083240f7aacaa2d0f628a8a604051611c7e929190613a58565b60405180910390a4611c94848a8a86868a611f09565b611ca2848a8a8a8a8a612162565b505050505050505050565b600073ffffffffffffffffffffffffffffffffffffffff168373ffffffffffffffffffffffffffffffffffffffff1603611d1c576040517f08c379a0000000000000000000000000000000000000000000000000000000008152600401611d13906139a6565b60405180910390fd5b6000611d26610df3565b90506000611d33846120e8565b90506000611d40846120e8565b9050611d6083876000858560405180602001604052806000815250611ef3565b600080600087815260200190815260200160002060008873ffffffffffffffffffffffffffffffffffffffff1673ffffffffffffffffffffffffffffffffffffffff16815260200190815260200160002054905084811015611df7576040517f08c379a0000000000000000000000000000000000000000000000000000000008152600401611dee90613a38565b60405180910390fd5b84810360008088815260200190815260200160002060008973ffffffffffffffffffffffffffffffffffffffff1673ffffffffffffffffffffffffffffffffffffffff16815260200190815260200160002081905550600073ffffffffffffffffffffffffffffffffffffffff168773ffffffffffffffffffffffffffffffffffffffff168573ffffffffffffffffffffffffffffffffffffffff167fc3d58168c5ae7397731d063d5bbf3d657854427343f4c083240f7aacaa2d0f628989604051611ec4929190613a58565b60405180910390a4611eea84886000868660405180602001604052806000815250611f09565b50505050505050565b611f01868686868686612339565b505050505050565b505050505050565b611f308473ffffffffffffffffffffffffffffffffffffffff16612509565b156120e0578373ffffffffffffffffffffffffffffffffffffffff1663bc197c8187878686866040518663ffffffff1660e01b8152600401611f76959493929190613b68565b6020604051808303816000875af1925050508015611fb257506040513d601f19601f82011682018060405250810190611faf9190613be5565b60015b61205757611fbe613c1f565b806308c379a00361201a5750611fd2613c41565b80611fdd575061201c565b806040517f08c379a000000000000000000000000000000000000000000000000000000000815260040161201191906129e8565b60405180910390fd5b505b6040517f08c379a000000000000000000000000000000000000000000000000000000000815260040161204e90613d43565b60405180910390fd5b63bc197c8160e01b7bffffffffffffffffffffffffffffffffffffffffffffffffffffffff1916817bffffffffffffffffffffffffffffffffffffffffffffffffffffffff1916146120de576040517f08c379a00000000000000000000000000000000000000000000000000000000081526004016120d590613dd5565b60405180910390fd5b505b505050505050565b60606000600167ffffffffffffffff811115612107576121066127bf565b5b6040519080825280602002602001820160405280156121355781602001602082028036833780820191505090505b509050828160008151811061214d5761214c613495565b5b60200260200101818152505080915050919050565b6121818473ffffffffffffffffffffffffffffffffffffffff16612509565b15612331578373ffffffffffffffffffffffffffffffffffffffff1663f23a6e6187878686866040518663ffffffff1660e01b81526004016121c7959493929190613df5565b6020604051808303816000875af192505050801561220357506040513d601f19601f820116820180604052508101906122009190613be5565b60015b6122a85761220f613c1f565b806308c379a00361226b5750612223613c41565b8061222e575061226d565b806040517f08c379a000000000000000000000000000000000000000000000000000000000815260040161226291906129e8565b60405180910390fd5b505b6040517f08c379a000000000000000000000000000000000000000000000000000000000815260040161229f90613d43565b60405180910390fd5b63f23a6e6160e01b7bffffffffffffffffffffffffffffffffffffffffffffffffffffffff1916817bffffffffffffffffffffffffffffffffffffffffffffffffffffffff19161461232f576040517f08c379a000000000000000000000000000000000000000000000000000000000815260040161232690613dd5565b60405180910390fd5b505b505050505050565b61234786868686868661252c565b600073ffffffffffffffffffffffffffffffffffffffff168573ffffffffffffffffffffffffffffffffffffffff16036123f85760005b83518110156123f65782818151811061239a57612399613495565b5b6020026020010151600460008684815181106123b9576123b8613495565b5b6020026020010151815260200190815260200160002060008282546123de9190613783565b92505081905550806123ef906134f3565b905061237e565b505b600073ffffffffffffffffffffffffffffffffffffffff168473ffffffffffffffffffffffffffffffffffffffff16036125015760005b83518110156124ff57600084828151811061244d5761244c613495565b5b60200260200101519050600084838151811061246c5761246b613495565b5b60200260200101519050600060046000848152602001908152602001600020549050818110156124d1576040517f08c379a00000000000000000000000000000000000000000000000000000000081526004016124c890613ec1565b60405180910390fd5b8181036004600085815260200190815260200160002081905550505050806124f8906134f3565b905061242f565b505b505050505050565b6000808273ffffffffffffffffffffffffffffffffffffffff163b119050919050565b505050505050565b82805461254090613340565b90600052602060002090601f01602090048101928261256257600085556125a9565b82601f1061257b57805160ff19168380011785556125a9565b828001600101855582156125a9579182015b828111156125a857825182559160200191906001019061258d565b5b5090506125b691906125ba565b5090565b5b808211156125d35760008160009055506001016125bb565b5090565b6000604051905090565b600080fd5b600080fd5b600073ffffffffffffffffffffffffffffffffffffffff82169050919050565b6000612616826125eb565b9050919050565b6126268161260b565b811461263157600080fd5b50565b6000813590506126438161261d565b92915050565b6000819050919050565b61265c81612649565b811461266757600080fd5b50565b60008135905061267981612653565b92915050565b60008060408385031215612696576126956125e1565b5b60006126a485828601612634565b92505060206126b58582860161266a565b9150509250929050565b6126c881612649565b82525050565b60006020820190506126e360008301846126bf565b92915050565b60007fffffffff0000000000000000000000000000000000000000000000000000000082169050919050565b61271e816126e9565b811461272957600080fd5b50565b60008135905061273b81612715565b92915050565b600060208284031215612757576127566125e1565b5b60006127658482850161272c565b91505092915050565b60008115159050919050565b6127838161276e565b82525050565b600060208201905061279e600083018461277a565b92915050565b600080fd5b600080fd5b6000601f19601f8301169050919050565b7f4e487b7100000000000000000000000000000000000000000000000000000000600052604160045260246000fd5b6127f7826127ae565b810181811067ffffffffffffffff82111715612816576128156127bf565b5b80604052505050565b60006128296125d7565b905061283582826127ee565b919050565b600067ffffffffffffffff821115612855576128546127bf565b5b61285e826127ae565b9050602081019050919050565b82818337600083830152505050565b600061288d6128888461283a565b61281f565b9050828152602081018484840111156128a9576128a86127a9565b5b6128b484828561286b565b509392505050565b600082601f8301126128d1576128d06127a4565b5b81356128e184826020860161287a565b91505092915050565b600060208284031215612900576128ff6125e1565b5b600082013567ffffffffffffffff81111561291e5761291d6125e6565b5b61292a848285016128bc565b91505092915050565b600060208284031215612949576129486125e1565b5b60006129578482850161266a565b91505092915050565b600081519050919050565b600082825260208201905092915050565b60005b8381101561299a57808201518184015260208101905061297f565b838111156129a9576000848401525b50505050565b60006129ba82612960565b6129c4818561296b565b93506129d481856020860161297c565b6129dd816127ae565b840191505092915050565b60006020820190508181036000830152612a0281846129af565b905092915050565b600067ffffffffffffffff821115612a2557612a246127bf565b5b602082029050602081019050919050565b600080fd5b6000612a4e612a4984612a0a565b61281f565b90508083825260208201905060208402830185811115612a7157612a70612a36565b5b835b81811015612a9a5780612a86888261266a565b845260208401935050602081019050612a73565b5050509392505050565b600082601f830112612ab957612ab86127a4565b5b8135612ac9848260208601612a3b565b91505092915050565b600067ffffffffffffffff821115612aed57612aec6127bf565b5b612af6826127ae565b9050602081019050919050565b6000612b16612b1184612ad2565b61281f565b905082815260208101848484011115612b3257612b316127a9565b5b612b3d84828561286b565b509392505050565b600082601f830112612b5a57612b596127a4565b5b8135612b6a848260208601612b03565b91505092915050565b60008060008060808587031215612b8d57612b8c6125e1565b5b6000612b9b87828801612634565b945050602085013567ffffffffffffffff811115612bbc57612bbb6125e6565b5b612bc887828801612aa4565b935050604085013567ffffffffffffffff811115612be957612be86125e6565b5b612bf587828801612aa4565b925050606085013567ffffffffffffffff811115612c1657612c156125e6565b5b612c2287828801612b45565b91505092959194509250565b600080600080600060a08688031215612c4a57612c496125e1565b5b6000612c5888828901612634565b9550506020612c6988828901612634565b945050604086013567ffffffffffffffff811115612c8a57612c896125e6565b5b612c9688828901612aa4565b935050606086013567ffffffffffffffff811115612cb757612cb66125e6565b5b612cc388828901612aa4565b925050608086013567ffffffffffffffff811115612ce457612ce36125e6565b5b612cf088828901612b45565b9150509295509295909350565b600067ffffffffffffffff821115612d1857612d176127bf565b5b602082029050602081019050919050565b6000612d3c612d3784612cfd565b61281f565b90508083825260208201905060208402830185811115612d5f57612d5e612a36565b5b835b81811015612d885780612d748882612634565b845260208401935050602081019050612d61565b5050509392505050565b600082601f830112612da757612da66127a4565b5b8135612db7848260208601612d29565b91505092915050565b60008060408385031215612dd757612dd66125e1565b5b600083013567ffffffffffffffff811115612df557612df46125e6565b5b612e0185828601612d92565b925050602083013567ffffffffffffffff811115612e2257612e216125e6565b5b612e2e85828601612aa4565b9150509250929050565b600081519050919050565b600082825260208201905092915050565b6000819050602082019050919050565b612e6d81612649565b82525050565b6000612e7f8383612e64565b60208301905092915050565b6000602082019050919050565b6000612ea382612e38565b612ead8185612e43565b9350612eb883612e54565b8060005b83811015612ee9578151612ed08882612e73565b9750612edb83612e8b565b925050600181019050612ebc565b5085935050505092915050565b60006020820190508181036000830152612f108184612e98565b905092915050565b600080600060608486031215612f3157612f306125e1565b5b6000612f3f86828701612634565b935050602084013567ffffffffffffffff811115612f6057612f5f6125e6565b5b612f6c86828701612aa4565b925050604084013567ffffffffffffffff811115612f8d57612f8c6125e6565b5b612f9986828701612aa4565b9150509250925092565b60008060008060808587031215612fbd57612fbc6125e1565b5b6000612fcb87828801612634565b9450506020612fdc8782880161266a565b9350506040612fed8782880161266a565b925050606085013567ffffffffffffffff81111561300e5761300d6125e6565b5b61301a87828801612b45565b91505092959194509250565b61302f8161260b565b82525050565b600060208201905061304a6000830184613026565b92915050565b6130598161276e565b811461306457600080fd5b50565b60008135905061307681613050565b92915050565b60008060408385031215613093576130926125e1565b5b60006130a185828601612634565b92505060206130b285828601613067565b9150509250929050565b600080604083850312156130d3576130d26125e1565b5b60006130e185828601612634565b92505060206130f285828601612634565b9150509250929050565b600080600080600060a08688031215613118576131176125e1565b5b600061312688828901612634565b955050602061313788828901612634565b94505060406131488882890161266a565b93505060606131598882890161266a565b925050608086013567ffffffffffffffff81111561317a576131796125e6565b5b61318688828901612b45565b9150509295509295909350565b6000602082840312156131a9576131a86125e1565b5b60006131b784828501612634565b91505092915050565b6000806000606084860312156131d9576131d86125e1565b5b60006131e786828701612634565b93505060206131f88682870161266a565b92505060406132098682870161266a565b9150509250925092565b7f455243313135353a2062616c616e636520717565727920666f7220746865207a60008201527f65726f2061646472657373000000000000000000000000000000000000000000602082015250565b600061326f602b8361296b565b915061327a82613213565b604082019050919050565b6000602082019050818103600083015261329e81613262565b9050919050565b7f4f776e61626c653a2063616c6c6572206973206e6f7420746865206f776e6572600082015250565b60006132db60208361296b565b91506132e6826132a5565b602082019050919050565b6000602082019050818103600083015261330a816132ce565b9050919050565b7f4e487b7100000000000000000000000000000000000000000000000000000000600052602260045260246000fd5b6000600282049050600182168061335857607f821691505b60208210810361336b5761336a613311565b5b50919050565b7f455243313135353a207472616e736665722063616c6c6572206973206e6f742060008201527f6f776e6572206e6f7220617070726f7665640000000000000000000000000000602082015250565b60006133cd60328361296b565b91506133d882613371565b604082019050919050565b600060208201905081810360008301526133fc816133c0565b9050919050565b7f455243313135353a206163636f756e747320616e6420696473206c656e67746860008201527f206d69736d617463680000000000000000000000000000000000000000000000602082015250565b600061345f60298361296b565b915061346a82613403565b604082019050919050565b6000602082019050818103600083015261348e81613452565b9050919050565b7f4e487b7100000000000000000000000000000000000000000000000000000000600052603260045260246000fd5b7f4e487b7100000000000000000000000000000000000000000000000000000000600052601160045260246000fd5b60006134fe82612649565b91507fffffffffffffffffffffffffffffffffffffffffffffffffffffffffffffffff82036135305761352f6134c4565b5b600182019050919050565b7f455243313135353a2063616c6c6572206973206e6f74206f776e6572206e6f7260008201527f20617070726f7665640000000000000000000000000000000000000000000000602082015250565b600061359760298361296b565b91506135a28261353b565b604082019050919050565b600060208201905081810360008301526135c68161358a565b9050919050565b7f4f776e61626c653a206e6577206f776e657220697320746865207a65726f206160008201527f6464726573730000000000000000000000000000000000000000000000000000602082015250565b600061362960268361296b565b9150613634826135cd565b604082019050919050565b600060208201905081810360008301526136588161361c565b9050919050565b7f455243313135353a206d696e7420746f20746865207a65726f2061646472657360008201527f7300000000000000000000000000000000000000000000000000000000000000602082015250565b60006136bb60218361296b565b91506136c68261365f565b604082019050919050565b600060208201905081810360008301526136ea816136ae565b9050919050565b7f455243313135353a2069647320616e6420616d6f756e7473206c656e6774682060008201527f6d69736d61746368000000000000000000000000000000000000000000000000602082015250565b600061374d60288361296b565b9150613758826136f1565b604082019050919050565b6000602082019050818103600083015261377c81613740565b9050919050565b600061378e82612649565b915061379983612649565b9250827fffffffffffffffffffffffffffffffffffffffffffffffffffffffffffffffff038211156137ce576137cd6134c4565b5b828201905092915050565b600060408201905081810360008301526137f38185612e98565b905081810360208301526138078184612e98565b90509392505050565b7f455243313135353a207472616e7366657220746f20746865207a65726f20616460008201527f6472657373000000000000000000000000000000000000000000000000000000602082015250565b600061386c60258361296b565b915061387782613810565b604082019050919050565b6000602082019050818103600083015261389b8161385f565b9050919050565b7f455243313135353a20696e73756666696369656e742062616c616e636520666f60008201527f72207472616e7366657200000000000000000000000000000000000000000000602082015250565b60006138fe602a8361296b565b9150613909826138a2565b604082019050919050565b6000602082019050818103600083015261392d816138f1565b9050919050565b7f455243313135353a206275726e2066726f6d20746865207a65726f206164647260008201527f6573730000000000000000000000000000000000000000000000000000000000602082015250565b600061399060238361296b565b915061399b82613934565b604082019050919050565b600060208201905081810360008301526139bf81613983565b9050919050565b7f455243313135353a206275726e20616d6f756e7420657863656564732062616c60008201527f616e636500000000000000000000000000000000000000000000000000000000602082015250565b6000613a2260248361296b565b9150613a2d826139c6565b604082019050919050565b60006020820190508181036000830152613a5181613a15565b9050919050565b6000604082019050613a6d60008301856126bf565b613a7a60208301846126bf565b9392505050565b7f455243313135353a2073657474696e6720617070726f76616c2073746174757360008201527f20666f722073656c660000000000000000000000000000000000000000000000602082015250565b6000613add60298361296b565b9150613ae882613a81565b604082019050919050565b60006020820190508181036000830152613b0c81613ad0565b9050919050565b600081519050919050565b600082825260208201905092915050565b6000613b3a82613b13565b613b448185613b1e565b9350613b5481856020860161297c565b613b5d816127ae565b840191505092915050565b600060a082019050613b7d6000830188613026565b613b8a6020830187613026565b8181036040830152613b9c8186612e98565b90508181036060830152613bb08185612e98565b90508181036080830152613bc48184613b2f565b90509695505050505050565b600081519050613bdf81612715565b92915050565b600060208284031215613bfb57613bfa6125e1565b5b6000613c0984828501613bd0565b91505092915050565b60008160e01c9050919050565b600060033d1115613c3e5760046000803e613c3b600051613c12565b90505b90565b600060443d10613cce57613c536125d7565b60043d036004823e80513d602482011167ffffffffffffffff82111715613c7b575050613cce565b808201805167ffffffffffffffff811115613c995750505050613cce565b80602083010160043d038501811115613cb6575050505050613cce565b613cc5826020018501866127ee565b82955050505050505b90565b7f455243313135353a207472616e7366657220746f206e6f6e204552433131353560008201527f526563656976657220696d706c656d656e746572000000000000000000000000602082015250565b6000613d2d60348361296b565b9150613d3882613cd1565b604082019050919050565b60006020820190508181036000830152613d5c81613d20565b9050919050565b7f455243313135353a204552433131353552656365697665722072656a6563746560008201527f6420746f6b656e73000000000000000000000000000000000000000000000000602082015250565b6000613dbf60288361296b565b9150613dca82613d63565b604082019050919050565b60006020820190508181036000830152613dee81613db2565b9050919050565b600060a082019050613e0a6000830188613026565b613e176020830187613026565b613e2460408301866126bf565b613e3160608301856126bf565b8181036080830152613e438184613b2f565b90509695505050505050565b7f455243313135353a206275726e20616d6f756e74206578636565647320746f7460008201527f616c537570706c79000000000000000000000000000000000000000000000000602082015250565b6000613eab60288361296b565b9150613eb682613e4f565b604082019050919050565b60006020820190508181036000830152613eda81613e9e565b905091905056fea26469706673582212208176c499f77d2cfac725312132a14ed279f849a38884f8b81cf27c7beca1ca1764736f6c634300080d0033",
  "immutableReferences": {},
  "source": "// SPDX-License-Identifier: MIT\r\npragma solidity ^0.8.4;\r\n\r\nimport \"@openzeppelin/contracts/token/ERC1155/ERC1155.sol\";\r\nimport \"@openzeppelin/contracts/access/Ownable.sol\";\r\nimport \"@openzeppelin/contracts/token/ERC1155/extensions/ERC1155Burnable.sol\";\r\nimport \"@openzeppelin/contracts/token/ERC1155/extensions/ERC1155Supply.sol\";\r\n\r\ncontract SLMNFT1155 is ERC1155, Ownable, ERC1155Burnable, ERC1155Supply {\r\n    constructor() ERC1155(\"\") {}\r\n\r\n    function setURI(string memory newuri) public onlyOwner {\r\n        _setURI(newuri);\r\n    }\r\n\r\n    function mint(address account, uint256 id, uint256 amount, bytes memory data)\r\n        public\r\n        onlyOwner\r\n    {\r\n        _mint(account, id, amount, data);\r\n    }\r\n\r\n    function mintBatch(address to, uint256[] memory ids, uint256[] memory amounts, bytes memory data)\r\n        public\r\n        onlyOwner\r\n    {\r\n        _mintBatch(to, ids, amounts, data);\r\n    }\r\n\r\n    // The following functions are overrides required by Solidity.\r\n\r\n    function _beforeTokenTransfer(address operator, address from, address to, uint256[] memory ids, uint256[] memory amounts, bytes memory data)\r\n        internal\r\n        override(ERC1155, ERC1155Supply)\r\n    {\r\n        super._beforeTokenTransfer(operator, from, to, ids, amounts, data);\r\n    }\r\n}",
  "sourcePath": "/mnt/c/Users/Sergei/git/SLM-Coin/contracts/SLMNFT1155.sol",
  "compiler": {
    "name": "solc",
    "version": "0.8.13+commit.abaa5c0e.Emscripten.clang"
  },
  "schemaVersion": "3.4.7",
  "updatedAt": "2022-05-04T11:18:53.625Z",
  "networkType": "ethereum",
  "devdoc": {
    "kind": "dev",
    "methods": {
      "balanceOf(address,uint256)": {
        "details": "See {IERC1155-balanceOf}. Requirements: - `account` cannot be the zero address."
      },
      "balanceOfBatch(address[],uint256[])": {
        "details": "See {IERC1155-balanceOfBatch}. Requirements: - `accounts` and `ids` must have the same length."
      },
      "exists(uint256)": {
        "details": "Indicates whether any token exist with a given id, or not."
      },
      "isApprovedForAll(address,address)": {
        "details": "See {IERC1155-isApprovedForAll}."
      },
      "owner()": {
        "details": "Returns the address of the current owner."
      },
      "renounceOwnership()": {
        "details": "Leaves the contract without owner. It will not be possible to call `onlyOwner` functions anymore. Can only be called by the current owner. NOTE: Renouncing ownership will leave the contract without an owner, thereby removing any functionality that is only available to the owner."
      },
      "safeBatchTransferFrom(address,address,uint256[],uint256[],bytes)": {
        "details": "See {IERC1155-safeBatchTransferFrom}."
      },
      "safeTransferFrom(address,address,uint256,uint256,bytes)": {
        "details": "See {IERC1155-safeTransferFrom}."
      },
      "setApprovalForAll(address,bool)": {
        "details": "See {IERC1155-setApprovalForAll}."
      },
      "supportsInterface(bytes4)": {
        "details": "See {IERC165-supportsInterface}."
      },
      "totalSupply(uint256)": {
        "details": "Total amount of tokens in with a given id."
      },
      "transferOwnership(address)": {
        "details": "Transfers ownership of the contract to a new account (`newOwner`). Can only be called by the current owner."
      },
      "uri(uint256)": {
        "details": "See {IERC1155MetadataURI-uri}. This implementation returns the same URI for *all* token types. It relies on the token type ID substitution mechanism https://eips.ethereum.org/EIPS/eip-1155#metadata[defined in the EIP]. Clients calling this function must replace the `\\{id\\}` substring with the actual token type ID."
      }
    },
    "version": 1
  },
  "userdoc": {
    "kind": "user",
    "methods": {},
    "version": 1
  }
}