{
  "contractName": "SLMNFTFactory",
  "abi": [
    {
      "inputs": [
        {
          "internalType": "address",
          "name": "nftAddress_",
          "type": "address"
        },
        {
          "internalType": "address",
          "name": "tokenAddress_",
          "type": "address"
        },
        {
          "internalType": "uint256",
          "name": "randomNFTPrice_",
          "type": "uint256"
        }
      ],
      "stateMutability": "nonpayable",
      "type": "constructor"
    },
    {
      "anonymous": false,
      "inputs": [
        {
          "indexed": true,
          "internalType": "address",
          "name": "previousOwner",
          "type": "address"
        },
        {
          "indexed": true,
          "internalType": "address",
          "name": "newOwner",
          "type": "address"
        }
      ],
      "name": "OwnershipTransferred",
      "type": "event"
    },
    {
      "anonymous": false,
      "inputs": [
        {
          "indexed": true,
          "internalType": "address",
          "name": "from",
          "type": "address"
        },
        {
          "indexed": true,
          "internalType": "address",
          "name": "to",
          "type": "address"
        },
        {
          "indexed": true,
          "internalType": "uint256",
          "name": "tokenId",
          "type": "uint256"
        }
      ],
      "name": "Transfer",
      "type": "event"
    },
    {
      "stateMutability": "payable",
      "type": "fallback",
      "payable": true
    },
    {
      "inputs": [],
      "name": "nftAddress",
      "outputs": [
        {
          "internalType": "address",
          "name": "",
          "type": "address"
        }
      ],
      "stateMutability": "view",
      "type": "function",
      "constant": true
    },
    {
      "inputs": [],
      "name": "owner",
      "outputs": [
        {
          "internalType": "address",
          "name": "",
          "type": "address"
        }
      ],
      "stateMutability": "view",
      "type": "function",
      "constant": true
    },
    {
      "inputs": [],
      "name": "randomNFTPrice",
      "outputs": [
        {
          "internalType": "uint256",
          "name": "",
          "type": "uint256"
        }
      ],
      "stateMutability": "view",
      "type": "function",
      "constant": true
    },
    {
      "inputs": [],
      "name": "renounceOwnership",
      "outputs": [],
      "stateMutability": "nonpayable",
      "type": "function"
    },
    {
      "inputs": [],
      "name": "tokenAddress",
      "outputs": [
        {
          "internalType": "address",
          "name": "",
          "type": "address"
        }
      ],
      "stateMutability": "view",
      "type": "function",
      "constant": true
    },
    {
      "stateMutability": "payable",
      "type": "receive",
      "payable": true
    },
    {
      "inputs": [
        {
          "internalType": "address",
          "name": "to",
          "type": "address"
        },
        {
          "internalType": "uint256",
          "name": "amount",
          "type": "uint256"
        }
      ],
      "name": "transfer",
      "outputs": [],
      "stateMutability": "nonpayable",
      "type": "function"
    },
    {
      "inputs": [],
      "name": "name",
      "outputs": [
        {
          "internalType": "string",
          "name": "",
          "type": "string"
        }
      ],
      "stateMutability": "pure",
      "type": "function",
      "constant": true
    },
    {
      "inputs": [],
      "name": "symbol",
      "outputs": [
        {
          "internalType": "string",
          "name": "",
          "type": "string"
        }
      ],
      "stateMutability": "pure",
      "type": "function",
      "constant": true
    },
    {
      "inputs": [],
      "name": "supportsFactoryInterface",
      "outputs": [
        {
          "internalType": "bool",
          "name": "",
          "type": "bool"
        }
      ],
      "stateMutability": "pure",
      "type": "function",
      "constant": true
    },
    {
      "inputs": [],
      "name": "numOptions",
      "outputs": [
        {
          "internalType": "uint256",
          "name": "",
          "type": "uint256"
        }
      ],
      "stateMutability": "view",
      "type": "function",
      "constant": true
    },
    {
      "inputs": [
        {
          "internalType": "address",
          "name": "newOwner",
          "type": "address"
        }
      ],
      "name": "transferOwnership",
      "outputs": [],
      "stateMutability": "nonpayable",
      "type": "function"
    },
    {
      "inputs": [
        {
          "internalType": "uint256",
          "name": "_optionId",
          "type": "uint256"
        }
      ],
      "name": "canMint",
      "outputs": [
        {
          "internalType": "bool",
          "name": "",
          "type": "bool"
        }
      ],
      "stateMutability": "view",
      "type": "function",
      "constant": true
    },
    {
      "inputs": [
        {
          "internalType": "uint256",
          "name": "_optionId",
          "type": "uint256"
        },
        {
          "internalType": "address",
          "name": "to",
          "type": "address"
        }
      ],
      "name": "mint",
      "outputs": [],
      "stateMutability": "nonpayable",
      "type": "function"
    },
    {
      "inputs": [
        {
          "internalType": "uint256",
          "name": "randomNFTPrice_",
          "type": "uint256"
        }
      ],
      "name": "setRandomNFTPrice",
      "outputs": [],
      "stateMutability": "nonpayable",
      "type": "function"
    },
    {
      "inputs": [],
      "name": "purchaseRandomNFT",
      "outputs": [],
      "stateMutability": "payable",
      "type": "function",
      "payable": true
    },
    {
      "inputs": [
        {
          "internalType": "uint256",
          "name": "tokenId",
          "type": "uint256"
        }
      ],
      "name": "tokenURI",
      "outputs": [
        {
          "internalType": "string",
          "name": "",
          "type": "string"
        }
      ],
      "stateMutability": "view",
      "type": "function",
      "constant": true
    },
    {
      "inputs": [
        {
          "internalType": "address",
          "name": "to",
          "type": "address"
        },
        {
          "internalType": "string",
          "name": "data",
          "type": "string"
        }
      ],
      "name": "mintWithMetadata",
      "outputs": [],
      "stateMutability": "nonpayable",
      "type": "function"
    },
    {
      "inputs": [
        {
          "internalType": "address",
          "name": "",
          "type": "address"
        },
        {
          "internalType": "address",
          "name": "_to",
          "type": "address"
        },
        {
          "internalType": "uint256",
          "name": "_tokenId",
          "type": "uint256"
        }
      ],
      "name": "transferFrom",
      "outputs": [],
      "stateMutability": "nonpayable",
      "type": "function"
    },
    {
      "inputs": [
        {
          "internalType": "address",
          "name": "_owner",
          "type": "address"
        },
        {
          "internalType": "address",
          "name": "_operator",
          "type": "address"
        }
      ],
      "name": "isApprovedForAll",
      "outputs": [
        {
          "internalType": "bool",
          "name": "isOperator",
          "type": "bool"
        }
      ],
      "stateMutability": "view",
      "type": "function",
      "constant": true
    },
    {
      "inputs": [
        {
          "internalType": "uint256",
          "name": "",
          "type": "uint256"
        }
      ],
      "name": "ownerOf",
      "outputs": [
        {
          "internalType": "address",
          "name": "_owner",
          "type": "address"
        }
      ],
      "stateMutability": "view",
      "type": "function",
      "constant": true
    },
    {
      "inputs": [
        {
          "internalType": "uint256",
          "name": "_optionId",
          "type": "uint256"
        }
      ],
      "name": "balanceOf",
      "outputs": [
        {
          "internalType": "uint256",
          "name": "",
          "type": "uint256"
        }
      ],
      "stateMutability": "view",
      "type": "function",
      "constant": true
    },
    {
      "inputs": [],
      "name": "exchangeRate",
      "outputs": [
        {
          "internalType": "uint256",
          "name": "",
          "type": "uint256"
        }
      ],
      "stateMutability": "view",
      "type": "function",
      "constant": true
    },
    {
      "inputs": [],
      "name": "exchangeETHForSLM",
      "outputs": [],
      "stateMutability": "payable",
      "type": "function",
      "payable": true
    },
    {
      "inputs": [
        {
          "internalType": "uint256",
          "name": "slmAmount",
          "type": "uint256"
        }
      ],
      "name": "exchangeSLMForETH",
      "outputs": [],
      "stateMutability": "nonpayable",
      "type": "function"
    }
  ],
  "bytecode": "0x608060405260016004556000600555620186a06006553480156200002257600080fd5b506040516200237d3803806200237d83398181016040528101906200004891906200033a565b620000686200005c6200011c60201b60201c565b6200012460201b60201c565b82600160006101000a81548173ffffffffffffffffffffffffffffffffffffffff021916908373ffffffffffffffffffffffffffffffffffffffff16021790555081600260006101000a81548173ffffffffffffffffffffffffffffffffffffffff021916908373ffffffffffffffffffffffffffffffffffffffff1602179055508060038190555062000113600062000107620001e860201b60201c565b6200021160201b60201c565b50505062000412565b600033905090565b60008060009054906101000a900473ffffffffffffffffffffffffffffffffffffffff169050816000806101000a81548173ffffffffffffffffffffffffffffffffffffffff021916908373ffffffffffffffffffffffffffffffffffffffff1602179055508173ffffffffffffffffffffffffffffffffffffffff168173ffffffffffffffffffffffffffffffffffffffff167f8be0079c531659141344cd1fd0a4f28419497f9722a3daafe3b4186f6b6457e060405160405180910390a35050565b60008060009054906101000a900473ffffffffffffffffffffffffffffffffffffffff16905090565b60005b6004548110156200029057808273ffffffffffffffffffffffffffffffffffffffff168473ffffffffffffffffffffffffffffffffffffffff167fddf252ad1be2c89b69c2b068fc378daa952ba7f163c4a11628f55a4df523b3ef60405160405180910390a480806200028790620003c5565b91505062000214565b505050565b600080fd5b600073ffffffffffffffffffffffffffffffffffffffff82169050919050565b6000620002c7826200029a565b9050919050565b620002d981620002ba565b8114620002e557600080fd5b50565b600081519050620002f981620002ce565b92915050565b6000819050919050565b6200031481620002ff565b81146200032057600080fd5b50565b600081519050620003348162000309565b92915050565b60008060006060848603121562000356576200035562000295565b5b60006200036686828701620002e8565b93505060206200037986828701620002e8565b92505060406200038c8682870162000323565b9150509250925092565b7f4e487b7100000000000000000000000000000000000000000000000000000000600052601160045260246000fd5b6000620003d282620002ff565b91507fffffffffffffffffffffffffffffffffffffffffffffffffffffffffffffffff820362000407576200040662000396565b5b600182019050919050565b611f5b80620004226000396000f3fe60806040526004361061014f5760003560e01c806395d89b41116100b6578063c311c5231161006f578063c311c52314610455578063c87b56dd14610480578063d326ff6a146104bd578063e985e9c5146104c7578063f2fde38b14610504578063fc35056a1461052d57610156565b806395d89b41146103455780639cc7f708146103705780639d76ea58146103ad578063a29d8b3f146103d8578063a9059cbb14610403578063b658d10e1461042c57610156565b80635dd871a3116101085780635dd871a3146102565780636352211e14610293578063715018a6146102d057806376220179146102e75780638da5cb5b146102f157806394bf804d1461031c57610156565b806306fdde031461015857806323b872dd146101835780633ba0b9a9146101ac578063471d06f4146101d75780634b97aed9146102005780635bf8633a1461022b57610156565b3661015657005b005b34801561016457600080fd5b5061016d610556565b60405161017a9190611615565b60405180910390f35b34801561018f57600080fd5b506101aa60048036038101906101a591906116df565b610576565b005b3480156101b857600080fd5b506101c1610585565b6040516101ce9190611741565b60405180910390f35b3480156101e357600080fd5b506101fe60048036038101906101f99190611891565b61064a565b005b34801561020c57600080fd5b5061021561075f565b6040516102229190611741565b60405180910390f35b34801561023757600080fd5b50610240610769565b60405161024d91906118fc565b60405180910390f35b34801561026257600080fd5b5061027d60048036038101906102789190611917565b61078f565b60405161028a919061195f565b60405180910390f35b34801561029f57600080fd5b506102ba60048036038101906102b59190611917565b610868565b6040516102c791906118fc565b60405180910390f35b3480156102dc57600080fd5b506102e5610879565b005b6102ef610901565b005b3480156102fd57600080fd5b50610306610a8a565b60405161031391906118fc565b60405180910390f35b34801561032857600080fd5b50610343600480360381019061033e919061197a565b610ab3565b005b34801561035157600080fd5b5061035a610bc6565b6040516103679190611615565b60405180910390f35b34801561037c57600080fd5b5061039760048036038101906103929190611917565b610c03565b6040516103a49190611741565b60405180910390f35b3480156103b957600080fd5b506103c2610cad565b6040516103cf91906118fc565b60405180910390f35b3480156103e457600080fd5b506103ed610cd3565b6040516103fa9190611741565b60405180910390f35b34801561040f57600080fd5b5061042a600480360381019061042591906119ba565b610cd9565b005b34801561043857600080fd5b50610453600480360381019061044e9190611917565b610da0565b005b34801561046157600080fd5b5061046a61103d565b604051610477919061195f565b60405180910390f35b34801561048c57600080fd5b506104a760048036038101906104a29190611917565b611046565b6040516104b49190611615565b60405180910390f35b6104c5611068565b005b3480156104d357600080fd5b506104ee60048036038101906104e991906119fa565b6110fd565b6040516104fb919061195f565b60405180910390f35b34801561051057600080fd5b5061052b60048036038101906105269190611a3a565b611214565b005b34801561053957600080fd5b50610554600480360381019061054f9190611917565b6112b3565b005b6060604051806060016040528060228152602001611ed060229139905090565b6105808183610ab3565b505050565b600080600260009054906101000a900473ffffffffffffffffffffffffffffffffffffffff16905060008173ffffffffffffffffffffffffffffffffffffffff166370a08231306040518263ffffffff1660e01b81526004016105e891906118fc565b602060405180830381865afa158015610605573d6000803e3d6000fd5b505050506040513d601f19601f820116820180604052508101906106299190611a7c565b905060004790506000828261063e9190611b07565b90508094505050505090565b610652611339565b73ffffffffffffffffffffffffffffffffffffffff16610670610a8a565b73ffffffffffffffffffffffffffffffffffffffff16146106c6576040517f08c379a00000000000000000000000000000000000000000000000000000000081526004016106bd90611b84565b60405180910390fd5b6000600160009054906101000a900473ffffffffffffffffffffffffffffffffffffffff1690508073ffffffffffffffffffffffffffffffffffffffff166352640e6884846040518363ffffffff1660e01b8152600401610728929190611ba4565b600060405180830381600087803b15801561074257600080fd5b505af1158015610756573d6000803e3d6000fd5b50505050505050565b6000600454905090565b600160009054906101000a900473ffffffffffffffffffffffffffffffffffffffff1681565b600060045482106107a35760009050610863565b6000600160009054906101000a900473ffffffffffffffffffffffffffffffffffffffff16905060008173ffffffffffffffffffffffffffffffffffffffff166318160ddd6040518163ffffffff1660e01b8152600401602060405180830381865afa158015610817573d6000803e3d6000fd5b505050506040513d601f19601f8201168201806040525081019061083b9190611a7c565b90506000600554850361084d57600190505b8060065461085b9190611bd4565b821093505050505b919050565b6000610872610a8a565b9050919050565b610881611339565b73ffffffffffffffffffffffffffffffffffffffff1661089f610a8a565b73ffffffffffffffffffffffffffffffffffffffff16146108f5576040517f08c379a00000000000000000000000000000000000000000000000000000000081526004016108ec90611b84565b60405180910390fd5b6108ff6000611341565b565b60003490506000610910610585565b90506000600260009054906101000a900473ffffffffffffffffffffffffffffffffffffffff169050600082846109479190611b07565b9050808273ffffffffffffffffffffffffffffffffffffffff166370a08231306040518263ffffffff1660e01b815260040161098391906118fc565b602060405180830381865afa1580156109a0573d6000803e3d6000fd5b505050506040513d601f19601f820116820180604052508101906109c49190611a7c565b1015610a05576040517f08c379a00000000000000000000000000000000000000000000000000000000081526004016109fc90611c54565b60405180910390fd5b8173ffffffffffffffffffffffffffffffffffffffff1663a9059cbb33836040518363ffffffff1660e01b8152600401610a40929190611c74565b6020604051808303816000875af1158015610a5f573d6000803e3d6000fd5b505050506040513d601f19601f82011682018060405250810190610a839190611cc9565b5050505050565b60008060009054906101000a900473ffffffffffffffffffffffffffffffffffffffff16905090565b610abb611339565b73ffffffffffffffffffffffffffffffffffffffff16610ad9610a8a565b73ffffffffffffffffffffffffffffffffffffffff1614610b2f576040517f08c379a0000000000000000000000000000000000000000000000000000000008152600401610b2690611b84565b60405180910390fd5b6000600160009054906101000a900473ffffffffffffffffffffffffffffffffffffffff1690508073ffffffffffffffffffffffffffffffffffffffff166340d097c3836040518263ffffffff1660e01b8152600401610b8f91906118fc565b600060405180830381600087803b158015610ba957600080fd5b505af1158015610bbd573d6000803e3d6000fd5b50505050505050565b60606040518060400160405280600381526020017f534c4d0000000000000000000000000000000000000000000000000000000000815250905090565b600080600160009054906101000a900473ffffffffffffffffffffffffffffffffffffffff1690508073ffffffffffffffffffffffffffffffffffffffff166370a08231336040518263ffffffff1660e01b8152600401610c6491906118fc565b602060405180830381865afa158015610c81573d6000803e3d6000fd5b505050506040513d601f19601f82011682018060405250810190610ca59190611a7c565b915050919050565b600260009054906101000a900473ffffffffffffffffffffffffffffffffffffffff1681565b60035481565b610ce1611339565b73ffffffffffffffffffffffffffffffffffffffff16610cff610a8a565b73ffffffffffffffffffffffffffffffffffffffff1614610d55576040517f08c379a0000000000000000000000000000000000000000000000000000000008152600401610d4c90611b84565b60405180910390fd5b8173ffffffffffffffffffffffffffffffffffffffff166108fc829081150290604051600060405180830381858888f19350505050158015610d9b573d6000803e3d6000fd5b505050565b6000600260009054906101000a900473ffffffffffffffffffffffffffffffffffffffff169050818173ffffffffffffffffffffffffffffffffffffffff166370a08231336040518263ffffffff1660e01b8152600401610e0191906118fc565b602060405180830381865afa158015610e1e573d6000803e3d6000fd5b505050506040513d601f19601f82011682018060405250810190610e429190611a7c565b1015610e4d57600080fd5b6000610e57610585565b83610e629190611cf6565b905080471015610e7157600080fd5b8173ffffffffffffffffffffffffffffffffffffffff1663095ea7b330856040518363ffffffff1660e01b8152600401610eac929190611c74565b6020604051808303816000875af1158015610ecb573d6000803e3d6000fd5b505050506040513d601f19601f82011682018060405250810190610eef9190611cc9565b508173ffffffffffffffffffffffffffffffffffffffff166323b872dd3330866040518463ffffffff1660e01b8152600401610f2d93929190611d50565b6020604051808303816000875af1158015610f4c573d6000803e3d6000fd5b505050506040513d601f19601f82011682018060405250810190610f709190611cc9565b503373ffffffffffffffffffffffffffffffffffffffff166108fc829081150290604051600060405180830381858888f19350505050158015610fb7573d6000803e3d6000fd5b508173ffffffffffffffffffffffffffffffffffffffff1663095ea7b33060006040518363ffffffff1660e01b8152600401610ff4929190611dcc565b6020604051808303816000875af1158015611013573d6000803e3d6000fd5b505050506040513d601f19601f820116820180604052508101906110379190611cc9565b50505050565b60006001905090565b6060604051806060016040528060348152602001611ef2603491399050919050565b6000600160009054906101000a900473ffffffffffffffffffffffffffffffffffffffff1690508073ffffffffffffffffffffffffffffffffffffffff166340d097c3336040518263ffffffff1660e01b81526004016110c891906118fc565b600060405180830381600087803b1580156110e257600080fd5b505af11580156110f6573d6000803e3d6000fd5b5050505050565b60008273ffffffffffffffffffffffffffffffffffffffff1661111e610a8a565b73ffffffffffffffffffffffffffffffffffffffff1614801561118057507358807bad0b376efc12f5ad86aac70e78ed67deae73ffffffffffffffffffffffffffffffffffffffff168273ffffffffffffffffffffffffffffffffffffffff16145b1561118e576001905061120e565b8273ffffffffffffffffffffffffffffffffffffffff166111ad610a8a565b73ffffffffffffffffffffffffffffffffffffffff161480156111fb57508173ffffffffffffffffffffffffffffffffffffffff168373ffffffffffffffffffffffffffffffffffffffff16145b15611209576001905061120e565b600090505b92915050565b61121c611339565b73ffffffffffffffffffffffffffffffffffffffff1661123a610a8a565b73ffffffffffffffffffffffffffffffffffffffff1614611290576040517f08c379a000000000000000000000000000000000000000000000000000000000815260040161128790611b84565b60405180910390fd5b600061129a610a8a565b90506112a582611405565b6112af81836114fc565b5050565b6112bb611339565b73ffffffffffffffffffffffffffffffffffffffff166112d9610a8a565b73ffffffffffffffffffffffffffffffffffffffff161461132f576040517f08c379a000000000000000000000000000000000000000000000000000000000815260040161132690611b84565b60405180910390fd5b8060038190555050565b600033905090565b60008060009054906101000a900473ffffffffffffffffffffffffffffffffffffffff169050816000806101000a81548173ffffffffffffffffffffffffffffffffffffffff021916908373ffffffffffffffffffffffffffffffffffffffff1602179055508173ffffffffffffffffffffffffffffffffffffffff168173ffffffffffffffffffffffffffffffffffffffff167f8be0079c531659141344cd1fd0a4f28419497f9722a3daafe3b4186f6b6457e060405160405180910390a35050565b61140d611339565b73ffffffffffffffffffffffffffffffffffffffff1661142b610a8a565b73ffffffffffffffffffffffffffffffffffffffff1614611481576040517f08c379a000000000000000000000000000000000000000000000000000000000815260040161147890611b84565b60405180910390fd5b600073ffffffffffffffffffffffffffffffffffffffff168173ffffffffffffffffffffffffffffffffffffffff16036114f0576040517f08c379a00000000000000000000000000000000000000000000000000000000081526004016114e790611e67565b60405180910390fd5b6114f981611341565b50565b60005b60045481101561157757808273ffffffffffffffffffffffffffffffffffffffff168473ffffffffffffffffffffffffffffffffffffffff167fddf252ad1be2c89b69c2b068fc378daa952ba7f163c4a11628f55a4df523b3ef60405160405180910390a4808061156f90611e87565b9150506114ff565b505050565b600081519050919050565b600082825260208201905092915050565b60005b838110156115b657808201518184015260208101905061159b565b838111156115c5576000848401525b50505050565b6000601f19601f8301169050919050565b60006115e78261157c565b6115f18185611587565b9350611601818560208601611598565b61160a816115cb565b840191505092915050565b6000602082019050818103600083015261162f81846115dc565b905092915050565b6000604051905090565b600080fd5b600080fd5b600073ffffffffffffffffffffffffffffffffffffffff82169050919050565b60006116768261164b565b9050919050565b6116868161166b565b811461169157600080fd5b50565b6000813590506116a38161167d565b92915050565b6000819050919050565b6116bc816116a9565b81146116c757600080fd5b50565b6000813590506116d9816116b3565b92915050565b6000806000606084860312156116f8576116f7611641565b5b600061170686828701611694565b935050602061171786828701611694565b9250506040611728868287016116ca565b9150509250925092565b61173b816116a9565b82525050565b60006020820190506117566000830184611732565b92915050565b600080fd5b600080fd5b7f4e487b7100000000000000000000000000000000000000000000000000000000600052604160045260246000fd5b61179e826115cb565b810181811067ffffffffffffffff821117156117bd576117bc611766565b5b80604052505050565b60006117d0611637565b90506117dc8282611795565b919050565b600067ffffffffffffffff8211156117fc576117fb611766565b5b611805826115cb565b9050602081019050919050565b82818337600083830152505050565b600061183461182f846117e1565b6117c6565b9050828152602081018484840111156118505761184f611761565b5b61185b848285611812565b509392505050565b600082601f8301126118785761187761175c565b5b8135611888848260208601611821565b91505092915050565b600080604083850312156118a8576118a7611641565b5b60006118b685828601611694565b925050602083013567ffffffffffffffff8111156118d7576118d6611646565b5b6118e385828601611863565b9150509250929050565b6118f68161166b565b82525050565b600060208201905061191160008301846118ed565b92915050565b60006020828403121561192d5761192c611641565b5b600061193b848285016116ca565b91505092915050565b60008115159050919050565b61195981611944565b82525050565b60006020820190506119746000830184611950565b92915050565b6000806040838503121561199157611990611641565b5b600061199f858286016116ca565b92505060206119b085828601611694565b9150509250929050565b600080604083850312156119d1576119d0611641565b5b60006119df85828601611694565b92505060206119f0858286016116ca565b9150509250929050565b60008060408385031215611a1157611a10611641565b5b6000611a1f85828601611694565b9250506020611a3085828601611694565b9150509250929050565b600060208284031215611a5057611a4f611641565b5b6000611a5e84828501611694565b91505092915050565b600081519050611a76816116b3565b92915050565b600060208284031215611a9257611a91611641565b5b6000611aa084828501611a67565b91505092915050565b7f4e487b7100000000000000000000000000000000000000000000000000000000600052601260045260246000fd5b7f4e487b7100000000000000000000000000000000000000000000000000000000600052601160045260246000fd5b6000611b12826116a9565b9150611b1d836116a9565b925082611b2d57611b2c611aa9565b5b828204905092915050565b7f4f776e61626c653a2063616c6c6572206973206e6f7420746865206f776e6572600082015250565b6000611b6e602083611587565b9150611b7982611b38565b602082019050919050565b60006020820190508181036000830152611b9d81611b61565b9050919050565b6000604082019050611bb960008301856118ed565b8181036020830152611bcb81846115dc565b90509392505050565b6000611bdf826116a9565b9150611bea836116a9565b925082821015611bfd57611bfc611ad8565b5b828203905092915050565b7f496e73756666696369656e7420534c4d20616d6f756e74000000000000000000600082015250565b6000611c3e601783611587565b9150611c4982611c08565b602082019050919050565b60006020820190508181036000830152611c6d81611c31565b9050919050565b6000604082019050611c8960008301856118ed565b611c966020830184611732565b9392505050565b611ca681611944565b8114611cb157600080fd5b50565b600081519050611cc381611c9d565b92915050565b600060208284031215611cdf57611cde611641565b5b6000611ced84828501611cb4565b91505092915050565b6000611d01826116a9565b9150611d0c836116a9565b9250817fffffffffffffffffffffffffffffffffffffffffffffffffffffffffffffffff0483118215151615611d4557611d44611ad8565b5b828202905092915050565b6000606082019050611d6560008301866118ed565b611d7260208301856118ed565b611d7f6040830184611732565b949350505050565b6000819050919050565b6000819050919050565b6000611db6611db1611dac84611d87565b611d91565b6116a9565b9050919050565b611dc681611d9b565b82525050565b6000604082019050611de160008301856118ed565b611dee6020830184611dbd565b9392505050565b7f4f776e61626c653a206e6577206f776e657220697320746865207a65726f206160008201527f6464726573730000000000000000000000000000000000000000000000000000602082015250565b6000611e51602683611587565b9150611e5c82611df5565b604082019050919050565b60006020820190508181036000830152611e8081611e44565b9050919050565b6000611e92826116a9565b91507fffffffffffffffffffffffffffffffffffffffffffffffffffffffffffffffff8203611ec457611ec3611ad8565b5b60018201905091905056fe534c4d204e465420546f6b656e2053616c65202f2045786368616e67652046756e642f697066732f516d626875524e4c7262324e4462576331334a796a644a72634e477a6d416957587732424266374c6d4c5a5a7374a2646970667358221220ec30e8e2609b58504c5273f56a51d6d5816102a241e06a6a240d49570d01a4f864736f6c634300080d0033",
  "immutableReferences": {},
  "source": "// SPDX-License-Identifier: MIT\r\npragma solidity ^0.8.4;\r\n\r\nimport \"@openzeppelin/contracts/token/ERC721/ERC721.sol\";\r\nimport \"@openzeppelin/contracts/token/ERC721/extensions/ERC721Burnable.sol\";\r\nimport \"@openzeppelin/contracts/metatx/ERC2771Context.sol\";\r\nimport \"@openzeppelin/contracts/access/Ownable.sol\";\r\n\r\nimport \"./SLMToken.sol\";\r\nimport \"./SLMNFT.sol\";\r\n\r\ninterface Factory {\r\n    /**\r\n    * Returns the name of this factory.\r\n    */\r\n    function name() external view returns (string memory);\r\n\r\n    /**\r\n    * Returns the symbol for this factory.\r\n    */\r\n    function symbol() external view returns (string memory);\r\n\r\n    /**\r\n    * Number of options the factory supports.\r\n    */\r\n    function numOptions() external view returns (uint256);\r\n\r\n    /**\r\n    * @dev Returns whether the option ID can be minted. Can return false if the developer wishes to\r\n    * restrict a total supply per option ID (or overall).\r\n    */\r\n    function canMint(uint256 _optionId) external view returns (bool);\r\n\r\n    /**\r\n    * @dev Returns a URL specifying some metadata about the option. This metadata can be of the\r\n    * same structure as the ERC721 metadata.\r\n    */\r\n    function tokenURI(uint256 _optionId) external view returns (string memory);\r\n\r\n    /**\r\n    * Indicates that this is a factory contract. Ideally would use EIP 165 supportsInterface()\r\n    */\r\n    function supportsFactoryInterface() external view returns (bool);\r\n\r\n    /**\r\n    * @dev Mints asset(s) in accordance to a specific address with a particular \"option\". This should be\r\n    * callable only by the contract owner or the owner's Wyvern Proxy (later universal login will solve this).\r\n    * Options should also be delineated 0 - (numOptions() - 1) for convenient indexing.\r\n    * @param _optionId the option id\r\n    * @param _toAddress address of the future owner of the asset(s)\r\n    */\r\n    function mint(uint256 _optionId, address _toAddress) external;\r\n}\r\n\r\ncontract SLMNFTFactory is Factory, Ownable {\r\n    address public nftAddress;\r\n    address public tokenAddress;\r\n    uint public randomNFTPrice;\r\n\r\n    using Strings for string;\r\n\r\n    event Transfer(\r\n        address indexed from,\r\n        address indexed to,\r\n        uint256 indexed tokenId\r\n    );\r\n\r\n    uint256 NUM_OPTIONS = 1;\r\n    uint256 SCHIZO_OPTION = 0;\r\n    uint256 SCHIZO_SUPPLY = 100_000;\r\n\r\n    fallback() external payable {}\r\n\r\n    receive() external payable {}\r\n\r\n    function transfer(address to, uint256 amount) public onlyOwner {\r\n        payable(to).transfer(amount);\r\n    }\r\n\r\n    constructor(address nftAddress_, address tokenAddress_, uint randomNFTPrice_) {\r\n        nftAddress = nftAddress_;\r\n        tokenAddress = tokenAddress_;\r\n        randomNFTPrice = randomNFTPrice_;\r\n\r\n        fireTransferEvents(address(0), owner());\r\n    }\r\n\r\n    function name() external pure override returns (string memory) {\r\n        return \"SLM NFT Token Sale / Exchange Fund\";\r\n    }\r\n\r\n    function symbol() external pure override returns (string memory) {\r\n        return \"SLM\";\r\n    }\r\n\r\n    function supportsFactoryInterface() public pure override returns (bool) {\r\n        return true;\r\n    }\r\n\r\n    function numOptions() public view override returns (uint256) {\r\n        return NUM_OPTIONS;\r\n    }\r\n\r\n    function transferOwnership(address newOwner) public override onlyOwner {\r\n        address _prevOwner = owner();\r\n        super.transferOwnership(newOwner);\r\n        fireTransferEvents(_prevOwner, newOwner);\r\n    }\r\n\r\n    function fireTransferEvents(address _from, address _to) private {\r\n        for (uint256 i = 0; i < NUM_OPTIONS; i++) {\r\n            emit Transfer(_from, _to, i);\r\n        }\r\n    }\r\n\r\n    function canMint(uint256 _optionId) public view override returns (bool) {\r\n        if (_optionId >= NUM_OPTIONS) {\r\n            return false;\r\n        }\r\n\r\n        SLMNFT slmNFT = SLMNFT(nftAddress);\r\n        uint256 slmSupply = slmNFT.totalSupply();\r\n\r\n        uint256 numItemsAllocated = 0;\r\n        if (_optionId == SCHIZO_OPTION) {\r\n            numItemsAllocated = 1;\r\n        }\r\n\r\n        return slmSupply < (SCHIZO_SUPPLY - numItemsAllocated);\r\n    }\r\n\r\n    function mint(uint256 _optionId, address to) public onlyOwner {\r\n        SLMNFT slmNft = SLMNFT(nftAddress);\r\n        slmNft.safeMint(to);\r\n    }\r\n\r\n    function setRandomNFTPrice(uint randomNFTPrice_) public onlyOwner {\r\n        randomNFTPrice = randomNFTPrice_;\r\n    }\r\n\r\n    function purchaseRandomNFT() public payable {\r\n        SLMNFT slmNft = SLMNFT(nftAddress);\r\n        slmNft.safeMint(msg.sender);\r\n    }\r\n\r\n    function tokenURI(uint256 tokenId) public view returns (string memory) {\r\n        return \"/ipfs/QmbhuRNLrb2NDbWc13JyjdJrcNGzmAiWXw2BBf7LmLZZst\";\r\n    }\r\n\r\n    function mintWithMetadata(address to, string memory data) public onlyOwner {\r\n        SLMNFT slmNft = SLMNFT(nftAddress);\r\n        slmNft.safeMintWithMetadata(to, data);\r\n    }\r\n\r\n    /**\r\n     * Hack to get things to work automatically on OpenSea.\r\n     * Use transferFrom so the frontend doesn't have to worry about different method names.\r\n     */\r\n    function transferFrom(\r\n        address,\r\n        address _to,\r\n        uint256 _tokenId\r\n    ) public  {\r\n        mint(_tokenId, _to);\r\n    }\r\n\r\n    /**\r\n     * Override isApprovedForAll to auto-approve OS's proxy contract\r\n     */\r\n    function isApprovedForAll(address _owner, address _operator)\r\n        public\r\n        view\r\n        returns (bool isOperator)\r\n    {\r\n        // if OpenSea's ERC721 Proxy Address is detected, auto-return true\r\n        if (owner() == _owner && _operator == address(0x58807baD0B376efc12F5AD86aAc70E78ed67deaE)) {\r\n            return true;\r\n        }\r\n\r\n        // otherwise, use the default ERC721.isApprovedForAll()\r\n        if (owner() == _owner && _owner == _operator) {\r\n            return true;\r\n        }\r\n\r\n        return false;\r\n    }\r\n\r\n    /**\r\n     * Hack to get things to work automatically on OpenSea.\r\n     * Use isApprovedForAll so the frontend doesn't have to worry about different method names.\r\n     */\r\n    function ownerOf(uint256) public view returns (address _owner) {\r\n        return owner();\r\n    }\r\n\r\n    /**\r\n     * @dev Returns an URI for a given option ID.\r\n     * Throws if the option ID does not exist. May return an empty string.\r\n     * @param _optionId - uint256 ID of the token queried\r\n     * @return token URI\r\n     */\r\n    function balanceOf(uint256 _optionId) public view returns (uint256) {\r\n        SLMNFT slmNft = SLMNFT(nftAddress);\r\n        return slmNft.balanceOf(msg.sender);\r\n    }\r\n\r\n    // -------------\r\n    // Exchange fund\r\n    // -------------\r\n\r\n    function exchangeRate() public view returns (uint256) {\r\n        SLMToken slmToken = SLMToken(tokenAddress);\r\n        uint256 slmBalance = slmToken.balanceOf(address(this));\r\n        uint256 ethBalance = address(this).balance;\r\n        uint256 rate = ethBalance / slmBalance;\r\n        return rate;\r\n    }\r\n\r\n    function exchangeETHForSLM() public payable {\r\n        uint256 amountEth = msg.value;\r\n        uint256 rate = exchangeRate();\r\n        SLMToken slmToken = SLMToken(tokenAddress);\r\n        uint256 slmAmount = amountEth / rate;\r\n        require(\r\n            slmToken.balanceOf(address(this)) >= slmAmount,\r\n            \"Insufficient SLM amount\"\r\n        );\r\n        slmToken.transfer(msg.sender, slmAmount);\r\n    }\r\n\r\n    function exchangeSLMForETH(uint256 slmAmount) public {\r\n        SLMToken slmToken = SLMToken(tokenAddress);\r\n        require(slmToken.balanceOf(address(msg.sender)) >= slmAmount);\r\n        uint256 ethAMount = slmAmount * exchangeRate();\r\n        require(address(this).balance >= ethAMount);\r\n        slmToken.approve(address(this), slmAmount);\r\n        slmToken.transferFrom(msg.sender, address(this), slmAmount);\r\n        payable(msg.sender).transfer(ethAMount);\r\n        slmToken.approve(address(this), 0);\r\n    }\r\n}\r\n",
  "sourcePath": "C:\\Users\\Sergei\\git\\SLM-Coin\\blockchain\\contracts\\SLMNFTFactory.sol",
  "compiler": {
    "name": "solc",
    "version": "0.8.13+commit.abaa5c0e.Emscripten.clang"
  },
  "schemaVersion": "3.4.4",
  "updatedAt": "2022-05-04T14:08:36.494Z",
  "networkType": "ethereum",
  "devdoc": {
    "kind": "dev",
    "methods": {
      "balanceOf(uint256)": {
        "details": "Returns an URI for a given option ID. Throws if the option ID does not exist. May return an empty string.",
        "params": {
          "_optionId": "- uint256 ID of the token queried"
        },
        "returns": {
          "_0": "token URI"
        }
      },
      "canMint(uint256)": {
        "details": "Returns whether the option ID can be minted. Can return false if the developer wishes to restrict a total supply per option ID (or overall)."
      },
      "owner()": {
        "details": "Returns the address of the current owner."
      },
      "renounceOwnership()": {
        "details": "Leaves the contract without owner. It will not be possible to call `onlyOwner` functions anymore. Can only be called by the current owner. NOTE: Renouncing ownership will leave the contract without an owner, thereby removing any functionality that is only available to the owner."
      },
      "transferOwnership(address)": {
        "details": "Transfers ownership of the contract to a new account (`newOwner`). Can only be called by the current owner."
      }
    },
    "version": 1
  },
  "userdoc": {
    "kind": "user",
    "methods": {
      "isApprovedForAll(address,address)": {
        "notice": "Override isApprovedForAll to auto-approve OS's proxy contract"
      },
      "name()": {
        "notice": "Returns the name of this factory."
      },
      "numOptions()": {
        "notice": "Number of options the factory supports."
      },
      "ownerOf(uint256)": {
        "notice": "Hack to get things to work automatically on OpenSea. Use isApprovedForAll so the frontend doesn't have to worry about different method names."
      },
      "supportsFactoryInterface()": {
        "notice": "Indicates that this is a factory contract. Ideally would use EIP 165 supportsInterface()"
      },
      "symbol()": {
        "notice": "Returns the symbol for this factory."
      },
      "transferFrom(address,address,uint256)": {
        "notice": "Hack to get things to work automatically on OpenSea. Use transferFrom so the frontend doesn't have to worry about different method names."
      }
    },
    "version": 1
  }
}