{
  "contractName": "SLMNFT",
  "abi": [
    {
      "inputs": [],
      "stateMutability": "nonpayable",
      "type": "constructor"
    },
    {
      "anonymous": false,
      "inputs": [
        {
          "indexed": true,
          "internalType": "address",
          "name": "owner",
          "type": "address"
        },
        {
          "indexed": true,
          "internalType": "address",
          "name": "approved",
          "type": "address"
        },
        {
          "indexed": true,
          "internalType": "uint256",
          "name": "tokenId",
          "type": "uint256"
        }
      ],
      "name": "Approval",
      "type": "event"
    },
    {
      "anonymous": false,
      "inputs": [
        {
          "indexed": true,
          "internalType": "address",
          "name": "owner",
          "type": "address"
        },
        {
          "indexed": true,
          "internalType": "address",
          "name": "operator",
          "type": "address"
        },
        {
          "indexed": false,
          "internalType": "bool",
          "name": "approved",
          "type": "bool"
        }
      ],
      "name": "ApprovalForAll",
      "type": "event"
    },
    {
      "anonymous": false,
      "inputs": [
        {
          "indexed": true,
          "internalType": "address",
          "name": "previousOwner",
          "type": "address"
        },
        {
          "indexed": true,
          "internalType": "address",
          "name": "newOwner",
          "type": "address"
        }
      ],
      "name": "OwnershipTransferred",
      "type": "event"
    },
    {
      "anonymous": false,
      "inputs": [
        {
          "indexed": true,
          "internalType": "address",
          "name": "from",
          "type": "address"
        },
        {
          "indexed": true,
          "internalType": "address",
          "name": "to",
          "type": "address"
        },
        {
          "indexed": true,
          "internalType": "uint256",
          "name": "tokenId",
          "type": "uint256"
        }
      ],
      "name": "Transfer",
      "type": "event"
    },
    {
      "inputs": [
        {
          "internalType": "address",
          "name": "to",
          "type": "address"
        },
        {
          "internalType": "uint256",
          "name": "tokenId",
          "type": "uint256"
        }
      ],
      "name": "approve",
      "outputs": [],
      "stateMutability": "nonpayable",
      "type": "function"
    },
    {
      "inputs": [
        {
          "internalType": "address",
          "name": "owner",
          "type": "address"
        }
      ],
      "name": "balanceOf",
      "outputs": [
        {
          "internalType": "uint256",
          "name": "",
          "type": "uint256"
        }
      ],
      "stateMutability": "view",
      "type": "function",
      "constant": true
    },
    {
      "inputs": [
        {
          "internalType": "uint256",
          "name": "tokenId",
          "type": "uint256"
        }
      ],
      "name": "burn",
      "outputs": [],
      "stateMutability": "nonpayable",
      "type": "function"
    },
    {
      "inputs": [
        {
          "internalType": "uint256",
          "name": "tokenId",
          "type": "uint256"
        }
      ],
      "name": "getApproved",
      "outputs": [
        {
          "internalType": "address",
          "name": "",
          "type": "address"
        }
      ],
      "stateMutability": "view",
      "type": "function",
      "constant": true
    },
    {
      "inputs": [
        {
          "internalType": "address",
          "name": "owner",
          "type": "address"
        },
        {
          "internalType": "address",
          "name": "operator",
          "type": "address"
        }
      ],
      "name": "isApprovedForAll",
      "outputs": [
        {
          "internalType": "bool",
          "name": "",
          "type": "bool"
        }
      ],
      "stateMutability": "view",
      "type": "function",
      "constant": true
    },
    {
      "inputs": [],
      "name": "name",
      "outputs": [
        {
          "internalType": "string",
          "name": "",
          "type": "string"
        }
      ],
      "stateMutability": "view",
      "type": "function",
      "constant": true
    },
    {
      "inputs": [],
      "name": "owner",
      "outputs": [
        {
          "internalType": "address",
          "name": "",
          "type": "address"
        }
      ],
      "stateMutability": "view",
      "type": "function",
      "constant": true
    },
    {
      "inputs": [
        {
          "internalType": "uint256",
          "name": "tokenId",
          "type": "uint256"
        }
      ],
      "name": "ownerOf",
      "outputs": [
        {
          "internalType": "address",
          "name": "",
          "type": "address"
        }
      ],
      "stateMutability": "view",
      "type": "function",
      "constant": true
    },
    {
      "inputs": [],
      "name": "renounceOwnership",
      "outputs": [],
      "stateMutability": "nonpayable",
      "type": "function"
    },
    {
      "inputs": [
        {
          "internalType": "address",
          "name": "from",
          "type": "address"
        },
        {
          "internalType": "address",
          "name": "to",
          "type": "address"
        },
        {
          "internalType": "uint256",
          "name": "tokenId",
          "type": "uint256"
        }
      ],
      "name": "safeTransferFrom",
      "outputs": [],
      "stateMutability": "nonpayable",
      "type": "function"
    },
    {
      "inputs": [
        {
          "internalType": "address",
          "name": "from",
          "type": "address"
        },
        {
          "internalType": "address",
          "name": "to",
          "type": "address"
        },
        {
          "internalType": "uint256",
          "name": "tokenId",
          "type": "uint256"
        },
        {
          "internalType": "bytes",
          "name": "data",
          "type": "bytes"
        }
      ],
      "name": "safeTransferFrom",
      "outputs": [],
      "stateMutability": "nonpayable",
      "type": "function"
    },
    {
      "inputs": [
        {
          "internalType": "address",
          "name": "operator",
          "type": "address"
        },
        {
          "internalType": "bool",
          "name": "approved",
          "type": "bool"
        }
      ],
      "name": "setApprovalForAll",
      "outputs": [],
      "stateMutability": "nonpayable",
      "type": "function"
    },
    {
      "inputs": [],
      "name": "symbol",
      "outputs": [
        {
          "internalType": "string",
          "name": "",
          "type": "string"
        }
      ],
      "stateMutability": "view",
      "type": "function",
      "constant": true
    },
    {
      "inputs": [
        {
          "internalType": "uint256",
          "name": "index",
          "type": "uint256"
        }
      ],
      "name": "tokenByIndex",
      "outputs": [
        {
          "internalType": "uint256",
          "name": "",
          "type": "uint256"
        }
      ],
      "stateMutability": "view",
      "type": "function",
      "constant": true
    },
    {
      "inputs": [
        {
          "internalType": "address",
          "name": "owner",
          "type": "address"
        },
        {
          "internalType": "uint256",
          "name": "index",
          "type": "uint256"
        }
      ],
      "name": "tokenOfOwnerByIndex",
      "outputs": [
        {
          "internalType": "uint256",
          "name": "",
          "type": "uint256"
        }
      ],
      "stateMutability": "view",
      "type": "function",
      "constant": true
    },
    {
      "inputs": [],
      "name": "totalSupply",
      "outputs": [
        {
          "internalType": "uint256",
          "name": "",
          "type": "uint256"
        }
      ],
      "stateMutability": "view",
      "type": "function",
      "constant": true
    },
    {
      "inputs": [
        {
          "internalType": "address",
          "name": "from",
          "type": "address"
        },
        {
          "internalType": "address",
          "name": "to",
          "type": "address"
        },
        {
          "internalType": "uint256",
          "name": "tokenId",
          "type": "uint256"
        }
      ],
      "name": "transferFrom",
      "outputs": [],
      "stateMutability": "nonpayable",
      "type": "function"
    },
    {
      "inputs": [
        {
          "internalType": "address",
          "name": "newOwner",
          "type": "address"
        }
      ],
      "name": "transferOwnership",
      "outputs": [],
      "stateMutability": "nonpayable",
      "type": "function"
    },
    {
      "inputs": [
        {
          "internalType": "address",
          "name": "to",
          "type": "address"
        }
      ],
      "name": "safeMint",
      "outputs": [],
      "stateMutability": "nonpayable",
      "type": "function"
    },
    {
      "inputs": [
        {
          "internalType": "address",
          "name": "to",
          "type": "address"
        },
        {
          "internalType": "string",
          "name": "ipfsCID",
          "type": "string"
        }
      ],
      "name": "safeMintWithMetadata",
      "outputs": [],
      "stateMutability": "nonpayable",
      "type": "function"
    },
    {
      "inputs": [
        {
          "internalType": "uint256",
          "name": "tokenId",
          "type": "uint256"
        }
      ],
      "name": "tokenURI",
      "outputs": [
        {
          "internalType": "string",
          "name": "",
          "type": "string"
        }
      ],
      "stateMutability": "view",
      "type": "function",
      "constant": true
    },
    {
      "inputs": [
        {
          "internalType": "bytes4",
          "name": "interfaceId",
          "type": "bytes4"
        }
      ],
      "name": "supportsInterface",
      "outputs": [
        {
          "internalType": "bool",
          "name": "",
          "type": "bool"
        }
      ],
      "stateMutability": "view",
      "type": "function",
      "constant": true
    }
  ],
  "bytecode": "0x60806040523480156200001157600080fd5b506040518060400160405280600681526020017f534c4d4e465400000000000000000000000000000000000000000000000000008152506040518060400160405280600381526020017f534c4d0000000000000000000000000000000000000000000000000000000000815250816000908051906020019062000096929190620001a6565b508060019080519060200190620000af929190620001a6565b505050620000d2620000c6620000d860201b60201c565b620000e060201b60201c565b620002ba565b600033905090565b6000600b60009054906101000a900473ffffffffffffffffffffffffffffffffffffffff16905081600b60006101000a81548173ffffffffffffffffffffffffffffffffffffffff021916908373ffffffffffffffffffffffffffffffffffffffff1602179055508173ffffffffffffffffffffffffffffffffffffffff168173ffffffffffffffffffffffffffffffffffffffff167f8be0079c531659141344cd1fd0a4f28419497f9722a3daafe3b4186f6b6457e060405160405180910390a35050565b828054620001b49062000285565b90600052602060002090601f016020900481019282620001d8576000855562000224565b82601f10620001f357805160ff191683800117855562000224565b8280016001018555821562000224579182015b828111156200022357825182559160200191906001019062000206565b5b50905062000233919062000237565b5090565b5b808211156200025257600081600090555060010162000238565b5090565b7f4e487b7100000000000000000000000000000000000000000000000000000000600052602260045260246000fd5b600060028204905060018216806200029e57607f821691505b602082108103620002b457620002b362000256565b5b50919050565b6137d480620002ca6000396000f3fe608060405234801561001057600080fd5b50600436106101425760003560e01c806352640e68116100b857806395d89b411161007c57806395d89b4114610373578063a22cb46514610391578063b88d4fde146103ad578063c87b56dd146103c9578063e985e9c5146103f9578063f2fde38b1461042957610142565b806352640e68146102cf5780636352211e146102eb57806370a082311461031b578063715018a61461034b5780638da5cb5b1461035557610142565b806323b872dd1161010a57806323b872dd146101ff5780632f745c591461021b57806340d097c31461024b57806342842e0e1461026757806342966c68146102835780634f6ccce71461029f57610142565b806301ffc9a71461014757806306fdde0314610177578063081812fc14610195578063095ea7b3146101c557806318160ddd146101e1575b600080fd5b610161600480360381019061015c91906124c3565b610445565b60405161016e919061250b565b60405180910390f35b61017f610457565b60405161018c91906125bf565b60405180910390f35b6101af60048036038101906101aa9190612617565b6104e9565b6040516101bc9190612685565b60405180910390f35b6101df60048036038101906101da91906126cc565b61052f565b005b6101e9610646565b6040516101f6919061271b565b60405180910390f35b61021960048036038101906102149190612736565b610653565b005b610235600480360381019061023091906126cc565b6106b3565b604051610242919061271b565b60405180910390f35b61026560048036038101906102609190612789565b610758565b005b610281600480360381019061027c9190612736565b610786565b005b61029d60048036038101906102989190612617565b6107a6565b005b6102b960048036038101906102b49190612617565b610802565b6040516102c6919061271b565b60405180910390f35b6102e960048036038101906102e491906128eb565b610873565b005b61030560048036038101906103009190612617565b6108ac565b6040516103129190612685565b60405180910390f35b61033560048036038101906103309190612789565b61095d565b604051610342919061271b565b60405180910390f35b610353610a14565b005b61035d610a28565b60405161036a9190612685565b60405180910390f35b61037b610a52565b60405161038891906125bf565b60405180910390f35b6103ab60048036038101906103a69190612973565b610ae4565b005b6103c760048036038101906103c29190612a54565b610afa565b005b6103e360048036038101906103de9190612617565b610b5c565b6040516103f091906125bf565b60405180910390f35b610413600480360381019061040e9190612ad7565b610b80565b604051610420919061250b565b60405180910390f35b610443600480360381019061043e9190612789565b610c14565b005b600061045082610c97565b9050919050565b60606000805461046690612b46565b80601f016020809104026020016040519081016040528092919081815260200182805461049290612b46565b80156104df5780601f106104b4576101008083540402835291602001916104df565b820191906000526020600020905b8154815290600101906020018083116104c257829003601f168201915b5050505050905090565b60006104f482610d11565b6004600083815260200190815260200160002060009054906101000a900473ffffffffffffffffffffffffffffffffffffffff169050919050565b600061053a826108ac565b90508073ffffffffffffffffffffffffffffffffffffffff168373ffffffffffffffffffffffffffffffffffffffff16036105aa576040517f08c379a00000000000000000000000000000000000000000000000000000000081526004016105a190612be9565b60405180910390fd5b8073ffffffffffffffffffffffffffffffffffffffff166105c9610d5c565b73ffffffffffffffffffffffffffffffffffffffff1614806105f857506105f7816105f2610d5c565b610b80565b5b610637576040517f08c379a000000000000000000000000000000000000000000000000000000000815260040161062e90612c7b565b60405180910390fd5b6106418383610d64565b505050565b6000600880549050905090565b61066461065e610d5c565b82610e1d565b6106a3576040517f08c379a000000000000000000000000000000000000000000000000000000000815260040161069a90612d0d565b60405180910390fd5b6106ae838383610eb2565b505050565b60006106be8361095d565b82106106ff576040517f08c379a00000000000000000000000000000000000000000000000000000000081526004016106f690612d9f565b60405180910390fd5b600660008473ffffffffffffffffffffffffffffffffffffffff1673ffffffffffffffffffffffffffffffffffffffff168152602001908152602001600020600083815260200190815260200160002054905092915050565b610760611118565b600061076c600c611196565b9050610778600c6111a4565b61078282826111ba565b5050565b6107a183838360405180602001604052806000815250610afa565b505050565b6107b76107b1610d5c565b82610e1d565b6107f6576040517f08c379a00000000000000000000000000000000000000000000000000000000081526004016107ed90612d0d565b60405180910390fd5b6107ff816111d8565b50565b600061080c610646565b821061084d576040517f08c379a000000000000000000000000000000000000000000000000000000000815260040161084490612e31565b60405180910390fd5b6008828154811061086157610860612e51565b5b90600052602060002001549050919050565b61087b611118565b6000610887600c611196565b9050610893600c6111a4565b61089d83826111ba565b6108a781836111e4565b505050565b6000806002600084815260200190815260200160002060009054906101000a900473ffffffffffffffffffffffffffffffffffffffff169050600073ffffffffffffffffffffffffffffffffffffffff168173ffffffffffffffffffffffffffffffffffffffff1603610954576040517f08c379a000000000000000000000000000000000000000000000000000000000815260040161094b90612ecc565b60405180910390fd5b80915050919050565b60008073ffffffffffffffffffffffffffffffffffffffff168273ffffffffffffffffffffffffffffffffffffffff16036109cd576040517f08c379a00000000000000000000000000000000000000000000000000000000081526004016109c490612f5e565b60405180910390fd5b600360008373ffffffffffffffffffffffffffffffffffffffff1673ffffffffffffffffffffffffffffffffffffffff168152602001908152602001600020549050919050565b610a1c611118565b610a266000611258565b565b6000600b60009054906101000a900473ffffffffffffffffffffffffffffffffffffffff16905090565b606060018054610a6190612b46565b80601f0160208091040260200160405190810160405280929190818152602001828054610a8d90612b46565b8015610ada5780601f10610aaf57610100808354040283529160200191610ada565b820191906000526020600020905b815481529060010190602001808311610abd57829003601f168201915b5050505050905090565b610af6610aef610d5c565b838361131e565b5050565b610b0b610b05610d5c565b83610e1d565b610b4a576040517f08c379a0000000000000000000000000000000000000000000000000000000008152600401610b4190612d0d565b60405180910390fd5b610b568484848461148a565b50505050565b6060610b67826114e6565b610b7057600080fd5b610b7982611552565b9050919050565b6000600560008473ffffffffffffffffffffffffffffffffffffffff1673ffffffffffffffffffffffffffffffffffffffff16815260200190815260200160002060008373ffffffffffffffffffffffffffffffffffffffff1673ffffffffffffffffffffffffffffffffffffffff16815260200190815260200160002060009054906101000a900460ff16905092915050565b610c1c611118565b600073ffffffffffffffffffffffffffffffffffffffff168173ffffffffffffffffffffffffffffffffffffffff1603610c8b576040517f08c379a0000000000000000000000000000000000000000000000000000000008152600401610c8290612ff0565b60405180910390fd5b610c9481611258565b50565b60007f780e9d63000000000000000000000000000000000000000000000000000000007bffffffffffffffffffffffffffffffffffffffffffffffffffffffff1916827bffffffffffffffffffffffffffffffffffffffffffffffffffffffff19161480610d0a5750610d09826116a3565b5b9050919050565b610d1a816114e6565b610d59576040517f08c379a0000000000000000000000000000000000000000000000000000000008152600401610d5090612ecc565b60405180910390fd5b50565b600033905090565b816004600083815260200190815260200160002060006101000a81548173ffffffffffffffffffffffffffffffffffffffff021916908373ffffffffffffffffffffffffffffffffffffffff160217905550808273ffffffffffffffffffffffffffffffffffffffff16610dd7836108ac565b73ffffffffffffffffffffffffffffffffffffffff167f8c5be1e5ebec7d5bd14f71427d1e84f3dd0314c0f7b2291e5b200ac8c7c3b92560405160405180910390a45050565b600080610e29836108ac565b90508073ffffffffffffffffffffffffffffffffffffffff168473ffffffffffffffffffffffffffffffffffffffff161480610e6b5750610e6a8185610b80565b5b80610ea957508373ffffffffffffffffffffffffffffffffffffffff16610e91846104e9565b73ffffffffffffffffffffffffffffffffffffffff16145b91505092915050565b8273ffffffffffffffffffffffffffffffffffffffff16610ed2826108ac565b73ffffffffffffffffffffffffffffffffffffffff1614610f28576040517f08c379a0000000000000000000000000000000000000000000000000000000008152600401610f1f90613082565b60405180910390fd5b600073ffffffffffffffffffffffffffffffffffffffff168273ffffffffffffffffffffffffffffffffffffffff1603610f97576040517f08c379a0000000000000000000000000000000000000000000000000000000008152600401610f8e90613114565b60405180910390fd5b610fa2838383611785565b610fad600082610d64565b6001600360008573ffffffffffffffffffffffffffffffffffffffff1673ffffffffffffffffffffffffffffffffffffffff1681526020019081526020016000206000828254610ffd9190613163565b925050819055506001600360008473ffffffffffffffffffffffffffffffffffffffff1673ffffffffffffffffffffffffffffffffffffffff16815260200190815260200160002060008282546110549190613197565b92505081905550816002600083815260200190815260200160002060006101000a81548173ffffffffffffffffffffffffffffffffffffffff021916908373ffffffffffffffffffffffffffffffffffffffff160217905550808273ffffffffffffffffffffffffffffffffffffffff168473ffffffffffffffffffffffffffffffffffffffff167fddf252ad1be2c89b69c2b068fc378daa952ba7f163c4a11628f55a4df523b3ef60405160405180910390a4611113838383611795565b505050565b611120610d5c565b73ffffffffffffffffffffffffffffffffffffffff1661113e610a28565b73ffffffffffffffffffffffffffffffffffffffff1614611194576040517f08c379a000000000000000000000000000000000000000000000000000000000815260040161118b90613239565b60405180910390fd5b565b600081600001549050919050565b6001816000016000828254019250508190555050565b6111d482826040518060200160405280600081525061179a565b5050565b6111e1816117f5565b50565b6111ed826114e6565b61122c576040517f08c379a0000000000000000000000000000000000000000000000000000000008152600401611223906132cb565b60405180910390fd5b80600a60008481526020019081526020016000209080519060200190611253929190612374565b505050565b6000600b60009054906101000a900473ffffffffffffffffffffffffffffffffffffffff16905081600b60006101000a81548173ffffffffffffffffffffffffffffffffffffffff021916908373ffffffffffffffffffffffffffffffffffffffff1602179055508173ffffffffffffffffffffffffffffffffffffffff168173ffffffffffffffffffffffffffffffffffffffff167f8be0079c531659141344cd1fd0a4f28419497f9722a3daafe3b4186f6b6457e060405160405180910390a35050565b8173ffffffffffffffffffffffffffffffffffffffff168373ffffffffffffffffffffffffffffffffffffffff160361138c576040517f08c379a000000000000000000000000000000000000000000000000000000000815260040161138390613337565b60405180910390fd5b80600560008573ffffffffffffffffffffffffffffffffffffffff1673ffffffffffffffffffffffffffffffffffffffff16815260200190815260200160002060008473ffffffffffffffffffffffffffffffffffffffff1673ffffffffffffffffffffffffffffffffffffffff16815260200190815260200160002060006101000a81548160ff0219169083151502179055508173ffffffffffffffffffffffffffffffffffffffff168373ffffffffffffffffffffffffffffffffffffffff167f17307eab39ab6107e8899845ad3d59bd9653f200f220920489ca2b5937696c318360405161147d919061250b565b60405180910390a3505050565b611495848484610eb2565b6114a184848484611848565b6114e0576040517f08c379a00000000000000000000000000000000000000000000000000000000081526004016114d7906133c9565b60405180910390fd5b50505050565b60008073ffffffffffffffffffffffffffffffffffffffff166002600084815260200190815260200160002060009054906101000a900473ffffffffffffffffffffffffffffffffffffffff1673ffffffffffffffffffffffffffffffffffffffff1614159050919050565b606061155d826114e6565b61159c576040517f08c379a00000000000000000000000000000000000000000000000000000000081526004016115939061345b565b60405180910390fd5b6000600a600084815260200190815260200160002080546115bc90612b46565b80601f01602080910402602001604051908101604052809291908181526020018280546115e890612b46565b80156116355780601f1061160a57610100808354040283529160200191611635565b820191906000526020600020905b81548152906001019060200180831161161857829003601f168201915b5050505050905060006116466119cf565b9050600081510361165b57819250505061169e565b6000825111156116905780826040516020016116789291906134b7565b6040516020818303038152906040529250505061169e565b61169984611a0c565b925050505b919050565b60007f80ac58cd000000000000000000000000000000000000000000000000000000007bffffffffffffffffffffffffffffffffffffffffffffffffffffffff1916827bffffffffffffffffffffffffffffffffffffffffffffffffffffffff1916148061176e57507f5b5e139f000000000000000000000000000000000000000000000000000000007bffffffffffffffffffffffffffffffffffffffffffffffffffffffff1916827bffffffffffffffffffffffffffffffffffffffffffffffffffffffff1916145b8061177e575061177d82611a74565b5b9050919050565b611790838383611ade565b505050565b505050565b6117a48383611bf0565b6117b16000848484611848565b6117f0576040517f08c379a00000000000000000000000000000000000000000000000000000000081526004016117e7906133c9565b60405180910390fd5b505050565b6117fe81611dc9565b6000600a6000838152602001908152602001600020805461181e90612b46565b90501461184557600a6000828152602001908152602001600020600061184491906123fa565b5b50565b60006118698473ffffffffffffffffffffffffffffffffffffffff16611ee6565b156119c2578373ffffffffffffffffffffffffffffffffffffffff1663150b7a02611892610d5c565b8786866040518563ffffffff1660e01b81526004016118b49493929190613530565b6020604051808303816000875af19250505080156118f057506040513d601f19601f820116820180604052508101906118ed9190613591565b60015b611972573d8060008114611920576040519150601f19603f3d011682016040523d82523d6000602084013e611925565b606091505b50600081510361196a576040517f08c379a0000000000000000000000000000000000000000000000000000000008152600401611961906133c9565b60405180910390fd5b805181602001fd5b63150b7a0260e01b7bffffffffffffffffffffffffffffffffffffffffffffffffffffffff1916817bffffffffffffffffffffffffffffffffffffffffffffffffffffffff1916149150506119c7565b600190505b949350505050565b60606040518060400160405280600781526020017f697066733a2f2f00000000000000000000000000000000000000000000000000815250905090565b6060611a1782610d11565b6000611a216119cf565b90506000815111611a415760405180602001604052806000815250611a6c565b80611a4b84611f09565b604051602001611a5c9291906134b7565b6040516020818303038152906040525b915050919050565b60007f01ffc9a7000000000000000000000000000000000000000000000000000000007bffffffffffffffffffffffffffffffffffffffffffffffffffffffff1916827bffffffffffffffffffffffffffffffffffffffffffffffffffffffff1916149050919050565b611ae9838383612069565b600073ffffffffffffffffffffffffffffffffffffffff168373ffffffffffffffffffffffffffffffffffffffff1603611b2b57611b268161206e565b611b6a565b8173ffffffffffffffffffffffffffffffffffffffff168373ffffffffffffffffffffffffffffffffffffffff1614611b6957611b6883826120b7565b5b5b600073ffffffffffffffffffffffffffffffffffffffff168273ffffffffffffffffffffffffffffffffffffffff1603611bac57611ba781612224565b611beb565b8273ffffffffffffffffffffffffffffffffffffffff168273ffffffffffffffffffffffffffffffffffffffff1614611bea57611be982826122f5565b5b5b505050565b600073ffffffffffffffffffffffffffffffffffffffff168273ffffffffffffffffffffffffffffffffffffffff1603611c5f576040517f08c379a0000000000000000000000000000000000000000000000000000000008152600401611c569061360a565b60405180910390fd5b611c68816114e6565b15611ca8576040517f08c379a0000000000000000000000000000000000000000000000000000000008152600401611c9f90613676565b60405180910390fd5b611cb460008383611785565b6001600360008473ffffffffffffffffffffffffffffffffffffffff1673ffffffffffffffffffffffffffffffffffffffff1681526020019081526020016000206000828254611d049190613197565b92505081905550816002600083815260200190815260200160002060006101000a81548173ffffffffffffffffffffffffffffffffffffffff021916908373ffffffffffffffffffffffffffffffffffffffff160217905550808273ffffffffffffffffffffffffffffffffffffffff16600073ffffffffffffffffffffffffffffffffffffffff167fddf252ad1be2c89b69c2b068fc378daa952ba7f163c4a11628f55a4df523b3ef60405160405180910390a4611dc560008383611795565b5050565b6000611dd4826108ac565b9050611de281600084611785565b611ded600083610d64565b6001600360008373ffffffffffffffffffffffffffffffffffffffff1673ffffffffffffffffffffffffffffffffffffffff1681526020019081526020016000206000828254611e3d9190613163565b925050819055506002600083815260200190815260200160002060006101000a81549073ffffffffffffffffffffffffffffffffffffffff021916905581600073ffffffffffffffffffffffffffffffffffffffff168273ffffffffffffffffffffffffffffffffffffffff167fddf252ad1be2c89b69c2b068fc378daa952ba7f163c4a11628f55a4df523b3ef60405160405180910390a4611ee281600084611795565b5050565b6000808273ffffffffffffffffffffffffffffffffffffffff163b119050919050565b606060008203611f50576040518060400160405280600181526020017f30000000000000000000000000000000000000000000000000000000000000008152509050612064565b600082905060005b60008214611f82578080611f6b90613696565b915050600a82611f7b919061370d565b9150611f58565b60008167ffffffffffffffff811115611f9e57611f9d6127c0565b5b6040519080825280601f01601f191660200182016040528015611fd05781602001600182028036833780820191505090505b5090505b6000851461205d57600182611fe99190613163565b9150600a85611ff8919061373e565b60306120049190613197565b60f81b81838151811061201a57612019612e51565b5b60200101907effffffffffffffffffffffffffffffffffffffffffffffffffffffffffffff1916908160001a905350600a85612056919061370d565b9450611fd4565b8093505050505b919050565b505050565b6008805490506009600083815260200190815260200160002081905550600881908060018154018082558091505060019003906000526020600020016000909190919091505550565b600060016120c48461095d565b6120ce9190613163565b90506000600760008481526020019081526020016000205490508181146121b3576000600660008673ffffffffffffffffffffffffffffffffffffffff1673ffffffffffffffffffffffffffffffffffffffff168152602001908152602001600020600084815260200190815260200160002054905080600660008773ffffffffffffffffffffffffffffffffffffffff1673ffffffffffffffffffffffffffffffffffffffff168152602001908152602001600020600084815260200190815260200160002081905550816007600083815260200190815260200160002081905550505b6007600084815260200190815260200160002060009055600660008573ffffffffffffffffffffffffffffffffffffffff1673ffffffffffffffffffffffffffffffffffffffff16815260200190815260200160002060008381526020019081526020016000206000905550505050565b600060016008805490506122389190613163565b905060006009600084815260200190815260200160002054905060006008838154811061226857612267612e51565b5b90600052602060002001549050806008838154811061228a57612289612e51565b5b9060005260206000200181905550816009600083815260200190815260200160002081905550600960008581526020019081526020016000206000905560088054806122d9576122d861376f565b5b6001900381819060005260206000200160009055905550505050565b60006123008361095d565b905081600660008573ffffffffffffffffffffffffffffffffffffffff1673ffffffffffffffffffffffffffffffffffffffff168152602001908152602001600020600083815260200190815260200160002081905550806007600084815260200190815260200160002081905550505050565b82805461238090612b46565b90600052602060002090601f0160209004810192826123a257600085556123e9565b82601f106123bb57805160ff19168380011785556123e9565b828001600101855582156123e9579182015b828111156123e85782518255916020019190600101906123cd565b5b5090506123f6919061243a565b5090565b50805461240690612b46565b6000825580601f106124185750612437565b601f016020900490600052602060002090810190612436919061243a565b5b50565b5b8082111561245357600081600090555060010161243b565b5090565b6000604051905090565b600080fd5b600080fd5b60007fffffffff0000000000000000000000000000000000000000000000000000000082169050919050565b6124a08161246b565b81146124ab57600080fd5b50565b6000813590506124bd81612497565b92915050565b6000602082840312156124d9576124d8612461565b5b60006124e7848285016124ae565b91505092915050565b60008115159050919050565b612505816124f0565b82525050565b600060208201905061252060008301846124fc565b92915050565b600081519050919050565b600082825260208201905092915050565b60005b83811015612560578082015181840152602081019050612545565b8381111561256f576000848401525b50505050565b6000601f19601f8301169050919050565b600061259182612526565b61259b8185612531565b93506125ab818560208601612542565b6125b481612575565b840191505092915050565b600060208201905081810360008301526125d98184612586565b905092915050565b6000819050919050565b6125f4816125e1565b81146125ff57600080fd5b50565b600081359050612611816125eb565b92915050565b60006020828403121561262d5761262c612461565b5b600061263b84828501612602565b91505092915050565b600073ffffffffffffffffffffffffffffffffffffffff82169050919050565b600061266f82612644565b9050919050565b61267f81612664565b82525050565b600060208201905061269a6000830184612676565b92915050565b6126a981612664565b81146126b457600080fd5b50565b6000813590506126c6816126a0565b92915050565b600080604083850312156126e3576126e2612461565b5b60006126f1858286016126b7565b925050602061270285828601612602565b9150509250929050565b612715816125e1565b82525050565b6000602082019050612730600083018461270c565b92915050565b60008060006060848603121561274f5761274e612461565b5b600061275d868287016126b7565b935050602061276e868287016126b7565b925050604061277f86828701612602565b9150509250925092565b60006020828403121561279f5761279e612461565b5b60006127ad848285016126b7565b91505092915050565b600080fd5b600080fd5b7f4e487b7100000000000000000000000000000000000000000000000000000000600052604160045260246000fd5b6127f882612575565b810181811067ffffffffffffffff82111715612817576128166127c0565b5b80604052505050565b600061282a612457565b905061283682826127ef565b919050565b600067ffffffffffffffff821115612856576128556127c0565b5b61285f82612575565b9050602081019050919050565b82818337600083830152505050565b600061288e6128898461283b565b612820565b9050828152602081018484840111156128aa576128a96127bb565b5b6128b584828561286c565b509392505050565b600082601f8301126128d2576128d16127b6565b5b81356128e284826020860161287b565b91505092915050565b6000806040838503121561290257612901612461565b5b6000612910858286016126b7565b925050602083013567ffffffffffffffff81111561293157612930612466565b5b61293d858286016128bd565b9150509250929050565b612950816124f0565b811461295b57600080fd5b50565b60008135905061296d81612947565b92915050565b6000806040838503121561298a57612989612461565b5b6000612998858286016126b7565b92505060206129a98582860161295e565b9150509250929050565b600067ffffffffffffffff8211156129ce576129cd6127c0565b5b6129d782612575565b9050602081019050919050565b60006129f76129f2846129b3565b612820565b905082815260208101848484011115612a1357612a126127bb565b5b612a1e84828561286c565b509392505050565b600082601f830112612a3b57612a3a6127b6565b5b8135612a4b8482602086016129e4565b91505092915050565b60008060008060808587031215612a6e57612a6d612461565b5b6000612a7c878288016126b7565b9450506020612a8d878288016126b7565b9350506040612a9e87828801612602565b925050606085013567ffffffffffffffff811115612abf57612abe612466565b5b612acb87828801612a26565b91505092959194509250565b60008060408385031215612aee57612aed612461565b5b6000612afc858286016126b7565b9250506020612b0d858286016126b7565b9150509250929050565b7f4e487b7100000000000000000000000000000000000000000000000000000000600052602260045260246000fd5b60006002820490506001821680612b5e57607f821691505b602082108103612b7157612b70612b17565b5b50919050565b7f4552433732313a20617070726f76616c20746f2063757272656e74206f776e6560008201527f7200000000000000000000000000000000000000000000000000000000000000602082015250565b6000612bd3602183612531565b9150612bde82612b77565b604082019050919050565b60006020820190508181036000830152612c0281612bc6565b9050919050565b7f4552433732313a20617070726f76652063616c6c6572206973206e6f7420746f60008201527f6b656e206f776e6572206e6f7220617070726f76656420666f7220616c6c0000602082015250565b6000612c65603e83612531565b9150612c7082612c09565b604082019050919050565b60006020820190508181036000830152612c9481612c58565b9050919050565b7f4552433732313a2063616c6c6572206973206e6f7420746f6b656e206f776e6560008201527f72206e6f7220617070726f766564000000000000000000000000000000000000602082015250565b6000612cf7602e83612531565b9150612d0282612c9b565b604082019050919050565b60006020820190508181036000830152612d2681612cea565b9050919050565b7f455243373231456e756d657261626c653a206f776e657220696e646578206f7560008201527f74206f6620626f756e6473000000000000000000000000000000000000000000602082015250565b6000612d89602b83612531565b9150612d9482612d2d565b604082019050919050565b60006020820190508181036000830152612db881612d7c565b9050919050565b7f455243373231456e756d657261626c653a20676c6f62616c20696e646578206f60008201527f7574206f6620626f756e64730000000000000000000000000000000000000000602082015250565b6000612e1b602c83612531565b9150612e2682612dbf565b604082019050919050565b60006020820190508181036000830152612e4a81612e0e565b9050919050565b7f4e487b7100000000000000000000000000000000000000000000000000000000600052603260045260246000fd5b7f4552433732313a20696e76616c696420746f6b656e2049440000000000000000600082015250565b6000612eb6601883612531565b9150612ec182612e80565b602082019050919050565b60006020820190508181036000830152612ee581612ea9565b9050919050565b7f4552433732313a2061646472657373207a65726f206973206e6f74206120766160008201527f6c6964206f776e65720000000000000000000000000000000000000000000000602082015250565b6000612f48602983612531565b9150612f5382612eec565b604082019050919050565b60006020820190508181036000830152612f7781612f3b565b9050919050565b7f4f776e61626c653a206e6577206f776e657220697320746865207a65726f206160008201527f6464726573730000000000000000000000000000000000000000000000000000602082015250565b6000612fda602683612531565b9150612fe582612f7e565b604082019050919050565b6000602082019050818103600083015261300981612fcd565b9050919050565b7f4552433732313a207472616e736665722066726f6d20696e636f72726563742060008201527f6f776e6572000000000000000000000000000000000000000000000000000000602082015250565b600061306c602583612531565b915061307782613010565b604082019050919050565b6000602082019050818103600083015261309b8161305f565b9050919050565b7f4552433732313a207472616e7366657220746f20746865207a65726f2061646460008201527f7265737300000000000000000000000000000000000000000000000000000000602082015250565b60006130fe602483612531565b9150613109826130a2565b604082019050919050565b6000602082019050818103600083015261312d816130f1565b9050919050565b7f4e487b7100000000000000000000000000000000000000000000000000000000600052601160045260246000fd5b600061316e826125e1565b9150613179836125e1565b92508282101561318c5761318b613134565b5b828203905092915050565b60006131a2826125e1565b91506131ad836125e1565b9250827fffffffffffffffffffffffffffffffffffffffffffffffffffffffffffffffff038211156131e2576131e1613134565b5b828201905092915050565b7f4f776e61626c653a2063616c6c6572206973206e6f7420746865206f776e6572600082015250565b6000613223602083612531565b915061322e826131ed565b602082019050919050565b6000602082019050818103600083015261325281613216565b9050919050565b7f45524337323155524953746f726167653a2055524920736574206f66206e6f6e60008201527f6578697374656e7420746f6b656e000000000000000000000000000000000000602082015250565b60006132b5602e83612531565b91506132c082613259565b604082019050919050565b600060208201905081810360008301526132e4816132a8565b9050919050565b7f4552433732313a20617070726f766520746f2063616c6c657200000000000000600082015250565b6000613321601983612531565b915061332c826132eb565b602082019050919050565b6000602082019050818103600083015261335081613314565b9050919050565b7f4552433732313a207472616e7366657220746f206e6f6e20455243373231526560008201527f63656976657220696d706c656d656e7465720000000000000000000000000000602082015250565b60006133b3603283612531565b91506133be82613357565b604082019050919050565b600060208201905081810360008301526133e2816133a6565b9050919050565b7f45524337323155524953746f726167653a2055524920717565727920666f722060008201527f6e6f6e6578697374656e7420746f6b656e000000000000000000000000000000602082015250565b6000613445603183612531565b9150613450826133e9565b604082019050919050565b6000602082019050818103600083015261347481613438565b9050919050565b600081905092915050565b600061349182612526565b61349b818561347b565b93506134ab818560208601612542565b80840191505092915050565b60006134c38285613486565b91506134cf8284613486565b91508190509392505050565b600081519050919050565b600082825260208201905092915050565b6000613502826134db565b61350c81856134e6565b935061351c818560208601612542565b61352581612575565b840191505092915050565b60006080820190506135456000830187612676565b6135526020830186612676565b61355f604083018561270c565b818103606083015261357181846134f7565b905095945050505050565b60008151905061358b81612497565b92915050565b6000602082840312156135a7576135a6612461565b5b60006135b58482850161357c565b91505092915050565b7f4552433732313a206d696e7420746f20746865207a65726f2061646472657373600082015250565b60006135f4602083612531565b91506135ff826135be565b602082019050919050565b60006020820190508181036000830152613623816135e7565b9050919050565b7f4552433732313a20746f6b656e20616c7265616479206d696e74656400000000600082015250565b6000613660601c83612531565b915061366b8261362a565b602082019050919050565b6000602082019050818103600083015261368f81613653565b9050919050565b60006136a1826125e1565b91507fffffffffffffffffffffffffffffffffffffffffffffffffffffffffffffffff82036136d3576136d2613134565b5b600182019050919050565b7f4e487b7100000000000000000000000000000000000000000000000000000000600052601260045260246000fd5b6000613718826125e1565b9150613723836125e1565b925082613733576137326136de565b5b828204905092915050565b6000613749826125e1565b9150613754836125e1565b925082613764576137636136de565b5b828206905092915050565b7f4e487b7100000000000000000000000000000000000000000000000000000000600052603160045260246000fdfea2646970667358221220565924428d097713109e858b4cceda9fa4866fee65e6973a398abefebdbf95fd64736f6c634300080d0033",
  "immutableReferences": {},
  "source": "// SPDX-License-Identifier: MIT\r\npragma solidity ^0.8.13;\r\n\r\nimport \"@openzeppelin/contracts/token/ERC721/ERC721.sol\";\r\nimport \"@openzeppelin/contracts/token/ERC721/extensions/ERC721Burnable.sol\";\r\nimport \"@openzeppelin/contracts/metatx/ERC2771Context.sol\";\r\nimport \"@openzeppelin/contracts/utils/Counters.sol\";\r\nimport \"@openzeppelin/contracts/access/Ownable.sol\";\r\nimport \"@openzeppelin/contracts/token/ERC721/extensions/ERC721Enumerable.sol\";\r\n\r\n/**\r\n * https://github.com/maticnetwork/pos-portal/blob/master/contracts/common/ContextMixin.sol\r\n */\r\nabstract contract ContextMixin {\r\n    function msgSender() internal view returns (address payable sender) {\r\n        if (msg.sender == address(this)) {\r\n            bytes memory array = msg.data;\r\n            uint256 index = msg.data.length;\r\n            assembly {\r\n                // Load the 32 bytes word from memory with the address on the lower 20 bytes, and mask those.\r\n                sender := and(\r\n                    mload(add(array, index)),\r\n                    0xffffffffffffffffffffffffffffffffffffffff\r\n                )\r\n            }\r\n        } else {\r\n            sender = payable(msg.sender);\r\n        }\r\n        return sender;\r\n    }\r\n}\r\n\r\n/**\r\n * @dev ERC721 token with storage based token URI management.\r\n */\r\nabstract contract ERC721URIStorage is ERC721 {\r\n    using Strings for uint256;\r\n\r\n    // Optional mapping for token URIs\r\n    mapping(uint256 => string) internal _tokenURIs;\r\n\r\n    /**\r\n     * @dev See {IERC721Metadata-tokenURI}.\r\n     */\r\n    function tokenURI(uint256 tokenId)\r\n        public\r\n        view\r\n        virtual\r\n        override\r\n        returns (string memory)\r\n    {\r\n        require(\r\n            _exists(tokenId),\r\n            \"ERC721URIStorage: URI query for nonexistent token\"\r\n        );\r\n\r\n        string memory _tokenURI = _tokenURIs[tokenId];\r\n        string memory base = _baseURI();\r\n\r\n        // If there is no base URI, return the token URI.\r\n        if (bytes(base).length == 0) {\r\n            return _tokenURI;\r\n        }\r\n        // If both are set, concatenate the baseURI and tokenURI (via abi.encodePacked).\r\n        if (bytes(_tokenURI).length > 0) {\r\n            return string(abi.encodePacked(base, _tokenURI));\r\n        }\r\n\r\n        return super.tokenURI(tokenId);\r\n    }\r\n\r\n    /**\r\n     * @dev Sets `_tokenURI` as the tokenURI of `tokenId`.\r\n     *\r\n     * Requirements:\r\n     *\r\n     * - `tokenId` must exist.\r\n     */\r\n    function _setTokenURI(uint256 tokenId, string memory _tokenURI)\r\n        internal\r\n        virtual\r\n    {\r\n        require(\r\n            _exists(tokenId),\r\n            \"ERC721URIStorage: URI set of nonexistent token\"\r\n        );\r\n        _tokenURIs[tokenId] = _tokenURI;\r\n    }\r\n\r\n    /**\r\n     * @dev Destroys `tokenId`.\r\n     * The approval is cleared when the token is burned.\r\n     *\r\n     * Requirements:\r\n     *\r\n     * - `tokenId` must exist.\r\n     *\r\n     * Emits a {Transfer} event.\r\n     */\r\n    function _burn(uint256 tokenId) internal virtual override {\r\n        super._burn(tokenId);\r\n\r\n        if (bytes(_tokenURIs[tokenId]).length != 0) {\r\n            delete _tokenURIs[tokenId];\r\n        }\r\n    }\r\n}\r\n\r\ncontract SLMNFT is\r\n    ERC721Enumerable,\r\n    ERC721URIStorage,\r\n    ERC721Burnable,\r\n    ContextMixin,\r\n    Ownable\r\n{\r\n    using Counters for Counters.Counter;\r\n    using Strings for uint256;\r\n\r\n    Counters.Counter private _tokenIdCounter;\r\n\r\n    constructor() ERC721(\"SLMNFT\", \"SLM\") {}\r\n\r\n    function _burn(uint256 tokenId)\r\n        internal\r\n        override(ERC721, ERC721URIStorage)\r\n    {\r\n        super._burn(tokenId);\r\n    }\r\n\r\n    function safeMint(address to) public onlyOwner {\r\n        uint256 tokenId = _tokenIdCounter.current();\r\n\r\n        _tokenIdCounter.increment();\r\n        _safeMint(to, tokenId);\r\n    }\r\n\r\n    function safeMintWithMetadata(address to, string memory ipfsCID)\r\n        public\r\n        onlyOwner\r\n    {\r\n        uint256 tokenId = _tokenIdCounter.current();\r\n\r\n        _tokenIdCounter.increment();\r\n        _safeMint(to, tokenId);\r\n        _setTokenURI(tokenId, ipfsCID);\r\n    }\r\n\r\n    function tokenURI(uint256 tokenId)\r\n        public\r\n        view\r\n        override(ERC721, ERC721URIStorage)\r\n        returns (string memory)\r\n    {\r\n        require(super._exists(tokenId));\r\n\r\n        return super.tokenURI(tokenId);\r\n    }\r\n\r\n    function _baseURI() internal view virtual override returns (string memory) {\r\n        return \"ipfs://\";\r\n    }\r\n\r\n    function _beforeTokenTransfer(\r\n        address from,\r\n        address to,\r\n        uint256 tokenId\r\n    ) internal override(ERC721, ERC721Enumerable) {\r\n        super._beforeTokenTransfer(from, to, tokenId);\r\n    }\r\n\r\n    function supportsInterface(bytes4 interfaceId)\r\n        public\r\n        view\r\n        override(ERC721, ERC721Enumerable)\r\n        returns (bool)\r\n    {\r\n        return super.supportsInterface(interfaceId);\r\n    }\r\n}\r\n",
  "sourcePath": "C:\\Users\\ssuro\\git\\SLM-Coin\\blockchain\\contracts\\SLMNFT.sol",
  "compiler": {
    "name": "solc",
    "version": "0.8.13+commit.abaa5c0e.Emscripten.clang"
  },
  "schemaVersion": "3.4.9",
  "updatedAt": "2022-09-01T13:56:38.527Z",
  "networkType": "ethereum",
  "devdoc": {
    "kind": "dev",
    "methods": {
      "approve(address,uint256)": {
        "details": "See {IERC721-approve}."
      },
      "balanceOf(address)": {
        "details": "See {IERC721-balanceOf}."
      },
      "burn(uint256)": {
        "details": "Burns `tokenId`. See {ERC721-_burn}. Requirements: - The caller must own `tokenId` or be an approved operator."
      },
      "getApproved(uint256)": {
        "details": "See {IERC721-getApproved}."
      },
      "isApprovedForAll(address,address)": {
        "details": "See {IERC721-isApprovedForAll}."
      },
      "name()": {
        "details": "See {IERC721Metadata-name}."
      },
      "owner()": {
        "details": "Returns the address of the current owner."
      },
      "ownerOf(uint256)": {
        "details": "See {IERC721-ownerOf}."
      },
      "renounceOwnership()": {
        "details": "Leaves the contract without owner. It will not be possible to call `onlyOwner` functions anymore. Can only be called by the current owner. NOTE: Renouncing ownership will leave the contract without an owner, thereby removing any functionality that is only available to the owner."
      },
      "safeTransferFrom(address,address,uint256)": {
        "details": "See {IERC721-safeTransferFrom}."
      },
      "safeTransferFrom(address,address,uint256,bytes)": {
        "details": "See {IERC721-safeTransferFrom}."
      },
      "setApprovalForAll(address,bool)": {
        "details": "See {IERC721-setApprovalForAll}."
      },
      "symbol()": {
        "details": "See {IERC721Metadata-symbol}."
      },
      "tokenByIndex(uint256)": {
        "details": "See {IERC721Enumerable-tokenByIndex}."
      },
      "tokenOfOwnerByIndex(address,uint256)": {
        "details": "See {IERC721Enumerable-tokenOfOwnerByIndex}."
      },
      "totalSupply()": {
        "details": "See {IERC721Enumerable-totalSupply}."
      },
      "transferFrom(address,address,uint256)": {
        "details": "See {IERC721-transferFrom}."
      },
      "transferOwnership(address)": {
        "details": "Transfers ownership of the contract to a new account (`newOwner`). Can only be called by the current owner."
      }
    },
    "version": 1
  },
  "userdoc": {
    "kind": "user",
    "methods": {},
    "version": 1
  }
}