{
  "contractName": "SLMNFTFactory",
  "abi": [
    {
      "inputs": [
        {
          "internalType": "address",
          "name": "nftAddress_",
          "type": "address"
        },
        {
          "internalType": "address",
          "name": "tokenAddress_",
          "type": "address"
        },
        {
          "internalType": "uint256",
          "name": "randomNFTPrice_",
          "type": "uint256"
        }
      ],
      "stateMutability": "nonpayable",
      "type": "constructor"
    },
    {
      "anonymous": false,
      "inputs": [
        {
          "indexed": true,
          "internalType": "address",
          "name": "previousOwner",
          "type": "address"
        },
        {
          "indexed": true,
          "internalType": "address",
          "name": "newOwner",
          "type": "address"
        }
      ],
      "name": "OwnershipTransferred",
      "type": "event"
    },
    {
      "anonymous": false,
      "inputs": [
        {
          "indexed": true,
          "internalType": "address",
          "name": "from",
          "type": "address"
        },
        {
          "indexed": true,
          "internalType": "address",
          "name": "to",
          "type": "address"
        },
        {
          "indexed": true,
          "internalType": "uint256",
          "name": "tokenId",
          "type": "uint256"
        }
      ],
      "name": "Transfer",
      "type": "event"
    },
    {
      "stateMutability": "payable",
      "type": "fallback"
    },
    {
      "inputs": [],
      "name": "nftAddress",
      "outputs": [
        {
          "internalType": "address",
          "name": "",
          "type": "address"
        }
      ],
      "stateMutability": "view",
      "type": "function"
    },
    {
      "inputs": [],
      "name": "owner",
      "outputs": [
        {
          "internalType": "address",
          "name": "",
          "type": "address"
        }
      ],
      "stateMutability": "view",
      "type": "function"
    },
    {
      "inputs": [],
      "name": "randomNFTPrice",
      "outputs": [
        {
          "internalType": "uint256",
          "name": "",
          "type": "uint256"
        }
      ],
      "stateMutability": "view",
      "type": "function"
    },
    {
      "inputs": [],
      "name": "renounceOwnership",
      "outputs": [],
      "stateMutability": "nonpayable",
      "type": "function"
    },
    {
      "inputs": [],
      "name": "tokenAddress",
      "outputs": [
        {
          "internalType": "address",
          "name": "",
          "type": "address"
        }
      ],
      "stateMutability": "view",
      "type": "function"
    },
    {
      "stateMutability": "payable",
      "type": "receive"
    },
    {
      "inputs": [
        {
          "internalType": "address",
          "name": "to",
          "type": "address"
        },
        {
          "internalType": "uint256",
          "name": "amount",
          "type": "uint256"
        }
      ],
      "name": "transfer",
      "outputs": [],
      "stateMutability": "nonpayable",
      "type": "function"
    },
    {
      "inputs": [],
      "name": "name",
      "outputs": [
        {
          "internalType": "string",
          "name": "",
          "type": "string"
        }
      ],
      "stateMutability": "pure",
      "type": "function"
    },
    {
      "inputs": [],
      "name": "symbol",
      "outputs": [
        {
          "internalType": "string",
          "name": "",
          "type": "string"
        }
      ],
      "stateMutability": "pure",
      "type": "function"
    },
    {
      "inputs": [],
      "name": "supportsFactoryInterface",
      "outputs": [
        {
          "internalType": "bool",
          "name": "",
          "type": "bool"
        }
      ],
      "stateMutability": "pure",
      "type": "function"
    },
    {
      "inputs": [],
      "name": "numOptions",
      "outputs": [
        {
          "internalType": "uint256",
          "name": "",
          "type": "uint256"
        }
      ],
      "stateMutability": "view",
      "type": "function"
    },
    {
      "inputs": [
        {
          "internalType": "address",
          "name": "newOwner",
          "type": "address"
        }
      ],
      "name": "transferOwnership",
      "outputs": [],
      "stateMutability": "nonpayable",
      "type": "function"
    },
    {
      "inputs": [
        {
          "internalType": "uint256",
          "name": "_optionId",
          "type": "uint256"
        }
      ],
      "name": "canMint",
      "outputs": [
        {
          "internalType": "bool",
          "name": "",
          "type": "bool"
        }
      ],
      "stateMutability": "view",
      "type": "function"
    },
    {
      "inputs": [
        {
          "internalType": "uint256",
          "name": "_optionId",
          "type": "uint256"
        },
        {
          "internalType": "address",
          "name": "to",
          "type": "address"
        }
      ],
      "name": "mint",
      "outputs": [],
      "stateMutability": "nonpayable",
      "type": "function"
    },
    {
      "inputs": [
        {
          "internalType": "uint256",
          "name": "randomNFTPrice_",
          "type": "uint256"
        }
      ],
      "name": "setRandomNFTPrice",
      "outputs": [],
      "stateMutability": "nonpayable",
      "type": "function"
    },
    {
      "inputs": [],
      "name": "purchaseRandomNFT",
      "outputs": [],
      "stateMutability": "payable",
      "type": "function"
    },
    {
      "inputs": [
        {
          "internalType": "uint256",
          "name": "tokenId",
          "type": "uint256"
        }
      ],
      "name": "tokenURI",
      "outputs": [
        {
          "internalType": "string",
          "name": "",
          "type": "string"
        }
      ],
      "stateMutability": "view",
      "type": "function"
    },
    {
      "inputs": [
        {
          "internalType": "address",
          "name": "to",
          "type": "address"
        },
        {
          "internalType": "string",
          "name": "data",
          "type": "string"
        }
      ],
      "name": "mintWithMetadata",
      "outputs": [],
      "stateMutability": "nonpayable",
      "type": "function"
    },
    {
      "inputs": [
        {
          "internalType": "address",
          "name": "",
          "type": "address"
        },
        {
          "internalType": "address",
          "name": "_to",
          "type": "address"
        },
        {
          "internalType": "uint256",
          "name": "_tokenId",
          "type": "uint256"
        }
      ],
      "name": "transferFrom",
      "outputs": [],
      "stateMutability": "nonpayable",
      "type": "function"
    },
    {
      "inputs": [
        {
          "internalType": "address",
          "name": "_owner",
          "type": "address"
        },
        {
          "internalType": "address",
          "name": "_operator",
          "type": "address"
        }
      ],
      "name": "isApprovedForAll",
      "outputs": [
        {
          "internalType": "bool",
          "name": "isOperator",
          "type": "bool"
        }
      ],
      "stateMutability": "view",
      "type": "function"
    },
    {
      "inputs": [
        {
          "internalType": "uint256",
          "name": "",
          "type": "uint256"
        }
      ],
      "name": "ownerOf",
      "outputs": [
        {
          "internalType": "address",
          "name": "_owner",
          "type": "address"
        }
      ],
      "stateMutability": "view",
      "type": "function"
    },
    {
      "inputs": [
        {
          "internalType": "uint256",
          "name": "_optionId",
          "type": "uint256"
        }
      ],
      "name": "balanceOf",
      "outputs": [
        {
          "internalType": "uint256",
          "name": "",
          "type": "uint256"
        }
      ],
      "stateMutability": "view",
      "type": "function"
    },
    {
      "inputs": [],
      "name": "exchangeRate",
      "outputs": [
        {
          "internalType": "uint256",
          "name": "",
          "type": "uint256"
        }
      ],
      "stateMutability": "view",
      "type": "function"
    },
    {
      "inputs": [],
      "name": "exchangeETHForSLM",
      "outputs": [],
      "stateMutability": "payable",
      "type": "function"
    },
    {
      "inputs": [
        {
          "internalType": "uint256",
          "name": "slmAmount",
          "type": "uint256"
        }
      ],
      "name": "exchangeSLMForETH",
      "outputs": [],
      "stateMutability": "nonpayable",
      "type": "function"
    }
  ],
  "bytecode": "0x608060405260016004556000600555620186a06006553480156200002257600080fd5b50604051620020cf380380620020cf83398181016040528101906200004891906200033a565b620000686200005c6200011c60201b60201c565b6200012460201b60201c565b82600160006101000a81548173ffffffffffffffffffffffffffffffffffffffff021916908373ffffffffffffffffffffffffffffffffffffffff16021790555081600260006101000a81548173ffffffffffffffffffffffffffffffffffffffff021916908373ffffffffffffffffffffffffffffffffffffffff1602179055508060038190555062000113600062000107620001e860201b60201c565b6200021160201b60201c565b50505062000412565b600033905090565b60008060009054906101000a900473ffffffffffffffffffffffffffffffffffffffff169050816000806101000a81548173ffffffffffffffffffffffffffffffffffffffff021916908373ffffffffffffffffffffffffffffffffffffffff1602179055508173ffffffffffffffffffffffffffffffffffffffff168173ffffffffffffffffffffffffffffffffffffffff167f8be0079c531659141344cd1fd0a4f28419497f9722a3daafe3b4186f6b6457e060405160405180910390a35050565b60008060009054906101000a900473ffffffffffffffffffffffffffffffffffffffff16905090565b60005b6004548110156200029057808273ffffffffffffffffffffffffffffffffffffffff168473ffffffffffffffffffffffffffffffffffffffff167fddf252ad1be2c89b69c2b068fc378daa952ba7f163c4a11628f55a4df523b3ef60405160405180910390a480806200028790620003c5565b91505062000214565b505050565b600080fd5b600073ffffffffffffffffffffffffffffffffffffffff82169050919050565b6000620002c7826200029a565b9050919050565b620002d981620002ba565b8114620002e557600080fd5b50565b600081519050620002f981620002ce565b92915050565b6000819050919050565b6200031481620002ff565b81146200032057600080fd5b50565b600081519050620003348162000309565b92915050565b60008060006060848603121562000356576200035562000295565b5b60006200036686828701620002e8565b93505060206200037986828701620002e8565b92505060406200038c8682870162000323565b9150509250925092565b7f4e487b7100000000000000000000000000000000000000000000000000000000600052601160045260246000fd5b6000620003d282620002ff565b91507fffffffffffffffffffffffffffffffffffffffffffffffffffffffffffffffff820362000407576200040662000396565b5b600182019050919050565b611cad80620004226000396000f3fe60806040526004361061014f5760003560e01c806395d89b41116100b6578063c311c5231161006f578063c311c52314610455578063c87b56dd14610480578063d326ff6a146104bd578063e985e9c5146104c7578063f2fde38b14610504578063fc35056a1461052d57610156565b806395d89b41146103455780639cc7f708146103705780639d76ea58146103ad578063a29d8b3f146103d8578063a9059cbb14610403578063b658d10e1461042c57610156565b80635dd871a3116101085780635dd871a3146102565780636352211e14610293578063715018a6146102d057806376220179146102e75780638da5cb5b146102f157806394bf804d1461031c57610156565b806306fdde031461015857806323b872dd146101835780633ba0b9a9146101ac578063471d06f4146101d75780634b97aed9146102005780635bf8633a1461022b57610156565b3661015657005b005b34801561016457600080fd5b5061016d610556565b60405161017a9190611367565b60405180910390f35b34801561018f57600080fd5b506101aa60048036038101906101a59190611431565b610576565b005b3480156101b857600080fd5b506101c1610585565b6040516101ce9190611493565b60405180910390f35b3480156101e357600080fd5b506101fe60048036038101906101f991906115e3565b61064a565b005b34801561020c57600080fd5b506102156106eb565b6040516102229190611493565b60405180910390f35b34801561023757600080fd5b506102406106f5565b60405161024d919061164e565b60405180910390f35b34801561026257600080fd5b5061027d60048036038101906102789190611669565b61071b565b60405161028a91906116b1565b60405180910390f35b34801561029f57600080fd5b506102ba60048036038101906102b59190611669565b6107f4565b6040516102c7919061164e565b60405180910390f35b3480156102dc57600080fd5b506102e5610805565b005b6102ef610819565b005b3480156102fd57600080fd5b506103066109a2565b604051610313919061164e565b60405180910390f35b34801561032857600080fd5b50610343600480360381019061033e91906116cc565b6109cb565b005b34801561035157600080fd5b5061035a610a6a565b6040516103679190611367565b60405180910390f35b34801561037c57600080fd5b5061039760048036038101906103929190611669565b610aa7565b6040516103a49190611493565b60405180910390f35b3480156103b957600080fd5b506103c2610b51565b6040516103cf919061164e565b60405180910390f35b3480156103e457600080fd5b506103ed610b77565b6040516103fa9190611493565b60405180910390f35b34801561040f57600080fd5b5061042a6004803603810190610425919061170c565b610b7d565b005b34801561043857600080fd5b50610453600480360381019061044e9190611669565b610bd0565b005b34801561046157600080fd5b5061046a610e6d565b60405161047791906116b1565b60405180910390f35b34801561048c57600080fd5b506104a760048036038101906104a29190611669565b610e76565b6040516104b49190611367565b60405180910390f35b6104c5610e98565b005b3480156104d357600080fd5b506104ee60048036038101906104e9919061174c565b610f2d565b6040516104fb91906116b1565b60405180910390f35b34801561051057600080fd5b5061052b6004803603810190610526919061178c565b611044565b005b34801561053957600080fd5b50610554600480360381019061054f9190611669565b61106f565b005b6060604051806060016040528060228152602001611c2260229139905090565b61058081836109cb565b505050565b600080600260009054906101000a900473ffffffffffffffffffffffffffffffffffffffff16905060008173ffffffffffffffffffffffffffffffffffffffff166370a08231306040518263ffffffff1660e01b81526004016105e8919061164e565b602060405180830381865afa158015610605573d6000803e3d6000fd5b505050506040513d601f19601f8201168201806040525081019061062991906117ce565b905060004790506000828261063e9190611859565b90508094505050505090565b610652611081565b6000600160009054906101000a900473ffffffffffffffffffffffffffffffffffffffff1690508073ffffffffffffffffffffffffffffffffffffffff166352640e6884846040518363ffffffff1660e01b81526004016106b492919061188a565b600060405180830381600087803b1580156106ce57600080fd5b505af11580156106e2573d6000803e3d6000fd5b50505050505050565b6000600454905090565b600160009054906101000a900473ffffffffffffffffffffffffffffffffffffffff1681565b6000600454821061072f57600090506107ef565b6000600160009054906101000a900473ffffffffffffffffffffffffffffffffffffffff16905060008173ffffffffffffffffffffffffffffffffffffffff166318160ddd6040518163ffffffff1660e01b8152600401602060405180830381865afa1580156107a3573d6000803e3d6000fd5b505050506040513d601f19601f820116820180604052508101906107c791906117ce565b9050600060055485036107d957600190505b806006546107e791906118ba565b821093505050505b919050565b60006107fe6109a2565b9050919050565b61080d611081565b61081760006110ff565b565b60003490506000610828610585565b90506000600260009054906101000a900473ffffffffffffffffffffffffffffffffffffffff1690506000828461085f9190611859565b9050808273ffffffffffffffffffffffffffffffffffffffff166370a08231306040518263ffffffff1660e01b815260040161089b919061164e565b602060405180830381865afa1580156108b8573d6000803e3d6000fd5b505050506040513d601f19601f820116820180604052508101906108dc91906117ce565b101561091d576040517f08c379a00000000000000000000000000000000000000000000000000000000081526004016109149061193a565b60405180910390fd5b8173ffffffffffffffffffffffffffffffffffffffff1663a9059cbb33836040518363ffffffff1660e01b815260040161095892919061195a565b6020604051808303816000875af1158015610977573d6000803e3d6000fd5b505050506040513d601f19601f8201168201806040525081019061099b91906119af565b5050505050565b60008060009054906101000a900473ffffffffffffffffffffffffffffffffffffffff16905090565b6109d3611081565b6000600160009054906101000a900473ffffffffffffffffffffffffffffffffffffffff1690508073ffffffffffffffffffffffffffffffffffffffff166340d097c3836040518263ffffffff1660e01b8152600401610a33919061164e565b600060405180830381600087803b158015610a4d57600080fd5b505af1158015610a61573d6000803e3d6000fd5b50505050505050565b60606040518060400160405280600381526020017f534c4d0000000000000000000000000000000000000000000000000000000000815250905090565b600080600160009054906101000a900473ffffffffffffffffffffffffffffffffffffffff1690508073ffffffffffffffffffffffffffffffffffffffff166370a08231336040518263ffffffff1660e01b8152600401610b08919061164e565b602060405180830381865afa158015610b25573d6000803e3d6000fd5b505050506040513d601f19601f82011682018060405250810190610b4991906117ce565b915050919050565b600260009054906101000a900473ffffffffffffffffffffffffffffffffffffffff1681565b60035481565b610b85611081565b8173ffffffffffffffffffffffffffffffffffffffff166108fc829081150290604051600060405180830381858888f19350505050158015610bcb573d6000803e3d6000fd5b505050565b6000600260009054906101000a900473ffffffffffffffffffffffffffffffffffffffff169050818173ffffffffffffffffffffffffffffffffffffffff166370a08231336040518263ffffffff1660e01b8152600401610c31919061164e565b602060405180830381865afa158015610c4e573d6000803e3d6000fd5b505050506040513d601f19601f82011682018060405250810190610c7291906117ce565b1015610c7d57600080fd5b6000610c87610585565b83610c9291906119dc565b905080471015610ca157600080fd5b8173ffffffffffffffffffffffffffffffffffffffff1663095ea7b330856040518363ffffffff1660e01b8152600401610cdc92919061195a565b6020604051808303816000875af1158015610cfb573d6000803e3d6000fd5b505050506040513d601f19601f82011682018060405250810190610d1f91906119af565b508173ffffffffffffffffffffffffffffffffffffffff166323b872dd3330866040518463ffffffff1660e01b8152600401610d5d93929190611a36565b6020604051808303816000875af1158015610d7c573d6000803e3d6000fd5b505050506040513d601f19601f82011682018060405250810190610da091906119af565b503373ffffffffffffffffffffffffffffffffffffffff166108fc829081150290604051600060405180830381858888f19350505050158015610de7573d6000803e3d6000fd5b508173ffffffffffffffffffffffffffffffffffffffff1663095ea7b33060006040518363ffffffff1660e01b8152600401610e24929190611ab2565b6020604051808303816000875af1158015610e43573d6000803e3d6000fd5b505050506040513d601f19601f82011682018060405250810190610e6791906119af565b50505050565b60006001905090565b6060604051806060016040528060348152602001611c44603491399050919050565b6000600160009054906101000a900473ffffffffffffffffffffffffffffffffffffffff1690508073ffffffffffffffffffffffffffffffffffffffff166340d097c3336040518263ffffffff1660e01b8152600401610ef8919061164e565b600060405180830381600087803b158015610f1257600080fd5b505af1158015610f26573d6000803e3d6000fd5b5050505050565b60008273ffffffffffffffffffffffffffffffffffffffff16610f4e6109a2565b73ffffffffffffffffffffffffffffffffffffffff16148015610fb057507358807bad0b376efc12f5ad86aac70e78ed67deae73ffffffffffffffffffffffffffffffffffffffff168273ffffffffffffffffffffffffffffffffffffffff16145b15610fbe576001905061103e565b8273ffffffffffffffffffffffffffffffffffffffff16610fdd6109a2565b73ffffffffffffffffffffffffffffffffffffffff1614801561102b57508173ffffffffffffffffffffffffffffffffffffffff168373ffffffffffffffffffffffffffffffffffffffff16145b15611039576001905061103e565b600090505b92915050565b61104c611081565b60006110566109a2565b9050611061826111c3565b61106b8183611246565b5050565b611077611081565b8060038190555050565b6110896112c6565b73ffffffffffffffffffffffffffffffffffffffff166110a76109a2565b73ffffffffffffffffffffffffffffffffffffffff16146110fd576040517f08c379a00000000000000000000000000000000000000000000000000000000081526004016110f490611b27565b60405180910390fd5b565b60008060009054906101000a900473ffffffffffffffffffffffffffffffffffffffff169050816000806101000a81548173ffffffffffffffffffffffffffffffffffffffff021916908373ffffffffffffffffffffffffffffffffffffffff1602179055508173ffffffffffffffffffffffffffffffffffffffff168173ffffffffffffffffffffffffffffffffffffffff167f8be0079c531659141344cd1fd0a4f28419497f9722a3daafe3b4186f6b6457e060405160405180910390a35050565b6111cb611081565b600073ffffffffffffffffffffffffffffffffffffffff168173ffffffffffffffffffffffffffffffffffffffff160361123a576040517f08c379a000000000000000000000000000000000000000000000000000000000815260040161123190611bb9565b60405180910390fd5b611243816110ff565b50565b60005b6004548110156112c157808273ffffffffffffffffffffffffffffffffffffffff168473ffffffffffffffffffffffffffffffffffffffff167fddf252ad1be2c89b69c2b068fc378daa952ba7f163c4a11628f55a4df523b3ef60405160405180910390a480806112b990611bd9565b915050611249565b505050565b600033905090565b600081519050919050565b600082825260208201905092915050565b60005b838110156113085780820151818401526020810190506112ed565b83811115611317576000848401525b50505050565b6000601f19601f8301169050919050565b6000611339826112ce565b61134381856112d9565b93506113538185602086016112ea565b61135c8161131d565b840191505092915050565b60006020820190508181036000830152611381818461132e565b905092915050565b6000604051905090565b600080fd5b600080fd5b600073ffffffffffffffffffffffffffffffffffffffff82169050919050565b60006113c88261139d565b9050919050565b6113d8816113bd565b81146113e357600080fd5b50565b6000813590506113f5816113cf565b92915050565b6000819050919050565b61140e816113fb565b811461141957600080fd5b50565b60008135905061142b81611405565b92915050565b60008060006060848603121561144a57611449611393565b5b6000611458868287016113e6565b9350506020611469868287016113e6565b925050604061147a8682870161141c565b9150509250925092565b61148d816113fb565b82525050565b60006020820190506114a86000830184611484565b92915050565b600080fd5b600080fd5b7f4e487b7100000000000000000000000000000000000000000000000000000000600052604160045260246000fd5b6114f08261131d565b810181811067ffffffffffffffff8211171561150f5761150e6114b8565b5b80604052505050565b6000611522611389565b905061152e82826114e7565b919050565b600067ffffffffffffffff82111561154e5761154d6114b8565b5b6115578261131d565b9050602081019050919050565b82818337600083830152505050565b600061158661158184611533565b611518565b9050828152602081018484840111156115a2576115a16114b3565b5b6115ad848285611564565b509392505050565b600082601f8301126115ca576115c96114ae565b5b81356115da848260208601611573565b91505092915050565b600080604083850312156115fa576115f9611393565b5b6000611608858286016113e6565b925050602083013567ffffffffffffffff81111561162957611628611398565b5b611635858286016115b5565b9150509250929050565b611648816113bd565b82525050565b6000602082019050611663600083018461163f565b92915050565b60006020828403121561167f5761167e611393565b5b600061168d8482850161141c565b91505092915050565b60008115159050919050565b6116ab81611696565b82525050565b60006020820190506116c660008301846116a2565b92915050565b600080604083850312156116e3576116e2611393565b5b60006116f18582860161141c565b9250506020611702858286016113e6565b9150509250929050565b6000806040838503121561172357611722611393565b5b6000611731858286016113e6565b92505060206117428582860161141c565b9150509250929050565b6000806040838503121561176357611762611393565b5b6000611771858286016113e6565b9250506020611782858286016113e6565b9150509250929050565b6000602082840312156117a2576117a1611393565b5b60006117b0848285016113e6565b91505092915050565b6000815190506117c881611405565b92915050565b6000602082840312156117e4576117e3611393565b5b60006117f2848285016117b9565b91505092915050565b7f4e487b7100000000000000000000000000000000000000000000000000000000600052601260045260246000fd5b7f4e487b7100000000000000000000000000000000000000000000000000000000600052601160045260246000fd5b6000611864826113fb565b915061186f836113fb565b92508261187f5761187e6117fb565b5b828204905092915050565b600060408201905061189f600083018561163f565b81810360208301526118b1818461132e565b90509392505050565b60006118c5826113fb565b91506118d0836113fb565b9250828210156118e3576118e261182a565b5b828203905092915050565b7f496e73756666696369656e7420534c4d20616d6f756e74000000000000000000600082015250565b60006119246017836112d9565b915061192f826118ee565b602082019050919050565b6000602082019050818103600083015261195381611917565b9050919050565b600060408201905061196f600083018561163f565b61197c6020830184611484565b9392505050565b61198c81611696565b811461199757600080fd5b50565b6000815190506119a981611983565b92915050565b6000602082840312156119c5576119c4611393565b5b60006119d38482850161199a565b91505092915050565b60006119e7826113fb565b91506119f2836113fb565b9250817fffffffffffffffffffffffffffffffffffffffffffffffffffffffffffffffff0483118215151615611a2b57611a2a61182a565b5b828202905092915050565b6000606082019050611a4b600083018661163f565b611a58602083018561163f565b611a656040830184611484565b949350505050565b6000819050919050565b6000819050919050565b6000611a9c611a97611a9284611a6d565b611a77565b6113fb565b9050919050565b611aac81611a81565b82525050565b6000604082019050611ac7600083018561163f565b611ad46020830184611aa3565b9392505050565b7f4f776e61626c653a2063616c6c6572206973206e6f7420746865206f776e6572600082015250565b6000611b116020836112d9565b9150611b1c82611adb565b602082019050919050565b60006020820190508181036000830152611b4081611b04565b9050919050565b7f4f776e61626c653a206e6577206f776e657220697320746865207a65726f206160008201527f6464726573730000000000000000000000000000000000000000000000000000602082015250565b6000611ba36026836112d9565b9150611bae82611b47565b604082019050919050565b60006020820190508181036000830152611bd281611b96565b9050919050565b6000611be4826113fb565b91507fffffffffffffffffffffffffffffffffffffffffffffffffffffffffffffffff8203611c1657611c1561182a565b5b60018201905091905056fe534c4d204e465420546f6b656e2053616c65202f2045786368616e67652046756e642f697066732f516d626875524e4c7262324e4462576331334a796a644a72634e477a6d416957587732424266374c6d4c5a5a7374a2646970667358221220293b6c792a333d9fd7f589469c6e8e919a351df8dbb76a840cfe4c5043fbe09c64736f6c634300080d0033",
  "immutableReferences": {},
  "source": "// SPDX-License-Identifier: MIT\r\npragma solidity ^0.8.4;\r\n\r\nimport \"@openzeppelin/contracts/token/ERC721/ERC721.sol\";\r\nimport \"@openzeppelin/contracts/token/ERC721/extensions/ERC721Burnable.sol\";\r\nimport \"@openzeppelin/contracts/metatx/ERC2771Context.sol\";\r\nimport \"@openzeppelin/contracts/access/Ownable.sol\";\r\n\r\nimport \"./SLMToken.sol\";\r\nimport \"./SLMNFT.sol\";\r\n\r\ninterface Factory {\r\n    /**\r\n    * Returns the name of this factory.\r\n    */\r\n    function name() external view returns (string memory);\r\n\r\n    /**\r\n    * Returns the symbol for this factory.\r\n    */\r\n    function symbol() external view returns (string memory);\r\n\r\n    /**\r\n    * Number of options the factory supports.\r\n    */\r\n    function numOptions() external view returns (uint256);\r\n\r\n    /**\r\n    * @dev Returns whether the option ID can be minted. Can return false if the developer wishes to\r\n    * restrict a total supply per option ID (or overall).\r\n    */\r\n    function canMint(uint256 _optionId) external view returns (bool);\r\n\r\n    /**\r\n    * @dev Returns a URL specifying some metadata about the option. This metadata can be of the\r\n    * same structure as the ERC721 metadata.\r\n    */\r\n    function tokenURI(uint256 _optionId) external view returns (string memory);\r\n\r\n    /**\r\n    * Indicates that this is a factory contract. Ideally would use EIP 165 supportsInterface()\r\n    */\r\n    function supportsFactoryInterface() external view returns (bool);\r\n\r\n    /**\r\n    * @dev Mints asset(s) in accordance to a specific address with a particular \"option\". This should be\r\n    * callable only by the contract owner or the owner's Wyvern Proxy (later universal login will solve this).\r\n    * Options should also be delineated 0 - (numOptions() - 1) for convenient indexing.\r\n    * @param _optionId the option id\r\n    * @param _toAddress address of the future owner of the asset(s)\r\n    */\r\n    function mint(uint256 _optionId, address _toAddress) external;\r\n}\r\n\r\ncontract SLMNFTFactory is Factory, Ownable {\r\n    address public nftAddress;\r\n    address public tokenAddress;\r\n    uint public randomNFTPrice;\r\n\r\n    using Strings for string;\r\n\r\n    event Transfer(\r\n        address indexed from,\r\n        address indexed to,\r\n        uint256 indexed tokenId\r\n    );\r\n\r\n    uint256 NUM_OPTIONS = 1;\r\n    uint256 SCHIZO_OPTION = 0;\r\n    uint256 SCHIZO_SUPPLY = 100_000;\r\n\r\n    fallback() external payable {}\r\n\r\n    receive() external payable {}\r\n\r\n    function transfer(address to, uint256 amount) public onlyOwner {\r\n        payable(to).transfer(amount);\r\n    }\r\n\r\n    constructor(address nftAddress_, address tokenAddress_, uint randomNFTPrice_) {\r\n        nftAddress = nftAddress_;\r\n        tokenAddress = tokenAddress_;\r\n        randomNFTPrice = randomNFTPrice_;\r\n\r\n        fireTransferEvents(address(0), owner());\r\n    }\r\n\r\n    function name() external pure override returns (string memory) {\r\n        return \"SLM NFT Token Sale / Exchange Fund\";\r\n    }\r\n\r\n    function symbol() external pure override returns (string memory) {\r\n        return \"SLM\";\r\n    }\r\n\r\n    function supportsFactoryInterface() public pure override returns (bool) {\r\n        return true;\r\n    }\r\n\r\n    function numOptions() public view override returns (uint256) {\r\n        return NUM_OPTIONS;\r\n    }\r\n\r\n    function transferOwnership(address newOwner) public override onlyOwner {\r\n        address _prevOwner = owner();\r\n        super.transferOwnership(newOwner);\r\n        fireTransferEvents(_prevOwner, newOwner);\r\n    }\r\n\r\n    function fireTransferEvents(address _from, address _to) private {\r\n        for (uint256 i = 0; i < NUM_OPTIONS; i++) {\r\n            emit Transfer(_from, _to, i);\r\n        }\r\n    }\r\n\r\n    function canMint(uint256 _optionId) public view override returns (bool) {\r\n        if (_optionId >= NUM_OPTIONS) {\r\n            return false;\r\n        }\r\n\r\n        SLMNFT slmNFT = SLMNFT(nftAddress);\r\n        uint256 slmSupply = slmNFT.totalSupply();\r\n\r\n        uint256 numItemsAllocated = 0;\r\n        if (_optionId == SCHIZO_OPTION) {\r\n            numItemsAllocated = 1;\r\n        }\r\n\r\n        return slmSupply < (SCHIZO_SUPPLY - numItemsAllocated);\r\n    }\r\n\r\n    function mint(uint256 _optionId, address to) public onlyOwner {\r\n        SLMNFT slmNft = SLMNFT(nftAddress);\r\n        slmNft.safeMint(to);\r\n    }\r\n\r\n    function setRandomNFTPrice(uint randomNFTPrice_) public onlyOwner {\r\n        randomNFTPrice = randomNFTPrice_;\r\n    }\r\n\r\n    function purchaseRandomNFT() public payable {\r\n        SLMNFT slmNft = SLMNFT(nftAddress);\r\n        slmNft.safeMint(msg.sender);\r\n    }\r\n\r\n    function tokenURI(uint256 tokenId) public view returns (string memory) {\r\n        return \"/ipfs/QmbhuRNLrb2NDbWc13JyjdJrcNGzmAiWXw2BBf7LmLZZst\";\r\n    }\r\n\r\n    function mintWithMetadata(address to, string memory data) public onlyOwner {\r\n        SLMNFT slmNft = SLMNFT(nftAddress);\r\n        slmNft.safeMintWithMetadata(to, data);\r\n    }\r\n\r\n    /**\r\n     * Hack to get things to work automatically on OpenSea.\r\n     * Use transferFrom so the frontend doesn't have to worry about different method names.\r\n     */\r\n    function transferFrom(\r\n        address,\r\n        address _to,\r\n        uint256 _tokenId\r\n    ) public  {\r\n        mint(_tokenId, _to);\r\n    }\r\n\r\n    /**\r\n     * Override isApprovedForAll to auto-approve OS's proxy contract\r\n     */\r\n    function isApprovedForAll(address _owner, address _operator)\r\n        public\r\n        view\r\n        returns (bool isOperator)\r\n    {\r\n        // if OpenSea's ERC721 Proxy Address is detected, auto-return true\r\n        if (owner() == _owner && _operator == address(0x58807baD0B376efc12F5AD86aAc70E78ed67deaE)) {\r\n            return true;\r\n        }\r\n\r\n        // otherwise, use the default ERC721.isApprovedForAll()\r\n        if (owner() == _owner && _owner == _operator) {\r\n            return true;\r\n        }\r\n\r\n        return false;\r\n    }\r\n\r\n    /**\r\n     * Hack to get things to work automatically on OpenSea.\r\n     * Use isApprovedForAll so the frontend doesn't have to worry about different method names.\r\n     */\r\n    function ownerOf(uint256) public view returns (address _owner) {\r\n        return owner();\r\n    }\r\n\r\n    /**\r\n     * @dev Returns an URI for a given option ID.\r\n     * Throws if the option ID does not exist. May return an empty string.\r\n     * @param _optionId - uint256 ID of the token queried\r\n     * @return token URI\r\n     */\r\n    function balanceOf(uint256 _optionId) public view returns (uint256) {\r\n        SLMNFT slmNft = SLMNFT(nftAddress);\r\n        return slmNft.balanceOf(msg.sender);\r\n    }\r\n\r\n    // -------------\r\n    // Exchange fund\r\n    // -------------\r\n\r\n    function exchangeRate() public view returns (uint256) {\r\n        SLMToken slmToken = SLMToken(tokenAddress);\r\n        uint256 slmBalance = slmToken.balanceOf(address(this));\r\n        uint256 ethBalance = address(this).balance;\r\n        uint256 rate = ethBalance / slmBalance;\r\n        return rate;\r\n    }\r\n\r\n    function exchangeETHForSLM() public payable {\r\n        uint256 amountEth = msg.value;\r\n        uint256 rate = exchangeRate();\r\n        SLMToken slmToken = SLMToken(tokenAddress);\r\n        uint256 slmAmount = amountEth / rate;\r\n        require(\r\n            slmToken.balanceOf(address(this)) >= slmAmount,\r\n            \"Insufficient SLM amount\"\r\n        );\r\n        slmToken.transfer(msg.sender, slmAmount);\r\n    }\r\n\r\n    function exchangeSLMForETH(uint256 slmAmount) public {\r\n        SLMToken slmToken = SLMToken(tokenAddress);\r\n        require(slmToken.balanceOf(address(msg.sender)) >= slmAmount);\r\n        uint256 ethAMount = slmAmount * exchangeRate();\r\n        require(address(this).balance >= ethAMount);\r\n        slmToken.approve(address(this), slmAmount);\r\n        slmToken.transferFrom(msg.sender, address(this), slmAmount);\r\n        payable(msg.sender).transfer(ethAMount);\r\n        slmToken.approve(address(this), 0);\r\n    }\r\n}\r\n",
  "sourcePath": "C:\\Users\\ssuro\\git\\SLM-Coin\\blockchain\\contracts\\SLMNFTFactory.sol",
  "compiler": {
    "name": "solc",
    "version": "0.8.13+commit.abaa5c0e.Emscripten.clang"
  },
  "schemaVersion": "3.4.9",
  "updatedAt": "2022-09-01T13:16:30.823Z",
  "devdoc": {
    "kind": "dev",
    "methods": {
      "balanceOf(uint256)": {
        "details": "Returns an URI for a given option ID. Throws if the option ID does not exist. May return an empty string.",
        "params": {
          "_optionId": "- uint256 ID of the token queried"
        },
        "returns": {
          "_0": "token URI"
        }
      },
      "canMint(uint256)": {
        "details": "Returns whether the option ID can be minted. Can return false if the developer wishes to restrict a total supply per option ID (or overall)."
      },
      "owner()": {
        "details": "Returns the address of the current owner."
      },
      "renounceOwnership()": {
        "details": "Leaves the contract without owner. It will not be possible to call `onlyOwner` functions anymore. Can only be called by the current owner. NOTE: Renouncing ownership will leave the contract without an owner, thereby removing any functionality that is only available to the owner."
      },
      "transferOwnership(address)": {
        "details": "Transfers ownership of the contract to a new account (`newOwner`). Can only be called by the current owner."
      }
    },
    "version": 1
  },
  "userdoc": {
    "kind": "user",
    "methods": {
      "isApprovedForAll(address,address)": {
        "notice": "Override isApprovedForAll to auto-approve OS's proxy contract"
      },
      "name()": {
        "notice": "Returns the name of this factory."
      },
      "numOptions()": {
        "notice": "Number of options the factory supports."
      },
      "ownerOf(uint256)": {
        "notice": "Hack to get things to work automatically on OpenSea. Use isApprovedForAll so the frontend doesn't have to worry about different method names."
      },
      "supportsFactoryInterface()": {
        "notice": "Indicates that this is a factory contract. Ideally would use EIP 165 supportsInterface()"
      },
      "symbol()": {
        "notice": "Returns the symbol for this factory."
      },
      "transferFrom(address,address,uint256)": {
        "notice": "Hack to get things to work automatically on OpenSea. Use transferFrom so the frontend doesn't have to worry about different method names."
      }
    },
    "version": 1
  }
}