{
  "contractName": "SLMNFT",
  "abi": [
    {
      "inputs": [
        {
          "internalType": "address",
          "name": "apiAddress_",
          "type": "address"
        }
      ],
      "stateMutability": "nonpayable",
      "type": "constructor"
    },
    {
      "anonymous": false,
      "inputs": [
        {
          "indexed": true,
          "internalType": "address",
          "name": "owner",
          "type": "address"
        },
        {
          "indexed": true,
          "internalType": "address",
          "name": "approved",
          "type": "address"
        },
        {
          "indexed": true,
          "internalType": "uint256",
          "name": "tokenId",
          "type": "uint256"
        }
      ],
      "name": "Approval",
      "type": "event"
    },
    {
      "anonymous": false,
      "inputs": [
        {
          "indexed": true,
          "internalType": "address",
          "name": "owner",
          "type": "address"
        },
        {
          "indexed": true,
          "internalType": "address",
          "name": "operator",
          "type": "address"
        },
        {
          "indexed": false,
          "internalType": "bool",
          "name": "approved",
          "type": "bool"
        }
      ],
      "name": "ApprovalForAll",
      "type": "event"
    },
    {
      "anonymous": false,
      "inputs": [
        {
          "indexed": true,
          "internalType": "address",
          "name": "previousOwner",
          "type": "address"
        },
        {
          "indexed": true,
          "internalType": "address",
          "name": "newOwner",
          "type": "address"
        }
      ],
      "name": "OwnershipTransferred",
      "type": "event"
    },
    {
      "anonymous": false,
      "inputs": [
        {
          "indexed": true,
          "internalType": "address",
          "name": "from",
          "type": "address"
        },
        {
          "indexed": true,
          "internalType": "address",
          "name": "to",
          "type": "address"
        },
        {
          "indexed": true,
          "internalType": "uint256",
          "name": "tokenId",
          "type": "uint256"
        }
      ],
      "name": "Transfer",
      "type": "event"
    },
    {
      "inputs": [
        {
          "internalType": "address",
          "name": "to",
          "type": "address"
        },
        {
          "internalType": "uint256",
          "name": "tokenId",
          "type": "uint256"
        }
      ],
      "name": "approve",
      "outputs": [],
      "stateMutability": "nonpayable",
      "type": "function"
    },
    {
      "inputs": [
        {
          "internalType": "address",
          "name": "owner",
          "type": "address"
        }
      ],
      "name": "balanceOf",
      "outputs": [
        {
          "internalType": "uint256",
          "name": "",
          "type": "uint256"
        }
      ],
      "stateMutability": "view",
      "type": "function",
      "constant": true
    },
    {
      "inputs": [
        {
          "internalType": "uint256",
          "name": "tokenId",
          "type": "uint256"
        }
      ],
      "name": "burn",
      "outputs": [],
      "stateMutability": "nonpayable",
      "type": "function"
    },
    {
      "inputs": [
        {
          "internalType": "uint256",
          "name": "tokenId",
          "type": "uint256"
        }
      ],
      "name": "getApproved",
      "outputs": [
        {
          "internalType": "address",
          "name": "",
          "type": "address"
        }
      ],
      "stateMutability": "view",
      "type": "function",
      "constant": true
    },
    {
      "inputs": [],
      "name": "name",
      "outputs": [
        {
          "internalType": "string",
          "name": "",
          "type": "string"
        }
      ],
      "stateMutability": "view",
      "type": "function",
      "constant": true
    },
    {
      "inputs": [],
      "name": "owner",
      "outputs": [
        {
          "internalType": "address",
          "name": "",
          "type": "address"
        }
      ],
      "stateMutability": "view",
      "type": "function",
      "constant": true
    },
    {
      "inputs": [
        {
          "internalType": "uint256",
          "name": "tokenId",
          "type": "uint256"
        }
      ],
      "name": "ownerOf",
      "outputs": [
        {
          "internalType": "address",
          "name": "",
          "type": "address"
        }
      ],
      "stateMutability": "view",
      "type": "function",
      "constant": true
    },
    {
      "inputs": [],
      "name": "renounceOwnership",
      "outputs": [],
      "stateMutability": "nonpayable",
      "type": "function"
    },
    {
      "inputs": [
        {
          "internalType": "address",
          "name": "from",
          "type": "address"
        },
        {
          "internalType": "address",
          "name": "to",
          "type": "address"
        },
        {
          "internalType": "uint256",
          "name": "tokenId",
          "type": "uint256"
        }
      ],
      "name": "safeTransferFrom",
      "outputs": [],
      "stateMutability": "nonpayable",
      "type": "function"
    },
    {
      "inputs": [
        {
          "internalType": "address",
          "name": "from",
          "type": "address"
        },
        {
          "internalType": "address",
          "name": "to",
          "type": "address"
        },
        {
          "internalType": "uint256",
          "name": "tokenId",
          "type": "uint256"
        },
        {
          "internalType": "bytes",
          "name": "_data",
          "type": "bytes"
        }
      ],
      "name": "safeTransferFrom",
      "outputs": [],
      "stateMutability": "nonpayable",
      "type": "function"
    },
    {
      "inputs": [
        {
          "internalType": "address",
          "name": "operator",
          "type": "address"
        },
        {
          "internalType": "bool",
          "name": "approved",
          "type": "bool"
        }
      ],
      "name": "setApprovalForAll",
      "outputs": [],
      "stateMutability": "nonpayable",
      "type": "function"
    },
    {
      "inputs": [],
      "name": "symbol",
      "outputs": [
        {
          "internalType": "string",
          "name": "",
          "type": "string"
        }
      ],
      "stateMutability": "view",
      "type": "function",
      "constant": true
    },
    {
      "inputs": [
        {
          "internalType": "uint256",
          "name": "index",
          "type": "uint256"
        }
      ],
      "name": "tokenByIndex",
      "outputs": [
        {
          "internalType": "uint256",
          "name": "",
          "type": "uint256"
        }
      ],
      "stateMutability": "view",
      "type": "function",
      "constant": true
    },
    {
      "inputs": [
        {
          "internalType": "address",
          "name": "owner",
          "type": "address"
        },
        {
          "internalType": "uint256",
          "name": "index",
          "type": "uint256"
        }
      ],
      "name": "tokenOfOwnerByIndex",
      "outputs": [
        {
          "internalType": "uint256",
          "name": "",
          "type": "uint256"
        }
      ],
      "stateMutability": "view",
      "type": "function",
      "constant": true
    },
    {
      "inputs": [],
      "name": "totalSupply",
      "outputs": [
        {
          "internalType": "uint256",
          "name": "",
          "type": "uint256"
        }
      ],
      "stateMutability": "view",
      "type": "function",
      "constant": true
    },
    {
      "inputs": [
        {
          "internalType": "address",
          "name": "from",
          "type": "address"
        },
        {
          "internalType": "address",
          "name": "to",
          "type": "address"
        },
        {
          "internalType": "uint256",
          "name": "tokenId",
          "type": "uint256"
        }
      ],
      "name": "transferFrom",
      "outputs": [],
      "stateMutability": "nonpayable",
      "type": "function"
    },
    {
      "inputs": [
        {
          "internalType": "address",
          "name": "newOwner",
          "type": "address"
        }
      ],
      "name": "transferOwnership",
      "outputs": [],
      "stateMutability": "nonpayable",
      "type": "function"
    },
    {
      "inputs": [
        {
          "internalType": "address",
          "name": "to",
          "type": "address"
        }
      ],
      "name": "safeMint",
      "outputs": [],
      "stateMutability": "nonpayable",
      "type": "function"
    },
    {
      "inputs": [
        {
          "internalType": "address",
          "name": "to",
          "type": "address"
        },
        {
          "internalType": "string",
          "name": "ipfsCID",
          "type": "string"
        }
      ],
      "name": "safeMintWithMetadata",
      "outputs": [],
      "stateMutability": "nonpayable",
      "type": "function"
    },
    {
      "inputs": [
        {
          "internalType": "uint256",
          "name": "tokenId",
          "type": "uint256"
        }
      ],
      "name": "tokenURI",
      "outputs": [
        {
          "internalType": "string",
          "name": "",
          "type": "string"
        }
      ],
      "stateMutability": "view",
      "type": "function",
      "constant": true
    },
    {
      "inputs": [
        {
          "internalType": "uint256",
          "name": "tokenId",
          "type": "uint256"
        },
        {
          "internalType": "string",
          "name": "ipfsCID",
          "type": "string"
        }
      ],
      "name": "setTokenURI",
      "outputs": [],
      "stateMutability": "nonpayable",
      "type": "function"
    },
    {
      "inputs": [
        {
          "internalType": "address",
          "name": "_owner",
          "type": "address"
        },
        {
          "internalType": "address",
          "name": "_operator",
          "type": "address"
        }
      ],
      "name": "isApprovedForAll",
      "outputs": [
        {
          "internalType": "bool",
          "name": "isOperator",
          "type": "bool"
        }
      ],
      "stateMutability": "view",
      "type": "function",
      "constant": true
    },
    {
      "inputs": [
        {
          "internalType": "bytes4",
          "name": "interfaceId",
          "type": "bytes4"
        }
      ],
      "name": "supportsInterface",
      "outputs": [
        {
          "internalType": "bool",
          "name": "",
          "type": "bool"
        }
      ],
      "stateMutability": "view",
      "type": "function",
      "constant": true
    }
  ],
  "bytecode": "0x60806040523480156200001157600080fd5b5060405162004348380380620043488339818101604052810190620000379190620003ed565b6040518060400160405280600681526020017f534c4d4e465400000000000000000000000000000000000000000000000000008152506040518060400160405280600381526020017f534c4d00000000000000000000000000000000000000000000000000000000008152508160009080519060200190620000bb929190620002d3565b508060019080519060200190620000d4929190620002d3565b505050620000f7620000eb6200013f60201b60201c565b6200015b60201b60201c565b80600d60006101000a81548173ffffffffffffffffffffffffffffffffffffffff021916908373ffffffffffffffffffffffffffffffffffffffff1602179055505062000483565b6000620001566200022160201b62000f671760201c565b905090565b6000600b60009054906101000a900473ffffffffffffffffffffffffffffffffffffffff16905081600b60006101000a81548173ffffffffffffffffffffffffffffffffffffffff021916908373ffffffffffffffffffffffffffffffffffffffff1602179055508173ffffffffffffffffffffffffffffffffffffffff168173ffffffffffffffffffffffffffffffffffffffff167f8be0079c531659141344cd1fd0a4f28419497f9722a3daafe3b4186f6b6457e060405160405180910390a35050565b60003073ffffffffffffffffffffffffffffffffffffffff163373ffffffffffffffffffffffffffffffffffffffff1603620002cc57600080368080601f016020809104026020016040519081016040528093929190818152602001838380828437600081840152601f19601f820116905080830192505050505050509050600080369050905073ffffffffffffffffffffffffffffffffffffffff818301511692505050620002d0565b3390505b90565b828054620002e1906200044e565b90600052602060002090601f01602090048101928262000305576000855562000351565b82601f106200032057805160ff191683800117855562000351565b8280016001018555821562000351579182015b828111156200035057825182559160200191906001019062000333565b5b50905062000360919062000364565b5090565b5b808211156200037f57600081600090555060010162000365565b5090565b600080fd5b600073ffffffffffffffffffffffffffffffffffffffff82169050919050565b6000620003b58262000388565b9050919050565b620003c781620003a8565b8114620003d357600080fd5b50565b600081519050620003e781620003bc565b92915050565b60006020828403121562000406576200040562000383565b5b60006200041684828501620003d6565b91505092915050565b7f4e487b7100000000000000000000000000000000000000000000000000000000600052602260045260246000fd5b600060028204905060018216806200046757607f821691505b6020821081036200047d576200047c6200041f565b5b50919050565b613eb580620004936000396000f3fe608060405234801561001057600080fd5b506004361061014d5760003560e01c80634f6ccce7116100c357806395d89b411161007c57806395d89b411461039a578063a22cb465146103b8578063b88d4fde146103d4578063c87b56dd146103f0578063e985e9c514610420578063f2fde38b146104505761014d565b80634f6ccce7146102c657806352640e68146102f65780636352211e1461031257806370a0823114610342578063715018a6146103725780638da5cb5b1461037c5761014d565b806318160ddd1161011557806318160ddd1461020857806323b872dd146102265780632f745c591461024257806340d097c31461027257806342842e0e1461028e57806342966c68146102aa5761014d565b806301ffc9a71461015257806306fdde0314610182578063081812fc146101a0578063095ea7b3146101d0578063162094c4146101ec575b600080fd5b61016c600480360381019061016791906128da565b61046c565b6040516101799190612922565b60405180910390f35b61018a61047e565b60405161019791906129d6565b60405180910390f35b6101ba60048036038101906101b59190612a2e565b610510565b6040516101c79190612a9c565b60405180910390f35b6101ea60048036038101906101e59190612ae3565b610595565b005b61020660048036038101906102019190612c58565b6106ac565b005b610210610714565b60405161021d9190612cc3565b60405180910390f35b610240600480360381019061023b9190612cde565b610721565b005b61025c60048036038101906102579190612ae3565b610781565b6040516102699190612cc3565b60405180910390f35b61028c60048036038101906102879190612d31565b610826565b005b6102a860048036038101906102a39190612cde565b6108c8565b005b6102c460048036038101906102bf9190612a2e565b6108e8565b005b6102e060048036038101906102db9190612a2e565b610944565b6040516102ed9190612cc3565b60405180910390f35b610310600480360381019061030b9190612d5e565b6109b5565b005b61032c60048036038101906103279190612a2e565b610a62565b6040516103399190612a9c565b60405180910390f35b61035c60048036038101906103579190612d31565b610b13565b6040516103699190612cc3565b60405180910390f35b61037a610bca565b005b610384610c52565b6040516103919190612a9c565b60405180910390f35b6103a2610c7c565b6040516103af91906129d6565b60405180910390f35b6103d260048036038101906103cd9190612de6565b610d0e565b005b6103ee60048036038101906103e99190612ec7565b610d24565b005b61040a60048036038101906104059190612a2e565b610d86565b60405161041791906129d6565b60405180910390f35b61043a60048036038101906104359190612f4a565b610e0b565b6040516104479190612922565b60405180910390f35b61046a60048036038101906104659190612d31565b610e70565b005b600061047782611017565b9050919050565b60606000805461048d90612fb9565b80601f01602080910402602001604051908101604052809291908181526020018280546104b990612fb9565b80156105065780601f106104db57610100808354040283529160200191610506565b820191906000526020600020905b8154815290600101906020018083116104e957829003601f168201915b5050505050905090565b600061051b82611091565b61055a576040517f08c379a00000000000000000000000000000000000000000000000000000000081526004016105519061305c565b60405180910390fd5b6004600083815260200190815260200160002060009054906101000a900473ffffffffffffffffffffffffffffffffffffffff169050919050565b60006105a082610a62565b90508073ffffffffffffffffffffffffffffffffffffffff168373ffffffffffffffffffffffffffffffffffffffff1603610610576040517f08c379a0000000000000000000000000000000000000000000000000000000008152600401610607906130ee565b60405180910390fd5b8073ffffffffffffffffffffffffffffffffffffffff1661062f6110fd565b73ffffffffffffffffffffffffffffffffffffffff16148061065e575061065d816106586110fd565b610e0b565b5b61069d576040517f08c379a000000000000000000000000000000000000000000000000000000000815260040161069490613180565b60405180910390fd5b6106a7838361110c565b505050565b600d60009054906101000a900473ffffffffffffffffffffffffffffffffffffffff1673ffffffffffffffffffffffffffffffffffffffff163373ffffffffffffffffffffffffffffffffffffffff161461070657600080fd5b61071082826111c5565b5050565b6000600880549050905090565b61073261072c6110fd565b82611239565b610771576040517f08c379a000000000000000000000000000000000000000000000000000000000815260040161076890613212565b60405180910390fd5b61077c838383611317565b505050565b600061078c83610b13565b82106107cd576040517f08c379a00000000000000000000000000000000000000000000000000000000081526004016107c4906132a4565b60405180910390fd5b600660008473ffffffffffffffffffffffffffffffffffffffff1673ffffffffffffffffffffffffffffffffffffffff168152602001908152602001600020600083815260200190815260200160002054905092915050565b61082e6110fd565b73ffffffffffffffffffffffffffffffffffffffff1661084c610c52565b73ffffffffffffffffffffffffffffffffffffffff16146108a2576040517f08c379a000000000000000000000000000000000000000000000000000000000815260040161089990613310565b60405180910390fd5b60006108ae600c61157d565b90506108ba600c61158b565b6108c482826115a1565b5050565b6108e383838360405180602001604052806000815250610d24565b505050565b6108f96108f36110fd565b82611239565b610938576040517f08c379a000000000000000000000000000000000000000000000000000000000815260040161092f906133a2565b60405180910390fd5b610941816115bf565b50565b600061094e610714565b821061098f576040517f08c379a000000000000000000000000000000000000000000000000000000000815260040161098690613434565b60405180910390fd5b600882815481106109a3576109a2613454565b5b90600052602060002001549050919050565b6109bd6110fd565b73ffffffffffffffffffffffffffffffffffffffff166109db610c52565b73ffffffffffffffffffffffffffffffffffffffff1614610a31576040517f08c379a0000000000000000000000000000000000000000000000000000000008152600401610a2890613310565b60405180910390fd5b6000610a3d600c61157d565b9050610a49600c61158b565b610a5383826115a1565b610a5d81836111c5565b505050565b6000806002600084815260200190815260200160002060009054906101000a900473ffffffffffffffffffffffffffffffffffffffff169050600073ffffffffffffffffffffffffffffffffffffffff168173ffffffffffffffffffffffffffffffffffffffff1603610b0a576040517f08c379a0000000000000000000000000000000000000000000000000000000008152600401610b01906134f5565b60405180910390fd5b80915050919050565b60008073ffffffffffffffffffffffffffffffffffffffff168273ffffffffffffffffffffffffffffffffffffffff1603610b83576040517f08c379a0000000000000000000000000000000000000000000000000000000008152600401610b7a90613587565b60405180910390fd5b600360008373ffffffffffffffffffffffffffffffffffffffff1673ffffffffffffffffffffffffffffffffffffffff168152602001908152602001600020549050919050565b610bd26110fd565b73ffffffffffffffffffffffffffffffffffffffff16610bf0610c52565b73ffffffffffffffffffffffffffffffffffffffff1614610c46576040517f08c379a0000000000000000000000000000000000000000000000000000000008152600401610c3d90613310565b60405180910390fd5b610c5060006115cb565b565b6000600b60009054906101000a900473ffffffffffffffffffffffffffffffffffffffff16905090565b606060018054610c8b90612fb9565b80601f0160208091040260200160405190810160405280929190818152602001828054610cb790612fb9565b8015610d045780601f10610cd957610100808354040283529160200191610d04565b820191906000526020600020905b815481529060010190602001808311610ce757829003601f168201915b5050505050905090565b610d20610d196110fd565b8383611691565b5050565b610d35610d2f6110fd565b83611239565b610d74576040517f08c379a0000000000000000000000000000000000000000000000000000000008152600401610d6b90613212565b60405180910390fd5b610d80848484846117fd565b50505050565b6060610d9182611091565b610d9a57600080fd5b6000600a60008481526020019081526020016000208054610dba90612fb9565b90501115610dd257610dcb82611859565b9050610e06565b610dda6119aa565b610de3836119e7565b604051602001610df49291906135e3565b60405160208183030381529060405290505b919050565b60007358807bad0b376efc12f5ad86aac70e78ed67deae73ffffffffffffffffffffffffffffffffffffffff168273ffffffffffffffffffffffffffffffffffffffff1603610e5d5760019050610e6a565b610e678383611b47565b90505b92915050565b610e786110fd565b73ffffffffffffffffffffffffffffffffffffffff16610e96610c52565b73ffffffffffffffffffffffffffffffffffffffff1614610eec576040517f08c379a0000000000000000000000000000000000000000000000000000000008152600401610ee390613310565b60405180910390fd5b600073ffffffffffffffffffffffffffffffffffffffff168173ffffffffffffffffffffffffffffffffffffffff1603610f5b576040517f08c379a0000000000000000000000000000000000000000000000000000000008152600401610f5290613679565b60405180910390fd5b610f64816115cb565b50565b60003073ffffffffffffffffffffffffffffffffffffffff163373ffffffffffffffffffffffffffffffffffffffff160361101057600080368080601f016020809104026020016040519081016040528093929190818152602001838380828437600081840152601f19601f820116905080830192505050505050509050600080369050905073ffffffffffffffffffffffffffffffffffffffff818301511692505050611014565b3390505b90565b60007f780e9d63000000000000000000000000000000000000000000000000000000007bffffffffffffffffffffffffffffffffffffffffffffffffffffffff1916827bffffffffffffffffffffffffffffffffffffffffffffffffffffffff1916148061108a575061108982611bdb565b5b9050919050565b60008073ffffffffffffffffffffffffffffffffffffffff166002600084815260200190815260200160002060009054906101000a900473ffffffffffffffffffffffffffffffffffffffff1673ffffffffffffffffffffffffffffffffffffffff1614159050919050565b6000611107610f67565b905090565b816004600083815260200190815260200160002060006101000a81548173ffffffffffffffffffffffffffffffffffffffff021916908373ffffffffffffffffffffffffffffffffffffffff160217905550808273ffffffffffffffffffffffffffffffffffffffff1661117f83610a62565b73ffffffffffffffffffffffffffffffffffffffff167f8c5be1e5ebec7d5bd14f71427d1e84f3dd0314c0f7b2291e5b200ac8c7c3b92560405160405180910390a45050565b6111ce82611091565b61120d576040517f08c379a00000000000000000000000000000000000000000000000000000000081526004016112049061370b565b60405180910390fd5b80600a6000848152602001908152602001600020908051906020019061123492919061278b565b505050565b600061124482611091565b611283576040517f08c379a000000000000000000000000000000000000000000000000000000000815260040161127a9061379d565b60405180910390fd5b600061128e83610a62565b90508073ffffffffffffffffffffffffffffffffffffffff168473ffffffffffffffffffffffffffffffffffffffff1614806112d057506112cf8185610e0b565b5b8061130e57508373ffffffffffffffffffffffffffffffffffffffff166112f684610510565b73ffffffffffffffffffffffffffffffffffffffff16145b91505092915050565b8273ffffffffffffffffffffffffffffffffffffffff1661133782610a62565b73ffffffffffffffffffffffffffffffffffffffff161461138d576040517f08c379a00000000000000000000000000000000000000000000000000000000081526004016113849061382f565b60405180910390fd5b600073ffffffffffffffffffffffffffffffffffffffff168273ffffffffffffffffffffffffffffffffffffffff16036113fc576040517f08c379a00000000000000000000000000000000000000000000000000000000081526004016113f3906138c1565b60405180910390fd5b611407838383611cbd565b61141260008261110c565b6001600360008573ffffffffffffffffffffffffffffffffffffffff1673ffffffffffffffffffffffffffffffffffffffff16815260200190815260200160002060008282546114629190613910565b925050819055506001600360008473ffffffffffffffffffffffffffffffffffffffff1673ffffffffffffffffffffffffffffffffffffffff16815260200190815260200160002060008282546114b99190613944565b92505081905550816002600083815260200190815260200160002060006101000a81548173ffffffffffffffffffffffffffffffffffffffff021916908373ffffffffffffffffffffffffffffffffffffffff160217905550808273ffffffffffffffffffffffffffffffffffffffff168473ffffffffffffffffffffffffffffffffffffffff167fddf252ad1be2c89b69c2b068fc378daa952ba7f163c4a11628f55a4df523b3ef60405160405180910390a4611578838383611ccd565b505050565b600081600001549050919050565b6001816000016000828254019250508190555050565b6115bb828260405180602001604052806000815250611cd2565b5050565b6115c881611d2d565b50565b6000600b60009054906101000a900473ffffffffffffffffffffffffffffffffffffffff16905081600b60006101000a81548173ffffffffffffffffffffffffffffffffffffffff021916908373ffffffffffffffffffffffffffffffffffffffff1602179055508173ffffffffffffffffffffffffffffffffffffffff168173ffffffffffffffffffffffffffffffffffffffff167f8be0079c531659141344cd1fd0a4f28419497f9722a3daafe3b4186f6b6457e060405160405180910390a35050565b8173ffffffffffffffffffffffffffffffffffffffff168373ffffffffffffffffffffffffffffffffffffffff16036116ff576040517f08c379a00000000000000000000000000000000000000000000000000000000081526004016116f6906139e6565b60405180910390fd5b80600560008573ffffffffffffffffffffffffffffffffffffffff1673ffffffffffffffffffffffffffffffffffffffff16815260200190815260200160002060008473ffffffffffffffffffffffffffffffffffffffff1673ffffffffffffffffffffffffffffffffffffffff16815260200190815260200160002060006101000a81548160ff0219169083151502179055508173ffffffffffffffffffffffffffffffffffffffff168373ffffffffffffffffffffffffffffffffffffffff167f17307eab39ab6107e8899845ad3d59bd9653f200f220920489ca2b5937696c31836040516117f09190612922565b60405180910390a3505050565b611808848484611317565b61181484848484611d80565b611853576040517f08c379a000000000000000000000000000000000000000000000000000000000815260040161184a90613a78565b60405180910390fd5b50505050565b606061186482611091565b6118a3576040517f08c379a000000000000000000000000000000000000000000000000000000000815260040161189a90613b0a565b60405180910390fd5b6000600a600084815260200190815260200160002080546118c390612fb9565b80601f01602080910402602001604051908101604052809291908181526020018280546118ef90612fb9565b801561193c5780601f106119115761010080835404028352916020019161193c565b820191906000526020600020905b81548152906001019060200180831161191f57829003601f168201915b50505050509050600061194d611f07565b905060008151036119625781925050506119a5565b60008251111561199757808260405160200161197f9291906135e3565b604051602081830303815290604052925050506119a5565b6119a084611f44565b925050505b919050565b60606040518060400160405280601a81526020017f687474703a2f2f36352e3130382e3231322e3137302f736c6d2f000000000000815250905090565b606060008203611a2e576040518060400160405280600181526020017f30000000000000000000000000000000000000000000000000000000000000008152509050611b42565b600082905060005b60008214611a60578080611a4990613b2a565b915050600a82611a599190613ba1565b9150611a36565b60008167ffffffffffffffff811115611a7c57611a7b612b2d565b5b6040519080825280601f01601f191660200182016040528015611aae5781602001600182028036833780820191505090505b5090505b60008514611b3b57600182611ac79190613910565b9150600a85611ad69190613bd2565b6030611ae29190613944565b60f81b818381518110611af857611af7613454565b5b60200101907effffffffffffffffffffffffffffffffffffffffffffffffffffffffffffff1916908160001a905350600a85611b349190613ba1565b9450611ab2565b8093505050505b919050565b6000600560008473ffffffffffffffffffffffffffffffffffffffff1673ffffffffffffffffffffffffffffffffffffffff16815260200190815260200160002060008373ffffffffffffffffffffffffffffffffffffffff1673ffffffffffffffffffffffffffffffffffffffff16815260200190815260200160002060009054906101000a900460ff16905092915050565b60007f80ac58cd000000000000000000000000000000000000000000000000000000007bffffffffffffffffffffffffffffffffffffffffffffffffffffffff1916827bffffffffffffffffffffffffffffffffffffffffffffffffffffffff19161480611ca657507f5b5e139f000000000000000000000000000000000000000000000000000000007bffffffffffffffffffffffffffffffffffffffffffffffffffffffff1916827bffffffffffffffffffffffffffffffffffffffffffffffffffffffff1916145b80611cb65750611cb582611feb565b5b9050919050565b611cc8838383612055565b505050565b505050565b611cdc8383612167565b611ce96000848484611d80565b611d28576040517f08c379a0000000000000000000000000000000000000000000000000000000008152600401611d1f90613a78565b60405180910390fd5b505050565b611d3681612340565b6000600a60008381526020019081526020016000208054611d5690612fb9565b905014611d7d57600a60008281526020019081526020016000206000611d7c9190612811565b5b50565b6000611da18473ffffffffffffffffffffffffffffffffffffffff1661245d565b15611efa578373ffffffffffffffffffffffffffffffffffffffff1663150b7a02611dca6110fd565b8786866040518563ffffffff1660e01b8152600401611dec9493929190613c58565b6020604051808303816000875af1925050508015611e2857506040513d601f19601f82011682018060405250810190611e259190613cb9565b60015b611eaa573d8060008114611e58576040519150601f19603f3d011682016040523d82523d6000602084013e611e5d565b606091505b506000815103611ea2576040517f08c379a0000000000000000000000000000000000000000000000000000000008152600401611e9990613a78565b60405180910390fd5b805181602001fd5b63150b7a0260e01b7bffffffffffffffffffffffffffffffffffffffffffffffffffffffff1916817bffffffffffffffffffffffffffffffffffffffffffffffffffffffff191614915050611eff565b600190505b949350505050565b60606040518060400160405280600781526020017f697066733a2f2f00000000000000000000000000000000000000000000000000815250905090565b6060611f4f82611091565b611f8e576040517f08c379a0000000000000000000000000000000000000000000000000000000008152600401611f8590613d58565b60405180910390fd5b6000611f98611f07565b90506000815111611fb85760405180602001604052806000815250611fe3565b80611fc2846119e7565b604051602001611fd39291906135e3565b6040516020818303038152906040525b915050919050565b60007f01ffc9a7000000000000000000000000000000000000000000000000000000007bffffffffffffffffffffffffffffffffffffffffffffffffffffffff1916827bffffffffffffffffffffffffffffffffffffffffffffffffffffffff1916149050919050565b612060838383612480565b600073ffffffffffffffffffffffffffffffffffffffff168373ffffffffffffffffffffffffffffffffffffffff16036120a25761209d81612485565b6120e1565b8173ffffffffffffffffffffffffffffffffffffffff168373ffffffffffffffffffffffffffffffffffffffff16146120e0576120df83826124ce565b5b5b600073ffffffffffffffffffffffffffffffffffffffff168273ffffffffffffffffffffffffffffffffffffffff16036121235761211e8161263b565b612162565b8273ffffffffffffffffffffffffffffffffffffffff168273ffffffffffffffffffffffffffffffffffffffff161461216157612160828261270c565b5b5b505050565b600073ffffffffffffffffffffffffffffffffffffffff168273ffffffffffffffffffffffffffffffffffffffff16036121d6576040517f08c379a00000000000000000000000000000000000000000000000000000000081526004016121cd90613dc4565b60405180910390fd5b6121df81611091565b1561221f576040517f08c379a000000000000000000000000000000000000000000000000000000000815260040161221690613e30565b60405180910390fd5b61222b60008383611cbd565b6001600360008473ffffffffffffffffffffffffffffffffffffffff1673ffffffffffffffffffffffffffffffffffffffff168152602001908152602001600020600082825461227b9190613944565b92505081905550816002600083815260200190815260200160002060006101000a81548173ffffffffffffffffffffffffffffffffffffffff021916908373ffffffffffffffffffffffffffffffffffffffff160217905550808273ffffffffffffffffffffffffffffffffffffffff16600073ffffffffffffffffffffffffffffffffffffffff167fddf252ad1be2c89b69c2b068fc378daa952ba7f163c4a11628f55a4df523b3ef60405160405180910390a461233c60008383611ccd565b5050565b600061234b82610a62565b905061235981600084611cbd565b61236460008361110c565b6001600360008373ffffffffffffffffffffffffffffffffffffffff1673ffffffffffffffffffffffffffffffffffffffff16815260200190815260200160002060008282546123b49190613910565b925050819055506002600083815260200190815260200160002060006101000a81549073ffffffffffffffffffffffffffffffffffffffff021916905581600073ffffffffffffffffffffffffffffffffffffffff168273ffffffffffffffffffffffffffffffffffffffff167fddf252ad1be2c89b69c2b068fc378daa952ba7f163c4a11628f55a4df523b3ef60405160405180910390a461245981600084611ccd565b5050565b6000808273ffffffffffffffffffffffffffffffffffffffff163b119050919050565b505050565b6008805490506009600083815260200190815260200160002081905550600881908060018154018082558091505060019003906000526020600020016000909190919091505550565b600060016124db84610b13565b6124e59190613910565b90506000600760008481526020019081526020016000205490508181146125ca576000600660008673ffffffffffffffffffffffffffffffffffffffff1673ffffffffffffffffffffffffffffffffffffffff168152602001908152602001600020600084815260200190815260200160002054905080600660008773ffffffffffffffffffffffffffffffffffffffff1673ffffffffffffffffffffffffffffffffffffffff168152602001908152602001600020600084815260200190815260200160002081905550816007600083815260200190815260200160002081905550505b6007600084815260200190815260200160002060009055600660008573ffffffffffffffffffffffffffffffffffffffff1673ffffffffffffffffffffffffffffffffffffffff16815260200190815260200160002060008381526020019081526020016000206000905550505050565b6000600160088054905061264f9190613910565b905060006009600084815260200190815260200160002054905060006008838154811061267f5761267e613454565b5b9060005260206000200154905080600883815481106126a1576126a0613454565b5b9060005260206000200181905550816009600083815260200190815260200160002081905550600960008581526020019081526020016000206000905560088054806126f0576126ef613e50565b5b6001900381819060005260206000200160009055905550505050565b600061271783610b13565b905081600660008573ffffffffffffffffffffffffffffffffffffffff1673ffffffffffffffffffffffffffffffffffffffff168152602001908152602001600020600083815260200190815260200160002081905550806007600084815260200190815260200160002081905550505050565b82805461279790612fb9565b90600052602060002090601f0160209004810192826127b95760008555612800565b82601f106127d257805160ff1916838001178555612800565b82800160010185558215612800579182015b828111156127ff5782518255916020019190600101906127e4565b5b50905061280d9190612851565b5090565b50805461281d90612fb9565b6000825580601f1061282f575061284e565b601f01602090049060005260206000209081019061284d9190612851565b5b50565b5b8082111561286a576000816000905550600101612852565b5090565b6000604051905090565b600080fd5b600080fd5b60007fffffffff0000000000000000000000000000000000000000000000000000000082169050919050565b6128b781612882565b81146128c257600080fd5b50565b6000813590506128d4816128ae565b92915050565b6000602082840312156128f0576128ef612878565b5b60006128fe848285016128c5565b91505092915050565b60008115159050919050565b61291c81612907565b82525050565b60006020820190506129376000830184612913565b92915050565b600081519050919050565b600082825260208201905092915050565b60005b8381101561297757808201518184015260208101905061295c565b83811115612986576000848401525b50505050565b6000601f19601f8301169050919050565b60006129a88261293d565b6129b28185612948565b93506129c2818560208601612959565b6129cb8161298c565b840191505092915050565b600060208201905081810360008301526129f0818461299d565b905092915050565b6000819050919050565b612a0b816129f8565b8114612a1657600080fd5b50565b600081359050612a2881612a02565b92915050565b600060208284031215612a4457612a43612878565b5b6000612a5284828501612a19565b91505092915050565b600073ffffffffffffffffffffffffffffffffffffffff82169050919050565b6000612a8682612a5b565b9050919050565b612a9681612a7b565b82525050565b6000602082019050612ab16000830184612a8d565b92915050565b612ac081612a7b565b8114612acb57600080fd5b50565b600081359050612add81612ab7565b92915050565b60008060408385031215612afa57612af9612878565b5b6000612b0885828601612ace565b9250506020612b1985828601612a19565b9150509250929050565b600080fd5b600080fd5b7f4e487b7100000000000000000000000000000000000000000000000000000000600052604160045260246000fd5b612b658261298c565b810181811067ffffffffffffffff82111715612b8457612b83612b2d565b5b80604052505050565b6000612b9761286e565b9050612ba38282612b5c565b919050565b600067ffffffffffffffff821115612bc357612bc2612b2d565b5b612bcc8261298c565b9050602081019050919050565b82818337600083830152505050565b6000612bfb612bf684612ba8565b612b8d565b905082815260208101848484011115612c1757612c16612b28565b5b612c22848285612bd9565b509392505050565b600082601f830112612c3f57612c3e612b23565b5b8135612c4f848260208601612be8565b91505092915050565b60008060408385031215612c6f57612c6e612878565b5b6000612c7d85828601612a19565b925050602083013567ffffffffffffffff811115612c9e57612c9d61287d565b5b612caa85828601612c2a565b9150509250929050565b612cbd816129f8565b82525050565b6000602082019050612cd86000830184612cb4565b92915050565b600080600060608486031215612cf757612cf6612878565b5b6000612d0586828701612ace565b9350506020612d1686828701612ace565b9250506040612d2786828701612a19565b9150509250925092565b600060208284031215612d4757612d46612878565b5b6000612d5584828501612ace565b91505092915050565b60008060408385031215612d7557612d74612878565b5b6000612d8385828601612ace565b925050602083013567ffffffffffffffff811115612da457612da361287d565b5b612db085828601612c2a565b9150509250929050565b612dc381612907565b8114612dce57600080fd5b50565b600081359050612de081612dba565b92915050565b60008060408385031215612dfd57612dfc612878565b5b6000612e0b85828601612ace565b9250506020612e1c85828601612dd1565b9150509250929050565b600067ffffffffffffffff821115612e4157612e40612b2d565b5b612e4a8261298c565b9050602081019050919050565b6000612e6a612e6584612e26565b612b8d565b905082815260208101848484011115612e8657612e85612b28565b5b612e91848285612bd9565b509392505050565b600082601f830112612eae57612ead612b23565b5b8135612ebe848260208601612e57565b91505092915050565b60008060008060808587031215612ee157612ee0612878565b5b6000612eef87828801612ace565b9450506020612f0087828801612ace565b9350506040612f1187828801612a19565b925050606085013567ffffffffffffffff811115612f3257612f3161287d565b5b612f3e87828801612e99565b91505092959194509250565b60008060408385031215612f6157612f60612878565b5b6000612f6f85828601612ace565b9250506020612f8085828601612ace565b9150509250929050565b7f4e487b7100000000000000000000000000000000000000000000000000000000600052602260045260246000fd5b60006002820490506001821680612fd157607f821691505b602082108103612fe457612fe3612f8a565b5b50919050565b7f4552433732313a20617070726f76656420717565727920666f72206e6f6e657860008201527f697374656e7420746f6b656e0000000000000000000000000000000000000000602082015250565b6000613046602c83612948565b915061305182612fea565b604082019050919050565b6000602082019050818103600083015261307581613039565b9050919050565b7f4552433732313a20617070726f76616c20746f2063757272656e74206f776e6560008201527f7200000000000000000000000000000000000000000000000000000000000000602082015250565b60006130d8602183612948565b91506130e38261307c565b604082019050919050565b60006020820190508181036000830152613107816130cb565b9050919050565b7f4552433732313a20617070726f76652063616c6c6572206973206e6f74206f7760008201527f6e6572206e6f7220617070726f76656420666f7220616c6c0000000000000000602082015250565b600061316a603883612948565b91506131758261310e565b604082019050919050565b600060208201905081810360008301526131998161315d565b9050919050565b7f4552433732313a207472616e736665722063616c6c6572206973206e6f74206f60008201527f776e6572206e6f7220617070726f766564000000000000000000000000000000602082015250565b60006131fc603183612948565b9150613207826131a0565b604082019050919050565b6000602082019050818103600083015261322b816131ef565b9050919050565b7f455243373231456e756d657261626c653a206f776e657220696e646578206f7560008201527f74206f6620626f756e6473000000000000000000000000000000000000000000602082015250565b600061328e602b83612948565b915061329982613232565b604082019050919050565b600060208201905081810360008301526132bd81613281565b9050919050565b7f4f776e61626c653a2063616c6c6572206973206e6f7420746865206f776e6572600082015250565b60006132fa602083612948565b9150613305826132c4565b602082019050919050565b60006020820190508181036000830152613329816132ed565b9050919050565b7f4552433732314275726e61626c653a2063616c6c6572206973206e6f74206f7760008201527f6e6572206e6f7220617070726f76656400000000000000000000000000000000602082015250565b600061338c603083612948565b915061339782613330565b604082019050919050565b600060208201905081810360008301526133bb8161337f565b9050919050565b7f455243373231456e756d657261626c653a20676c6f62616c20696e646578206f60008201527f7574206f6620626f756e64730000000000000000000000000000000000000000602082015250565b600061341e602c83612948565b9150613429826133c2565b604082019050919050565b6000602082019050818103600083015261344d81613411565b9050919050565b7f4e487b7100000000000000000000000000000000000000000000000000000000600052603260045260246000fd5b7f4552433732313a206f776e657220717565727920666f72206e6f6e657869737460008201527f656e7420746f6b656e0000000000000000000000000000000000000000000000602082015250565b60006134df602983612948565b91506134ea82613483565b604082019050919050565b6000602082019050818103600083015261350e816134d2565b9050919050565b7f4552433732313a2062616c616e636520717565727920666f7220746865207a6560008201527f726f206164647265737300000000000000000000000000000000000000000000602082015250565b6000613571602a83612948565b915061357c82613515565b604082019050919050565b600060208201905081810360008301526135a081613564565b9050919050565b600081905092915050565b60006135bd8261293d565b6135c781856135a7565b93506135d7818560208601612959565b80840191505092915050565b60006135ef82856135b2565b91506135fb82846135b2565b91508190509392505050565b7f4f776e61626c653a206e6577206f776e657220697320746865207a65726f206160008201527f6464726573730000000000000000000000000000000000000000000000000000602082015250565b6000613663602683612948565b915061366e82613607565b604082019050919050565b6000602082019050818103600083015261369281613656565b9050919050565b7f45524337323155524953746f726167653a2055524920736574206f66206e6f6e60008201527f6578697374656e7420746f6b656e000000000000000000000000000000000000602082015250565b60006136f5602e83612948565b915061370082613699565b604082019050919050565b60006020820190508181036000830152613724816136e8565b9050919050565b7f4552433732313a206f70657261746f7220717565727920666f72206e6f6e657860008201527f697374656e7420746f6b656e0000000000000000000000000000000000000000602082015250565b6000613787602c83612948565b91506137928261372b565b604082019050919050565b600060208201905081810360008301526137b68161377a565b9050919050565b7f4552433732313a207472616e736665722066726f6d20696e636f72726563742060008201527f6f776e6572000000000000000000000000000000000000000000000000000000602082015250565b6000613819602583612948565b9150613824826137bd565b604082019050919050565b600060208201905081810360008301526138488161380c565b9050919050565b7f4552433732313a207472616e7366657220746f20746865207a65726f2061646460008201527f7265737300000000000000000000000000000000000000000000000000000000602082015250565b60006138ab602483612948565b91506138b68261384f565b604082019050919050565b600060208201905081810360008301526138da8161389e565b9050919050565b7f4e487b7100000000000000000000000000000000000000000000000000000000600052601160045260246000fd5b600061391b826129f8565b9150613926836129f8565b925082821015613939576139386138e1565b5b828203905092915050565b600061394f826129f8565b915061395a836129f8565b9250827fffffffffffffffffffffffffffffffffffffffffffffffffffffffffffffffff0382111561398f5761398e6138e1565b5b828201905092915050565b7f4552433732313a20617070726f766520746f2063616c6c657200000000000000600082015250565b60006139d0601983612948565b91506139db8261399a565b602082019050919050565b600060208201905081810360008301526139ff816139c3565b9050919050565b7f4552433732313a207472616e7366657220746f206e6f6e20455243373231526560008201527f63656976657220696d706c656d656e7465720000000000000000000000000000602082015250565b6000613a62603283612948565b9150613a6d82613a06565b604082019050919050565b60006020820190508181036000830152613a9181613a55565b9050919050565b7f45524337323155524953746f726167653a2055524920717565727920666f722060008201527f6e6f6e6578697374656e7420746f6b656e000000000000000000000000000000602082015250565b6000613af4603183612948565b9150613aff82613a98565b604082019050919050565b60006020820190508181036000830152613b2381613ae7565b9050919050565b6000613b35826129f8565b91507fffffffffffffffffffffffffffffffffffffffffffffffffffffffffffffffff8203613b6757613b666138e1565b5b600182019050919050565b7f4e487b7100000000000000000000000000000000000000000000000000000000600052601260045260246000fd5b6000613bac826129f8565b9150613bb7836129f8565b925082613bc757613bc6613b72565b5b828204905092915050565b6000613bdd826129f8565b9150613be8836129f8565b925082613bf857613bf7613b72565b5b828206905092915050565b600081519050919050565b600082825260208201905092915050565b6000613c2a82613c03565b613c348185613c0e565b9350613c44818560208601612959565b613c4d8161298c565b840191505092915050565b6000608082019050613c6d6000830187612a8d565b613c7a6020830186612a8d565b613c876040830185612cb4565b8181036060830152613c998184613c1f565b905095945050505050565b600081519050613cb3816128ae565b92915050565b600060208284031215613ccf57613cce612878565b5b6000613cdd84828501613ca4565b91505092915050565b7f4552433732314d657461646174613a2055524920717565727920666f72206e6f60008201527f6e6578697374656e7420746f6b656e0000000000000000000000000000000000602082015250565b6000613d42602f83612948565b9150613d4d82613ce6565b604082019050919050565b60006020820190508181036000830152613d7181613d35565b9050919050565b7f4552433732313a206d696e7420746f20746865207a65726f2061646472657373600082015250565b6000613dae602083612948565b9150613db982613d78565b602082019050919050565b60006020820190508181036000830152613ddd81613da1565b9050919050565b7f4552433732313a20746f6b656e20616c7265616479206d696e74656400000000600082015250565b6000613e1a601c83612948565b9150613e2582613de4565b602082019050919050565b60006020820190508181036000830152613e4981613e0d565b9050919050565b7f4e487b7100000000000000000000000000000000000000000000000000000000600052603160045260246000fdfea2646970667358221220f4a07ae299cb4b4cc12a402104f8f54a4d3034e1683fdb314e99ae54943e182064736f6c634300080d0033",
  "immutableReferences": {},
  "source": "// SPDX-License-Identifier: MIT\r\npragma solidity ^0.8.4;\r\n\r\nimport \"@openzeppelin/contracts/token/ERC721/ERC721.sol\";\r\nimport \"@openzeppelin/contracts/token/ERC721/extensions/ERC721Burnable.sol\";\r\nimport \"@openzeppelin/contracts/metatx/ERC2771Context.sol\";\r\nimport \"@openzeppelin/contracts/utils/Counters.sol\";\r\nimport \"@openzeppelin/contracts/access/Ownable.sol\";\r\nimport \"@openzeppelin/contracts/token/ERC721/extensions/ERC721Enumerable.sol\";\r\n\r\nimport \"./SLMToken.sol\";\r\n\r\n/**\r\n * https://github.com/maticnetwork/pos-portal/blob/master/contracts/common/ContextMixin.sol\r\n */\r\nabstract contract ContextMixin {\r\n    function msgSender() internal view returns (address payable sender) {\r\n        if (msg.sender == address(this)) {\r\n            bytes memory array = msg.data;\r\n            uint256 index = msg.data.length;\r\n            assembly {\r\n                // Load the 32 bytes word from memory with the address on the lower 20 bytes, and mask those.\r\n                sender := and(\r\n                    mload(add(array, index)),\r\n                    0xffffffffffffffffffffffffffffffffffffffff\r\n                )\r\n            }\r\n        } else {\r\n            sender = payable(msg.sender);\r\n        }\r\n        return sender;\r\n    }\r\n}\r\n\r\n/**\r\n * @dev ERC721 token with storage based token URI management.\r\n */\r\nabstract contract ERC721URIStorage is ERC721 {\r\n    using Strings for uint256;\r\n\r\n    // Optional mapping for token URIs\r\n    mapping(uint256 => string) internal _tokenURIs;\r\n\r\n    /**\r\n     * @dev See {IERC721Metadata-tokenURI}.\r\n     */\r\n    function tokenURI(uint256 tokenId) public view virtual override returns (string memory) {\r\n        require(_exists(tokenId), \"ERC721URIStorage: URI query for nonexistent token\");\r\n\r\n        string memory _tokenURI = _tokenURIs[tokenId];\r\n        string memory base = _baseURI();\r\n\r\n        // If there is no base URI, return the token URI.\r\n        if (bytes(base).length == 0) {\r\n            return _tokenURI;\r\n        }\r\n        // If both are set, concatenate the baseURI and tokenURI (via abi.encodePacked).\r\n        if (bytes(_tokenURI).length > 0) {\r\n            return string(abi.encodePacked(base, _tokenURI));\r\n        }\r\n\r\n        return super.tokenURI(tokenId);\r\n    }\r\n\r\n    /**\r\n     * @dev Sets `_tokenURI` as the tokenURI of `tokenId`.\r\n     *\r\n     * Requirements:\r\n     *\r\n     * - `tokenId` must exist.\r\n     */\r\n    function _setTokenURI(uint256 tokenId, string memory _tokenURI) internal virtual {\r\n        require(_exists(tokenId), \"ERC721URIStorage: URI set of nonexistent token\");\r\n        _tokenURIs[tokenId] = _tokenURI;\r\n    }\r\n\r\n    /**\r\n     * @dev Destroys `tokenId`.\r\n     * The approval is cleared when the token is burned.\r\n     *\r\n     * Requirements:\r\n     *\r\n     * - `tokenId` must exist.\r\n     *\r\n     * Emits a {Transfer} event.\r\n     */\r\n    function _burn(uint256 tokenId) internal virtual override {\r\n        super._burn(tokenId);\r\n\r\n        if (bytes(_tokenURIs[tokenId]).length != 0) {\r\n            delete _tokenURIs[tokenId];\r\n        }\r\n    }\r\n}\r\n\r\n\r\ncontract SLMNFT is ERC721Enumerable, ERC721URIStorage, ERC721Burnable, ContextMixin, Ownable {\r\n    using Counters for Counters.Counter;\r\n    using Strings for uint256;\r\n\r\n    Counters.Counter private _tokenIdCounter;\r\n    address private apiAddress;\r\n\r\n    constructor(address apiAddress_) ERC721(\"SLMNFT\", \"SLM\") {\r\n        apiAddress = apiAddress_;\r\n    }\r\n    \r\n    function _burn(uint256 tokenId) internal override(ERC721, ERC721URIStorage) {\r\n        super._burn(tokenId);\r\n    }\r\n\r\n    function safeMint(address to) public onlyOwner {\r\n        uint256 tokenId = _tokenIdCounter.current();\r\n\r\n        _tokenIdCounter.increment();\r\n        _safeMint(to, tokenId);\r\n    }\r\n\r\n    function safeMintWithMetadata(address to, string memory ipfsCID) public onlyOwner {\r\n        uint256 tokenId = _tokenIdCounter.current();\r\n\r\n        _tokenIdCounter.increment();\r\n        _safeMint(to, tokenId);\r\n        _setTokenURI(tokenId, ipfsCID);\r\n    }\r\n\r\n    function tokenURI(uint256 tokenId)\r\n        public\r\n        view\r\n        override(ERC721, ERC721URIStorage)\r\n        returns (string memory)\r\n    {\r\n        require(super._exists(tokenId));\r\n\r\n        if (bytes(_tokenURIs[tokenId]).length > 0){\r\n            return super.tokenURI(tokenId);\r\n        }\r\n\r\n        return string(abi.encodePacked(_httpBaseURI(), tokenId.toString()));\r\n    }\r\n\r\n    function _baseURI() internal view virtual override returns (string memory) {\r\n        return \"ipfs://\";\r\n    }\r\n\r\n    function _httpBaseURI() internal view virtual returns (string memory) {\r\n        return \"http://65.108.212.170/slm/\";\r\n    }\r\n\r\n    function setTokenURI(uint256 tokenId, string memory ipfsCID) public {\r\n        require(msg.sender==apiAddress);\r\n        _setTokenURI(tokenId, ipfsCID);\r\n    }\r\n\r\n    /**\r\n     * Override isApprovedForAll to auto-approve OS's proxy contract\r\n     */\r\n    function isApprovedForAll(address _owner, address _operator)\r\n        public\r\n        view\r\n        override(ERC721, IERC721)\r\n        returns (bool isOperator)\r\n    {\r\n        // if OpenSea's ERC721 Proxy Address is detected, auto-return true\r\n        if (_operator == address(0x58807baD0B376efc12F5AD86aAc70E78ed67deaE)) {\r\n            return true;\r\n        }\r\n\r\n        // otherwise, use the default ERC721.isApprovedForAll()\r\n        return ERC721.isApprovedForAll(_owner, _operator);\r\n    }\r\n\r\n    /**\r\n     * This is used instead of msg.sender as transactions won't be sent by the original token owner, but by OpenSea.\r\n     */\r\n    function _msgSender() internal view override returns (address sender) {\r\n        return ContextMixin.msgSender();\r\n    }\r\n\r\n    function _beforeTokenTransfer(address from, address to, uint256 tokenId)\r\n        internal\r\n        override(ERC721, ERC721Enumerable)\r\n    {\r\n        super._beforeTokenTransfer(from, to, tokenId);\r\n    }\r\n\r\n    function supportsInterface(bytes4 interfaceId)\r\n        public\r\n        view\r\n        override(ERC721, ERC721Enumerable)\r\n        returns (bool)\r\n    {\r\n        return super.supportsInterface(interfaceId);\r\n    }\r\n}\r\n",
  "sourcePath": "/mnt/c/Users/Sergei/git/SLM-Coin/contracts/SLMNFT.sol",
  "compiler": {
    "name": "solc",
    "version": "0.8.13+commit.abaa5c0e.Emscripten.clang"
  },
  "schemaVersion": "3.4.7",
  "updatedAt": "2022-05-04T09:48:05.691Z",
  "networkType": "ethereum",
  "devdoc": {
    "kind": "dev",
    "methods": {
      "approve(address,uint256)": {
        "details": "See {IERC721-approve}."
      },
      "balanceOf(address)": {
        "details": "See {IERC721-balanceOf}."
      },
      "burn(uint256)": {
        "details": "Burns `tokenId`. See {ERC721-_burn}. Requirements: - The caller must own `tokenId` or be an approved operator."
      },
      "getApproved(uint256)": {
        "details": "See {IERC721-getApproved}."
      },
      "name()": {
        "details": "See {IERC721Metadata-name}."
      },
      "owner()": {
        "details": "Returns the address of the current owner."
      },
      "ownerOf(uint256)": {
        "details": "See {IERC721-ownerOf}."
      },
      "renounceOwnership()": {
        "details": "Leaves the contract without owner. It will not be possible to call `onlyOwner` functions anymore. Can only be called by the current owner. NOTE: Renouncing ownership will leave the contract without an owner, thereby removing any functionality that is only available to the owner."
      },
      "safeTransferFrom(address,address,uint256)": {
        "details": "See {IERC721-safeTransferFrom}."
      },
      "safeTransferFrom(address,address,uint256,bytes)": {
        "details": "See {IERC721-safeTransferFrom}."
      },
      "setApprovalForAll(address,bool)": {
        "details": "See {IERC721-setApprovalForAll}."
      },
      "symbol()": {
        "details": "See {IERC721Metadata-symbol}."
      },
      "tokenByIndex(uint256)": {
        "details": "See {IERC721Enumerable-tokenByIndex}."
      },
      "tokenOfOwnerByIndex(address,uint256)": {
        "details": "See {IERC721Enumerable-tokenOfOwnerByIndex}."
      },
      "totalSupply()": {
        "details": "See {IERC721Enumerable-totalSupply}."
      },
      "transferFrom(address,address,uint256)": {
        "details": "See {IERC721-transferFrom}."
      },
      "transferOwnership(address)": {
        "details": "Transfers ownership of the contract to a new account (`newOwner`). Can only be called by the current owner."
      }
    },
    "version": 1
  },
  "userdoc": {
    "kind": "user",
    "methods": {
      "isApprovedForAll(address,address)": {
        "notice": "Override isApprovedForAll to auto-approve OS's proxy contract"
      }
    },
    "version": 1
  }
}