{
  "contractName": "SLMNFTFactory",
  "abi": [
    {
      "inputs": [
        {
          "internalType": "address",
          "name": "nftAddress_",
          "type": "address"
        },
        {
          "internalType": "address",
          "name": "tokenAddress_",
          "type": "address"
        }
      ],
      "stateMutability": "nonpayable",
      "type": "constructor"
    },
    {
      "anonymous": false,
      "inputs": [
        {
          "indexed": true,
          "internalType": "address",
          "name": "previousOwner",
          "type": "address"
        },
        {
          "indexed": true,
          "internalType": "address",
          "name": "newOwner",
          "type": "address"
        }
      ],
      "name": "OwnershipTransferred",
      "type": "event"
    },
    {
      "anonymous": false,
      "inputs": [
        {
          "indexed": true,
          "internalType": "address",
          "name": "from",
          "type": "address"
        },
        {
          "indexed": true,
          "internalType": "address",
          "name": "to",
          "type": "address"
        },
        {
          "indexed": true,
          "internalType": "uint256",
          "name": "tokenId",
          "type": "uint256"
        }
      ],
      "name": "Transfer",
      "type": "event"
    },
    {
      "stateMutability": "payable",
      "type": "fallback",
      "payable": true
    },
    {
      "inputs": [],
      "name": "nftAddress",
      "outputs": [
        {
          "internalType": "address",
          "name": "",
          "type": "address"
        }
      ],
      "stateMutability": "view",
      "type": "function",
      "constant": true
    },
    {
      "inputs": [],
      "name": "owner",
      "outputs": [
        {
          "internalType": "address",
          "name": "",
          "type": "address"
        }
      ],
      "stateMutability": "view",
      "type": "function",
      "constant": true
    },
    {
      "inputs": [],
      "name": "renounceOwnership",
      "outputs": [],
      "stateMutability": "nonpayable",
      "type": "function"
    },
    {
      "inputs": [],
      "name": "tokenAddress",
      "outputs": [
        {
          "internalType": "address",
          "name": "",
          "type": "address"
        }
      ],
      "stateMutability": "view",
      "type": "function",
      "constant": true
    },
    {
      "stateMutability": "payable",
      "type": "receive",
      "payable": true
    },
    {
      "inputs": [
        {
          "internalType": "address",
          "name": "to",
          "type": "address"
        },
        {
          "internalType": "uint256",
          "name": "amount",
          "type": "uint256"
        }
      ],
      "name": "transfer",
      "outputs": [],
      "stateMutability": "nonpayable",
      "type": "function"
    },
    {
      "inputs": [],
      "name": "name",
      "outputs": [
        {
          "internalType": "string",
          "name": "",
          "type": "string"
        }
      ],
      "stateMutability": "pure",
      "type": "function",
      "constant": true
    },
    {
      "inputs": [],
      "name": "symbol",
      "outputs": [
        {
          "internalType": "string",
          "name": "",
          "type": "string"
        }
      ],
      "stateMutability": "pure",
      "type": "function",
      "constant": true
    },
    {
      "inputs": [],
      "name": "supportsFactoryInterface",
      "outputs": [
        {
          "internalType": "bool",
          "name": "",
          "type": "bool"
        }
      ],
      "stateMutability": "pure",
      "type": "function",
      "constant": true
    },
    {
      "inputs": [],
      "name": "numOptions",
      "outputs": [
        {
          "internalType": "uint256",
          "name": "",
          "type": "uint256"
        }
      ],
      "stateMutability": "view",
      "type": "function",
      "constant": true
    },
    {
      "inputs": [
        {
          "internalType": "address",
          "name": "newOwner",
          "type": "address"
        }
      ],
      "name": "transferOwnership",
      "outputs": [],
      "stateMutability": "nonpayable",
      "type": "function"
    },
    {
      "inputs": [
        {
          "internalType": "uint256",
          "name": "_optionId",
          "type": "uint256"
        }
      ],
      "name": "canMint",
      "outputs": [
        {
          "internalType": "bool",
          "name": "",
          "type": "bool"
        }
      ],
      "stateMutability": "view",
      "type": "function",
      "constant": true
    },
    {
      "inputs": [
        {
          "internalType": "uint256",
          "name": "_optionId",
          "type": "uint256"
        },
        {
          "internalType": "address",
          "name": "to",
          "type": "address"
        }
      ],
      "name": "mint",
      "outputs": [],
      "stateMutability": "nonpayable",
      "type": "function"
    },
    {
      "inputs": [
        {
          "internalType": "uint256",
          "name": "tokenId",
          "type": "uint256"
        }
      ],
      "name": "tokenURI",
      "outputs": [
        {
          "internalType": "string",
          "name": "",
          "type": "string"
        }
      ],
      "stateMutability": "view",
      "type": "function",
      "constant": true
    },
    {
      "inputs": [
        {
          "internalType": "address",
          "name": "to",
          "type": "address"
        },
        {
          "internalType": "string",
          "name": "data",
          "type": "string"
        }
      ],
      "name": "mintWithMetadata",
      "outputs": [],
      "stateMutability": "nonpayable",
      "type": "function"
    },
    {
      "inputs": [
        {
          "internalType": "address",
          "name": "",
          "type": "address"
        },
        {
          "internalType": "address",
          "name": "_to",
          "type": "address"
        },
        {
          "internalType": "uint256",
          "name": "_tokenId",
          "type": "uint256"
        }
      ],
      "name": "transferFrom",
      "outputs": [],
      "stateMutability": "nonpayable",
      "type": "function"
    },
    {
      "inputs": [
        {
          "internalType": "address",
          "name": "_owner",
          "type": "address"
        },
        {
          "internalType": "address",
          "name": "_operator",
          "type": "address"
        }
      ],
      "name": "isApprovedForAll",
      "outputs": [
        {
          "internalType": "bool",
          "name": "isOperator",
          "type": "bool"
        }
      ],
      "stateMutability": "view",
      "type": "function",
      "constant": true
    },
    {
      "inputs": [
        {
          "internalType": "uint256",
          "name": "",
          "type": "uint256"
        }
      ],
      "name": "ownerOf",
      "outputs": [
        {
          "internalType": "address",
          "name": "_owner",
          "type": "address"
        }
      ],
      "stateMutability": "view",
      "type": "function",
      "constant": true
    },
    {
      "inputs": [
        {
          "internalType": "uint256",
          "name": "_optionId",
          "type": "uint256"
        }
      ],
      "name": "balanceOf",
      "outputs": [
        {
          "internalType": "uint256",
          "name": "",
          "type": "uint256"
        }
      ],
      "stateMutability": "view",
      "type": "function",
      "constant": true
    },
    {
      "inputs": [],
      "name": "exchangeRate",
      "outputs": [
        {
          "internalType": "uint256",
          "name": "",
          "type": "uint256"
        }
      ],
      "stateMutability": "view",
      "type": "function",
      "constant": true
    },
    {
      "inputs": [],
      "name": "exchangeETHForSLM",
      "outputs": [],
      "stateMutability": "payable",
      "type": "function",
      "payable": true
    },
    {
      "inputs": [
        {
          "internalType": "uint256",
          "name": "slmAmount",
          "type": "uint256"
        }
      ],
      "name": "exchangeSLMForETH",
      "outputs": [],
      "stateMutability": "nonpayable",
      "type": "function"
    }
  ],
  "bytecode": "0x608060405260016003556000600455620186a06005553480156200002257600080fd5b506040516200218f3803806200218f8339818101604052810190620000489190620002f7565b620000686200005c6200011460201b60201c565b6200011c60201b60201c565b81600160006101000a81548173ffffffffffffffffffffffffffffffffffffffff021916908373ffffffffffffffffffffffffffffffffffffffff16021790555080600260006101000a81548173ffffffffffffffffffffffffffffffffffffffff021916908373ffffffffffffffffffffffffffffffffffffffff1602179055506200010c600062000100620001e060201b60201c565b6200020960201b60201c565b5050620003c4565b600033905090565b60008060009054906101000a900473ffffffffffffffffffffffffffffffffffffffff169050816000806101000a81548173ffffffffffffffffffffffffffffffffffffffff021916908373ffffffffffffffffffffffffffffffffffffffff1602179055508173ffffffffffffffffffffffffffffffffffffffff168173ffffffffffffffffffffffffffffffffffffffff167f8be0079c531659141344cd1fd0a4f28419497f9722a3daafe3b4186f6b6457e060405160405180910390a35050565b60008060009054906101000a900473ffffffffffffffffffffffffffffffffffffffff16905090565b60005b6003548110156200028857808273ffffffffffffffffffffffffffffffffffffffff168473ffffffffffffffffffffffffffffffffffffffff167fddf252ad1be2c89b69c2b068fc378daa952ba7f163c4a11628f55a4df523b3ef60405160405180910390a480806200027f9062000377565b9150506200020c565b505050565b600080fd5b600073ffffffffffffffffffffffffffffffffffffffff82169050919050565b6000620002bf8262000292565b9050919050565b620002d181620002b2565b8114620002dd57600080fd5b50565b600081519050620002f181620002c6565b92915050565b600080604083850312156200031157620003106200028d565b5b60006200032185828601620002e0565b92505060206200033485828601620002e0565b9150509250929050565b7f4e487b7100000000000000000000000000000000000000000000000000000000600052601160045260246000fd5b6000819050919050565b600062000384826200036d565b91507fffffffffffffffffffffffffffffffffffffffffffffffffffffffffffffffff8203620003b957620003b86200033e565b5b600182019050919050565b611dbb80620003d46000396000f3fe60806040526004361061012e5760003560e01c80638da5cb5b116100ab578063a9059cbb1161006f578063a9059cbb146103b7578063b658d10e146103e0578063c311c52314610409578063c87b56dd14610434578063e985e9c514610471578063f2fde38b146104ae57610135565b80638da5cb5b146102d057806394bf804d146102fb57806395d89b41146103245780639cc7f7081461034f5780639d76ea581461038c57610135565b80635bf8633a116100f25780635bf8633a1461020a5780635dd871a3146102355780636352211e14610272578063715018a6146102af57806376220179146102c657610135565b806306fdde031461013757806323b872dd146101625780633ba0b9a91461018b578063471d06f4146101b65780634b97aed9146101df57610135565b3661013557005b005b34801561014357600080fd5b5061014c6104d7565b6040516101599190611475565b60405180910390f35b34801561016e57600080fd5b506101896004803603810190610184919061153f565b6104f7565b005b34801561019757600080fd5b506101a0610506565b6040516101ad91906115a1565b60405180910390f35b3480156101c257600080fd5b506101dd60048036038101906101d891906116f1565b6105cb565b005b3480156101eb57600080fd5b506101f46106e0565b60405161020191906115a1565b60405180910390f35b34801561021657600080fd5b5061021f6106ea565b60405161022c919061175c565b60405180910390f35b34801561024157600080fd5b5061025c60048036038101906102579190611777565b610710565b60405161026991906117bf565b60405180910390f35b34801561027e57600080fd5b5061029960048036038101906102949190611777565b6107e9565b6040516102a6919061175c565b60405180910390f35b3480156102bb57600080fd5b506102c46107fa565b005b6102ce610882565b005b3480156102dc57600080fd5b506102e5610a0b565b6040516102f2919061175c565b60405180910390f35b34801561030757600080fd5b50610322600480360381019061031d91906117da565b610a34565b005b34801561033057600080fd5b50610339610b47565b6040516103469190611475565b60405180910390f35b34801561035b57600080fd5b5061037660048036038101906103719190611777565b610b84565b60405161038391906115a1565b60405180910390f35b34801561039857600080fd5b506103a1610c2e565b6040516103ae919061175c565b60405180910390f35b3480156103c357600080fd5b506103de60048036038101906103d9919061181a565b610c54565b005b3480156103ec57600080fd5b5061040760048036038101906104029190611777565b610d1b565b005b34801561041557600080fd5b5061041e610fb8565b60405161042b91906117bf565b60405180910390f35b34801561044057600080fd5b5061045b60048036038101906104569190611777565b610fc1565b6040516104689190611475565b60405180910390f35b34801561047d57600080fd5b506104986004803603810190610493919061185a565b610fe3565b6040516104a591906117bf565b60405180910390f35b3480156104ba57600080fd5b506104d560048036038101906104d0919061189a565b6110fa565b005b6060604051806060016040528060228152602001611d3060229139905090565b6105018183610a34565b505050565b600080600260009054906101000a900473ffffffffffffffffffffffffffffffffffffffff16905060008173ffffffffffffffffffffffffffffffffffffffff166370a08231306040518263ffffffff1660e01b8152600401610569919061175c565b602060405180830381865afa158015610586573d6000803e3d6000fd5b505050506040513d601f19601f820116820180604052508101906105aa91906118dc565b90506000479050600082826105bf9190611967565b90508094505050505090565b6105d3611199565b73ffffffffffffffffffffffffffffffffffffffff166105f1610a0b565b73ffffffffffffffffffffffffffffffffffffffff1614610647576040517f08c379a000000000000000000000000000000000000000000000000000000000815260040161063e906119e4565b60405180910390fd5b6000600160009054906101000a900473ffffffffffffffffffffffffffffffffffffffff1690508073ffffffffffffffffffffffffffffffffffffffff166352640e6884846040518363ffffffff1660e01b81526004016106a9929190611a04565b600060405180830381600087803b1580156106c357600080fd5b505af11580156106d7573d6000803e3d6000fd5b50505050505050565b6000600354905090565b600160009054906101000a900473ffffffffffffffffffffffffffffffffffffffff1681565b6000600354821061072457600090506107e4565b6000600160009054906101000a900473ffffffffffffffffffffffffffffffffffffffff16905060008173ffffffffffffffffffffffffffffffffffffffff166318160ddd6040518163ffffffff1660e01b8152600401602060405180830381865afa158015610798573d6000803e3d6000fd5b505050506040513d601f19601f820116820180604052508101906107bc91906118dc565b9050600060045485036107ce57600190505b806005546107dc9190611a34565b821093505050505b919050565b60006107f3610a0b565b9050919050565b610802611199565b73ffffffffffffffffffffffffffffffffffffffff16610820610a0b565b73ffffffffffffffffffffffffffffffffffffffff1614610876576040517f08c379a000000000000000000000000000000000000000000000000000000000815260040161086d906119e4565b60405180910390fd5b61088060006111a1565b565b60003490506000610891610506565b90506000600260009054906101000a900473ffffffffffffffffffffffffffffffffffffffff169050600082846108c89190611967565b9050808273ffffffffffffffffffffffffffffffffffffffff166370a08231306040518263ffffffff1660e01b8152600401610904919061175c565b602060405180830381865afa158015610921573d6000803e3d6000fd5b505050506040513d601f19601f8201168201806040525081019061094591906118dc565b1015610986576040517f08c379a000000000000000000000000000000000000000000000000000000000815260040161097d90611ab4565b60405180910390fd5b8173ffffffffffffffffffffffffffffffffffffffff1663a9059cbb33836040518363ffffffff1660e01b81526004016109c1929190611ad4565b6020604051808303816000875af11580156109e0573d6000803e3d6000fd5b505050506040513d601f19601f82011682018060405250810190610a049190611b29565b5050505050565b60008060009054906101000a900473ffffffffffffffffffffffffffffffffffffffff16905090565b610a3c611199565b73ffffffffffffffffffffffffffffffffffffffff16610a5a610a0b565b73ffffffffffffffffffffffffffffffffffffffff1614610ab0576040517f08c379a0000000000000000000000000000000000000000000000000000000008152600401610aa7906119e4565b60405180910390fd5b6000600160009054906101000a900473ffffffffffffffffffffffffffffffffffffffff1690508073ffffffffffffffffffffffffffffffffffffffff166340d097c3836040518263ffffffff1660e01b8152600401610b10919061175c565b600060405180830381600087803b158015610b2a57600080fd5b505af1158015610b3e573d6000803e3d6000fd5b50505050505050565b60606040518060400160405280600381526020017f534c4d0000000000000000000000000000000000000000000000000000000000815250905090565b600080600160009054906101000a900473ffffffffffffffffffffffffffffffffffffffff1690508073ffffffffffffffffffffffffffffffffffffffff166370a08231336040518263ffffffff1660e01b8152600401610be5919061175c565b602060405180830381865afa158015610c02573d6000803e3d6000fd5b505050506040513d601f19601f82011682018060405250810190610c2691906118dc565b915050919050565b600260009054906101000a900473ffffffffffffffffffffffffffffffffffffffff1681565b610c5c611199565b73ffffffffffffffffffffffffffffffffffffffff16610c7a610a0b565b73ffffffffffffffffffffffffffffffffffffffff1614610cd0576040517f08c379a0000000000000000000000000000000000000000000000000000000008152600401610cc7906119e4565b60405180910390fd5b8173ffffffffffffffffffffffffffffffffffffffff166108fc829081150290604051600060405180830381858888f19350505050158015610d16573d6000803e3d6000fd5b505050565b6000600260009054906101000a900473ffffffffffffffffffffffffffffffffffffffff169050818173ffffffffffffffffffffffffffffffffffffffff166370a08231336040518263ffffffff1660e01b8152600401610d7c919061175c565b602060405180830381865afa158015610d99573d6000803e3d6000fd5b505050506040513d601f19601f82011682018060405250810190610dbd91906118dc565b1015610dc857600080fd5b6000610dd2610506565b83610ddd9190611b56565b905080471015610dec57600080fd5b8173ffffffffffffffffffffffffffffffffffffffff1663095ea7b330856040518363ffffffff1660e01b8152600401610e27929190611ad4565b6020604051808303816000875af1158015610e46573d6000803e3d6000fd5b505050506040513d601f19601f82011682018060405250810190610e6a9190611b29565b508173ffffffffffffffffffffffffffffffffffffffff166323b872dd3330866040518463ffffffff1660e01b8152600401610ea893929190611bb0565b6020604051808303816000875af1158015610ec7573d6000803e3d6000fd5b505050506040513d601f19601f82011682018060405250810190610eeb9190611b29565b503373ffffffffffffffffffffffffffffffffffffffff166108fc829081150290604051600060405180830381858888f19350505050158015610f32573d6000803e3d6000fd5b508173ffffffffffffffffffffffffffffffffffffffff1663095ea7b33060006040518363ffffffff1660e01b8152600401610f6f929190611c2c565b6020604051808303816000875af1158015610f8e573d6000803e3d6000fd5b505050506040513d601f19601f82011682018060405250810190610fb29190611b29565b50505050565b60006001905090565b6060604051806060016040528060348152602001611d52603491399050919050565b60008273ffffffffffffffffffffffffffffffffffffffff16611004610a0b565b73ffffffffffffffffffffffffffffffffffffffff1614801561106657507358807bad0b376efc12f5ad86aac70e78ed67deae73ffffffffffffffffffffffffffffffffffffffff168273ffffffffffffffffffffffffffffffffffffffff16145b1561107457600190506110f4565b8273ffffffffffffffffffffffffffffffffffffffff16611093610a0b565b73ffffffffffffffffffffffffffffffffffffffff161480156110e157508173ffffffffffffffffffffffffffffffffffffffff168373ffffffffffffffffffffffffffffffffffffffff16145b156110ef57600190506110f4565b600090505b92915050565b611102611199565b73ffffffffffffffffffffffffffffffffffffffff16611120610a0b565b73ffffffffffffffffffffffffffffffffffffffff1614611176576040517f08c379a000000000000000000000000000000000000000000000000000000000815260040161116d906119e4565b60405180910390fd5b6000611180610a0b565b905061118b82611265565b611195818361135c565b5050565b600033905090565b60008060009054906101000a900473ffffffffffffffffffffffffffffffffffffffff169050816000806101000a81548173ffffffffffffffffffffffffffffffffffffffff021916908373ffffffffffffffffffffffffffffffffffffffff1602179055508173ffffffffffffffffffffffffffffffffffffffff168173ffffffffffffffffffffffffffffffffffffffff167f8be0079c531659141344cd1fd0a4f28419497f9722a3daafe3b4186f6b6457e060405160405180910390a35050565b61126d611199565b73ffffffffffffffffffffffffffffffffffffffff1661128b610a0b565b73ffffffffffffffffffffffffffffffffffffffff16146112e1576040517f08c379a00000000000000000000000000000000000000000000000000000000081526004016112d8906119e4565b60405180910390fd5b600073ffffffffffffffffffffffffffffffffffffffff168173ffffffffffffffffffffffffffffffffffffffff1603611350576040517f08c379a000000000000000000000000000000000000000000000000000000000815260040161134790611cc7565b60405180910390fd5b611359816111a1565b50565b60005b6003548110156113d757808273ffffffffffffffffffffffffffffffffffffffff168473ffffffffffffffffffffffffffffffffffffffff167fddf252ad1be2c89b69c2b068fc378daa952ba7f163c4a11628f55a4df523b3ef60405160405180910390a480806113cf90611ce7565b91505061135f565b505050565b600081519050919050565b600082825260208201905092915050565b60005b838110156114165780820151818401526020810190506113fb565b83811115611425576000848401525b50505050565b6000601f19601f8301169050919050565b6000611447826113dc565b61145181856113e7565b93506114618185602086016113f8565b61146a8161142b565b840191505092915050565b6000602082019050818103600083015261148f818461143c565b905092915050565b6000604051905090565b600080fd5b600080fd5b600073ffffffffffffffffffffffffffffffffffffffff82169050919050565b60006114d6826114ab565b9050919050565b6114e6816114cb565b81146114f157600080fd5b50565b600081359050611503816114dd565b92915050565b6000819050919050565b61151c81611509565b811461152757600080fd5b50565b60008135905061153981611513565b92915050565b600080600060608486031215611558576115576114a1565b5b6000611566868287016114f4565b9350506020611577868287016114f4565b92505060406115888682870161152a565b9150509250925092565b61159b81611509565b82525050565b60006020820190506115b66000830184611592565b92915050565b600080fd5b600080fd5b7f4e487b7100000000000000000000000000000000000000000000000000000000600052604160045260246000fd5b6115fe8261142b565b810181811067ffffffffffffffff8211171561161d5761161c6115c6565b5b80604052505050565b6000611630611497565b905061163c82826115f5565b919050565b600067ffffffffffffffff82111561165c5761165b6115c6565b5b6116658261142b565b9050602081019050919050565b82818337600083830152505050565b600061169461168f84611641565b611626565b9050828152602081018484840111156116b0576116af6115c1565b5b6116bb848285611672565b509392505050565b600082601f8301126116d8576116d76115bc565b5b81356116e8848260208601611681565b91505092915050565b60008060408385031215611708576117076114a1565b5b6000611716858286016114f4565b925050602083013567ffffffffffffffff811115611737576117366114a6565b5b611743858286016116c3565b9150509250929050565b611756816114cb565b82525050565b6000602082019050611771600083018461174d565b92915050565b60006020828403121561178d5761178c6114a1565b5b600061179b8482850161152a565b91505092915050565b60008115159050919050565b6117b9816117a4565b82525050565b60006020820190506117d460008301846117b0565b92915050565b600080604083850312156117f1576117f06114a1565b5b60006117ff8582860161152a565b9250506020611810858286016114f4565b9150509250929050565b60008060408385031215611831576118306114a1565b5b600061183f858286016114f4565b92505060206118508582860161152a565b9150509250929050565b60008060408385031215611871576118706114a1565b5b600061187f858286016114f4565b9250506020611890858286016114f4565b9150509250929050565b6000602082840312156118b0576118af6114a1565b5b60006118be848285016114f4565b91505092915050565b6000815190506118d681611513565b92915050565b6000602082840312156118f2576118f16114a1565b5b6000611900848285016118c7565b91505092915050565b7f4e487b7100000000000000000000000000000000000000000000000000000000600052601260045260246000fd5b7f4e487b7100000000000000000000000000000000000000000000000000000000600052601160045260246000fd5b600061197282611509565b915061197d83611509565b92508261198d5761198c611909565b5b828204905092915050565b7f4f776e61626c653a2063616c6c6572206973206e6f7420746865206f776e6572600082015250565b60006119ce6020836113e7565b91506119d982611998565b602082019050919050565b600060208201905081810360008301526119fd816119c1565b9050919050565b6000604082019050611a19600083018561174d565b8181036020830152611a2b818461143c565b90509392505050565b6000611a3f82611509565b9150611a4a83611509565b925082821015611a5d57611a5c611938565b5b828203905092915050565b7f496e73756666696369656e7420534c4d20616d6f756e74000000000000000000600082015250565b6000611a9e6017836113e7565b9150611aa982611a68565b602082019050919050565b60006020820190508181036000830152611acd81611a91565b9050919050565b6000604082019050611ae9600083018561174d565b611af66020830184611592565b9392505050565b611b06816117a4565b8114611b1157600080fd5b50565b600081519050611b2381611afd565b92915050565b600060208284031215611b3f57611b3e6114a1565b5b6000611b4d84828501611b14565b91505092915050565b6000611b6182611509565b9150611b6c83611509565b9250817fffffffffffffffffffffffffffffffffffffffffffffffffffffffffffffffff0483118215151615611ba557611ba4611938565b5b828202905092915050565b6000606082019050611bc5600083018661174d565b611bd2602083018561174d565b611bdf6040830184611592565b949350505050565b6000819050919050565b6000819050919050565b6000611c16611c11611c0c84611be7565b611bf1565b611509565b9050919050565b611c2681611bfb565b82525050565b6000604082019050611c41600083018561174d565b611c4e6020830184611c1d565b9392505050565b7f4f776e61626c653a206e6577206f776e657220697320746865207a65726f206160008201527f6464726573730000000000000000000000000000000000000000000000000000602082015250565b6000611cb16026836113e7565b9150611cbc82611c55565b604082019050919050565b60006020820190508181036000830152611ce081611ca4565b9050919050565b6000611cf282611509565b91507fffffffffffffffffffffffffffffffffffffffffffffffffffffffffffffffff8203611d2457611d23611938565b5b60018201905091905056fe534c4d204e465420546f6b656e2053616c65202f2045786368616e67652046756e642f697066732f516d626875524e4c7262324e4462576331334a796a644a72634e477a6d416957587732424266374c6d4c5a5a7374a26469706673582212205805ab156c6e0b9ab252735563d5206d43827ccb32e9915fb3d0cd7d2e7ad73964736f6c634300080d0033",
  "immutableReferences": {},
  "source": "// SPDX-License-Identifier: MIT\r\npragma solidity ^0.8.4;\r\n\r\nimport \"@openzeppelin/contracts/token/ERC721/ERC721.sol\";\r\nimport \"@openzeppelin/contracts/token/ERC721/extensions/ERC721Burnable.sol\";\r\nimport \"@openzeppelin/contracts/metatx/ERC2771Context.sol\";\r\nimport \"@openzeppelin/contracts/access/Ownable.sol\";\r\n\r\nimport \"./SLMToken.sol\";\r\nimport \"./SLMNFT.sol\";\r\n\r\ninterface Factory {\r\n    /**\r\n    * Returns the name of this factory.\r\n    */\r\n    function name() external view returns (string memory);\r\n\r\n    /**\r\n    * Returns the symbol for this factory.\r\n    */\r\n    function symbol() external view returns (string memory);\r\n\r\n    /**\r\n    * Number of options the factory supports.\r\n    */\r\n    function numOptions() external view returns (uint256);\r\n\r\n    /**\r\n    * @dev Returns whether the option ID can be minted. Can return false if the developer wishes to\r\n    * restrict a total supply per option ID (or overall).\r\n    */\r\n    function canMint(uint256 _optionId) external view returns (bool);\r\n\r\n    /**\r\n    * @dev Returns a URL specifying some metadata about the option. This metadata can be of the\r\n    * same structure as the ERC721 metadata.\r\n    */\r\n    function tokenURI(uint256 _optionId) external view returns (string memory);\r\n\r\n    /**\r\n    * Indicates that this is a factory contract. Ideally would use EIP 165 supportsInterface()\r\n    */\r\n    function supportsFactoryInterface() external view returns (bool);\r\n\r\n    /**\r\n    * @dev Mints asset(s) in accordance to a specific address with a particular \"option\". This should be\r\n    * callable only by the contract owner or the owner's Wyvern Proxy (later universal login will solve this).\r\n    * Options should also be delineated 0 - (numOptions() - 1) for convenient indexing.\r\n    * @param _optionId the option id\r\n    * @param _toAddress address of the future owner of the asset(s)\r\n    */\r\n    function mint(uint256 _optionId, address _toAddress) external;\r\n}\r\n\r\ncontract SLMNFTFactory is Factory, Ownable {\r\n    address public nftAddress;\r\n    address public tokenAddress;\r\n\r\n    using Strings for string;\r\n\r\n    event Transfer(\r\n        address indexed from,\r\n        address indexed to,\r\n        uint256 indexed tokenId\r\n    );\r\n\r\n    uint256 NUM_OPTIONS = 1;\r\n    uint256 SCHIZO_OPTION = 0;\r\n    uint256 SCHIZO_SUPPLY = 100_000;\r\n\r\n    fallback() external payable {}\r\n\r\n    receive() external payable {}\r\n\r\n    function transfer(address to, uint256 amount) public onlyOwner {\r\n        payable(to).transfer(amount);\r\n    }\r\n\r\n    constructor(address nftAddress_, address tokenAddress_) {\r\n        nftAddress = nftAddress_;\r\n        tokenAddress = tokenAddress_;\r\n\r\n        fireTransferEvents(address(0), owner());\r\n    }\r\n\r\n    function name() external pure override returns (string memory) {\r\n        return \"SLM NFT Token Sale / Exchange Fund\";\r\n    }\r\n\r\n    function symbol() external pure override returns (string memory) {\r\n        return \"SLM\";\r\n    }\r\n\r\n    function supportsFactoryInterface() public pure override returns (bool) {\r\n        return true;\r\n    }\r\n\r\n    function numOptions() public view override returns (uint256) {\r\n        return NUM_OPTIONS;\r\n    }\r\n\r\n    function transferOwnership(address newOwner) public override onlyOwner {\r\n        address _prevOwner = owner();\r\n        super.transferOwnership(newOwner);\r\n        fireTransferEvents(_prevOwner, newOwner);\r\n    }\r\n\r\n    function fireTransferEvents(address _from, address _to) private {\r\n        for (uint256 i = 0; i < NUM_OPTIONS; i++) {\r\n            emit Transfer(_from, _to, i);\r\n        }\r\n    }\r\n\r\n    function canMint(uint256 _optionId) public view override returns (bool) {\r\n        if (_optionId >= NUM_OPTIONS) {\r\n            return false;\r\n        }\r\n\r\n        SLMNFT slmNFT = SLMNFT(nftAddress);\r\n        uint256 slmSupply = slmNFT.totalSupply();\r\n\r\n        uint256 numItemsAllocated = 0;\r\n        if (_optionId == SCHIZO_OPTION) {\r\n            numItemsAllocated = 1;\r\n        }\r\n\r\n        return slmSupply < (SCHIZO_SUPPLY - numItemsAllocated);\r\n    }\r\n\r\n    function mint(uint256 _optionId, address to) public onlyOwner {\r\n        SLMNFT slmNft = SLMNFT(nftAddress);\r\n        slmNft.safeMint(to);\r\n    }\r\n\r\n    function tokenURI(uint256 tokenId) public view returns (string memory) {\r\n        return \"/ipfs/QmbhuRNLrb2NDbWc13JyjdJrcNGzmAiWXw2BBf7LmLZZst\";\r\n    }\r\n\r\n    function mintWithMetadata(address to, string memory data) public onlyOwner {\r\n        SLMNFT slmNft = SLMNFT(nftAddress);\r\n        slmNft.safeMintWithMetadata(to, data);\r\n    }\r\n\r\n    /**\r\n     * Hack to get things to work automatically on OpenSea.\r\n     * Use transferFrom so the frontend doesn't have to worry about different method names.\r\n     */\r\n    function transferFrom(\r\n        address,\r\n        address _to,\r\n        uint256 _tokenId\r\n    ) public  {\r\n        mint(_tokenId, _to);\r\n    }\r\n\r\n    /**\r\n     * Override isApprovedForAll to auto-approve OS's proxy contract\r\n     */\r\n    function isApprovedForAll(address _owner, address _operator)\r\n        public\r\n        view\r\n        returns (bool isOperator)\r\n    {\r\n        // if OpenSea's ERC721 Proxy Address is detected, auto-return true\r\n        if (owner() == _owner && _operator == address(0x58807baD0B376efc12F5AD86aAc70E78ed67deaE)) {\r\n            return true;\r\n        }\r\n\r\n        // otherwise, use the default ERC721.isApprovedForAll()\r\n        if (owner() == _owner && _owner == _operator) {\r\n            return true;\r\n        }\r\n\r\n        return false;\r\n    }\r\n\r\n    /**\r\n     * Hack to get things to work automatically on OpenSea.\r\n     * Use isApprovedForAll so the frontend doesn't have to worry about different method names.\r\n     */\r\n    function ownerOf(uint256) public view returns (address _owner) {\r\n        return owner();\r\n    }\r\n\r\n    /**\r\n     * @dev Returns an URI for a given option ID.\r\n     * Throws if the option ID does not exist. May return an empty string.\r\n     * @param _optionId - uint256 ID of the token queried\r\n     * @return token URI\r\n     */\r\n    function balanceOf(uint256 _optionId) public view returns (uint256) {\r\n        SLMNFT slmNft = SLMNFT(nftAddress);\r\n        return slmNft.balanceOf(msg.sender);\r\n    }\r\n\r\n    // -------------\r\n    // Exchange fund\r\n    // -------------\r\n\r\n    function exchangeRate() public view returns (uint256) {\r\n        SLMToken slmToken = SLMToken(tokenAddress);\r\n        uint256 slmBalance = slmToken.balanceOf(address(this));\r\n        uint256 ethBalance = address(this).balance;\r\n        uint256 rate = ethBalance / slmBalance;\r\n        return rate;\r\n    }\r\n\r\n    function exchangeETHForSLM() public payable {\r\n        uint256 amountEth = msg.value;\r\n        uint256 rate = exchangeRate();\r\n        SLMToken slmToken = SLMToken(tokenAddress);\r\n        uint256 slmAmount = amountEth / rate;\r\n        require(\r\n            slmToken.balanceOf(address(this)) >= slmAmount,\r\n            \"Insufficient SLM amount\"\r\n        );\r\n        slmToken.transfer(msg.sender, slmAmount);\r\n    }\r\n\r\n    function exchangeSLMForETH(uint256 slmAmount) public {\r\n        SLMToken slmToken = SLMToken(tokenAddress);\r\n        require(slmToken.balanceOf(address(msg.sender)) >= slmAmount);\r\n        uint256 ethAMount = slmAmount * exchangeRate();\r\n        require(address(this).balance >= ethAMount);\r\n        slmToken.approve(address(this), slmAmount);\r\n        slmToken.transferFrom(msg.sender, address(this), slmAmount);\r\n        payable(msg.sender).transfer(ethAMount);\r\n        slmToken.approve(address(this), 0);\r\n    }\r\n}\r\n",
  "sourcePath": "/mnt/c/Users/Sergei/git/SLM-Coin/contracts/SLMNFTFactory.sol",
  "compiler": {
    "name": "solc",
    "version": "0.8.13+commit.abaa5c0e.Emscripten.clang"
  },
  "schemaVersion": "3.4.7",
  "updatedAt": "2022-05-04T09:48:05.723Z",
  "networkType": "ethereum",
  "devdoc": {
    "kind": "dev",
    "methods": {
      "balanceOf(uint256)": {
        "details": "Returns an URI for a given option ID. Throws if the option ID does not exist. May return an empty string.",
        "params": {
          "_optionId": "- uint256 ID of the token queried"
        },
        "returns": {
          "_0": "token URI"
        }
      },
      "canMint(uint256)": {
        "details": "Returns whether the option ID can be minted. Can return false if the developer wishes to restrict a total supply per option ID (or overall)."
      },
      "owner()": {
        "details": "Returns the address of the current owner."
      },
      "renounceOwnership()": {
        "details": "Leaves the contract without owner. It will not be possible to call `onlyOwner` functions anymore. Can only be called by the current owner. NOTE: Renouncing ownership will leave the contract without an owner, thereby removing any functionality that is only available to the owner."
      },
      "transferOwnership(address)": {
        "details": "Transfers ownership of the contract to a new account (`newOwner`). Can only be called by the current owner."
      }
    },
    "version": 1
  },
  "userdoc": {
    "kind": "user",
    "methods": {
      "isApprovedForAll(address,address)": {
        "notice": "Override isApprovedForAll to auto-approve OS's proxy contract"
      },
      "name()": {
        "notice": "Returns the name of this factory."
      },
      "numOptions()": {
        "notice": "Number of options the factory supports."
      },
      "ownerOf(uint256)": {
        "notice": "Hack to get things to work automatically on OpenSea. Use isApprovedForAll so the frontend doesn't have to worry about different method names."
      },
      "supportsFactoryInterface()": {
        "notice": "Indicates that this is a factory contract. Ideally would use EIP 165 supportsInterface()"
      },
      "symbol()": {
        "notice": "Returns the symbol for this factory."
      },
      "transferFrom(address,address,uint256)": {
        "notice": "Hack to get things to work automatically on OpenSea. Use transferFrom so the frontend doesn't have to worry about different method names."
      }
    },
    "version": 1
  }
}