{
  "contractName": "SLMNFT",
  "abi": [
    {
      "inputs": [
        {
          "internalType": "address",
          "name": "apiAddress_",
          "type": "address"
        }
      ],
      "stateMutability": "nonpayable",
      "type": "constructor"
    },
    {
      "anonymous": false,
      "inputs": [
        {
          "indexed": true,
          "internalType": "address",
          "name": "owner",
          "type": "address"
        },
        {
          "indexed": true,
          "internalType": "address",
          "name": "approved",
          "type": "address"
        },
        {
          "indexed": true,
          "internalType": "uint256",
          "name": "tokenId",
          "type": "uint256"
        }
      ],
      "name": "Approval",
      "type": "event"
    },
    {
      "anonymous": false,
      "inputs": [
        {
          "indexed": true,
          "internalType": "address",
          "name": "owner",
          "type": "address"
        },
        {
          "indexed": true,
          "internalType": "address",
          "name": "operator",
          "type": "address"
        },
        {
          "indexed": false,
          "internalType": "bool",
          "name": "approved",
          "type": "bool"
        }
      ],
      "name": "ApprovalForAll",
      "type": "event"
    },
    {
      "anonymous": false,
      "inputs": [
        {
          "indexed": true,
          "internalType": "address",
          "name": "previousOwner",
          "type": "address"
        },
        {
          "indexed": true,
          "internalType": "address",
          "name": "newOwner",
          "type": "address"
        }
      ],
      "name": "OwnershipTransferred",
      "type": "event"
    },
    {
      "anonymous": false,
      "inputs": [
        {
          "indexed": true,
          "internalType": "address",
          "name": "from",
          "type": "address"
        },
        {
          "indexed": true,
          "internalType": "address",
          "name": "to",
          "type": "address"
        },
        {
          "indexed": true,
          "internalType": "uint256",
          "name": "tokenId",
          "type": "uint256"
        }
      ],
      "name": "Transfer",
      "type": "event"
    },
    {
      "inputs": [
        {
          "internalType": "address",
          "name": "to",
          "type": "address"
        },
        {
          "internalType": "uint256",
          "name": "tokenId",
          "type": "uint256"
        }
      ],
      "name": "approve",
      "outputs": [],
      "stateMutability": "nonpayable",
      "type": "function"
    },
    {
      "inputs": [
        {
          "internalType": "address",
          "name": "owner",
          "type": "address"
        }
      ],
      "name": "balanceOf",
      "outputs": [
        {
          "internalType": "uint256",
          "name": "",
          "type": "uint256"
        }
      ],
      "stateMutability": "view",
      "type": "function",
      "constant": true
    },
    {
      "inputs": [
        {
          "internalType": "uint256",
          "name": "tokenId",
          "type": "uint256"
        }
      ],
      "name": "burn",
      "outputs": [],
      "stateMutability": "nonpayable",
      "type": "function"
    },
    {
      "inputs": [
        {
          "internalType": "uint256",
          "name": "tokenId",
          "type": "uint256"
        }
      ],
      "name": "getApproved",
      "outputs": [
        {
          "internalType": "address",
          "name": "",
          "type": "address"
        }
      ],
      "stateMutability": "view",
      "type": "function",
      "constant": true
    },
    {
      "inputs": [],
      "name": "name",
      "outputs": [
        {
          "internalType": "string",
          "name": "",
          "type": "string"
        }
      ],
      "stateMutability": "view",
      "type": "function",
      "constant": true
    },
    {
      "inputs": [],
      "name": "owner",
      "outputs": [
        {
          "internalType": "address",
          "name": "",
          "type": "address"
        }
      ],
      "stateMutability": "view",
      "type": "function",
      "constant": true
    },
    {
      "inputs": [
        {
          "internalType": "uint256",
          "name": "tokenId",
          "type": "uint256"
        }
      ],
      "name": "ownerOf",
      "outputs": [
        {
          "internalType": "address",
          "name": "",
          "type": "address"
        }
      ],
      "stateMutability": "view",
      "type": "function",
      "constant": true
    },
    {
      "inputs": [],
      "name": "renounceOwnership",
      "outputs": [],
      "stateMutability": "nonpayable",
      "type": "function"
    },
    {
      "inputs": [
        {
          "internalType": "address",
          "name": "from",
          "type": "address"
        },
        {
          "internalType": "address",
          "name": "to",
          "type": "address"
        },
        {
          "internalType": "uint256",
          "name": "tokenId",
          "type": "uint256"
        }
      ],
      "name": "safeTransferFrom",
      "outputs": [],
      "stateMutability": "nonpayable",
      "type": "function"
    },
    {
      "inputs": [
        {
          "internalType": "address",
          "name": "from",
          "type": "address"
        },
        {
          "internalType": "address",
          "name": "to",
          "type": "address"
        },
        {
          "internalType": "uint256",
          "name": "tokenId",
          "type": "uint256"
        },
        {
          "internalType": "bytes",
          "name": "_data",
          "type": "bytes"
        }
      ],
      "name": "safeTransferFrom",
      "outputs": [],
      "stateMutability": "nonpayable",
      "type": "function"
    },
    {
      "inputs": [
        {
          "internalType": "address",
          "name": "operator",
          "type": "address"
        },
        {
          "internalType": "bool",
          "name": "approved",
          "type": "bool"
        }
      ],
      "name": "setApprovalForAll",
      "outputs": [],
      "stateMutability": "nonpayable",
      "type": "function"
    },
    {
      "inputs": [],
      "name": "symbol",
      "outputs": [
        {
          "internalType": "string",
          "name": "",
          "type": "string"
        }
      ],
      "stateMutability": "view",
      "type": "function",
      "constant": true
    },
    {
      "inputs": [
        {
          "internalType": "uint256",
          "name": "index",
          "type": "uint256"
        }
      ],
      "name": "tokenByIndex",
      "outputs": [
        {
          "internalType": "uint256",
          "name": "",
          "type": "uint256"
        }
      ],
      "stateMutability": "view",
      "type": "function",
      "constant": true
    },
    {
      "inputs": [
        {
          "internalType": "address",
          "name": "owner",
          "type": "address"
        },
        {
          "internalType": "uint256",
          "name": "index",
          "type": "uint256"
        }
      ],
      "name": "tokenOfOwnerByIndex",
      "outputs": [
        {
          "internalType": "uint256",
          "name": "",
          "type": "uint256"
        }
      ],
      "stateMutability": "view",
      "type": "function",
      "constant": true
    },
    {
      "inputs": [],
      "name": "totalSupply",
      "outputs": [
        {
          "internalType": "uint256",
          "name": "",
          "type": "uint256"
        }
      ],
      "stateMutability": "view",
      "type": "function",
      "constant": true
    },
    {
      "inputs": [
        {
          "internalType": "address",
          "name": "from",
          "type": "address"
        },
        {
          "internalType": "address",
          "name": "to",
          "type": "address"
        },
        {
          "internalType": "uint256",
          "name": "tokenId",
          "type": "uint256"
        }
      ],
      "name": "transferFrom",
      "outputs": [],
      "stateMutability": "nonpayable",
      "type": "function"
    },
    {
      "inputs": [
        {
          "internalType": "address",
          "name": "newOwner",
          "type": "address"
        }
      ],
      "name": "transferOwnership",
      "outputs": [],
      "stateMutability": "nonpayable",
      "type": "function"
    },
    {
      "inputs": [
        {
          "internalType": "address",
          "name": "to",
          "type": "address"
        }
      ],
      "name": "safeMint",
      "outputs": [],
      "stateMutability": "nonpayable",
      "type": "function"
    },
    {
      "inputs": [
        {
          "internalType": "address",
          "name": "to",
          "type": "address"
        },
        {
          "internalType": "string",
          "name": "ipfsCID",
          "type": "string"
        }
      ],
      "name": "safeMintWithMetadata",
      "outputs": [],
      "stateMutability": "nonpayable",
      "type": "function"
    },
    {
      "inputs": [
        {
          "internalType": "uint256",
          "name": "tokenId",
          "type": "uint256"
        }
      ],
      "name": "tokenURI",
      "outputs": [
        {
          "internalType": "string",
          "name": "",
          "type": "string"
        }
      ],
      "stateMutability": "view",
      "type": "function",
      "constant": true
    },
    {
      "inputs": [
        {
          "internalType": "uint256",
          "name": "tokenId",
          "type": "uint256"
        },
        {
          "internalType": "string",
          "name": "ipfsCID",
          "type": "string"
        }
      ],
      "name": "setTokenURI",
      "outputs": [],
      "stateMutability": "nonpayable",
      "type": "function"
    },
    {
      "inputs": [
        {
          "internalType": "address",
          "name": "_owner",
          "type": "address"
        },
        {
          "internalType": "address",
          "name": "_operator",
          "type": "address"
        }
      ],
      "name": "isApprovedForAll",
      "outputs": [
        {
          "internalType": "bool",
          "name": "isOperator",
          "type": "bool"
        }
      ],
      "stateMutability": "view",
      "type": "function",
      "constant": true
    },
    {
      "inputs": [
        {
          "internalType": "bytes4",
          "name": "interfaceId",
          "type": "bytes4"
        }
      ],
      "name": "supportsInterface",
      "outputs": [
        {
          "internalType": "bool",
          "name": "",
          "type": "bool"
        }
      ],
      "stateMutability": "view",
      "type": "function",
      "constant": true
    }
  ],
  "bytecode": "0x60806040523480156200001157600080fd5b5060405162004298380380620042988339818101604052810190620000379190620003ed565b6040518060400160405280600681526020017f534c4d4e465400000000000000000000000000000000000000000000000000008152506040518060400160405280600381526020017f534c4d00000000000000000000000000000000000000000000000000000000008152508160009080519060200190620000bb929190620002d3565b508060019080519060200190620000d4929190620002d3565b505050620000f7620000eb6200013f60201b60201c565b6200015b60201b60201c565b80600e60006101000a81548173ffffffffffffffffffffffffffffffffffffffff021916908373ffffffffffffffffffffffffffffffffffffffff1602179055505062000483565b6000620001566200022160201b62000ef41760201c565b905090565b6000600b60009054906101000a900473ffffffffffffffffffffffffffffffffffffffff16905081600b60006101000a81548173ffffffffffffffffffffffffffffffffffffffff021916908373ffffffffffffffffffffffffffffffffffffffff1602179055508173ffffffffffffffffffffffffffffffffffffffff168173ffffffffffffffffffffffffffffffffffffffff167f8be0079c531659141344cd1fd0a4f28419497f9722a3daafe3b4186f6b6457e060405160405180910390a35050565b60003073ffffffffffffffffffffffffffffffffffffffff163373ffffffffffffffffffffffffffffffffffffffff1603620002cc57600080368080601f016020809104026020016040519081016040528093929190818152602001838380828437600081840152601f19601f820116905080830192505050505050509050600080369050905073ffffffffffffffffffffffffffffffffffffffff818301511692505050620002d0565b3390505b90565b828054620002e1906200044e565b90600052602060002090601f01602090048101928262000305576000855562000351565b82601f106200032057805160ff191683800117855562000351565b8280016001018555821562000351579182015b828111156200035057825182559160200191906001019062000333565b5b50905062000360919062000364565b5090565b5b808211156200037f57600081600090555060010162000365565b5090565b600080fd5b600073ffffffffffffffffffffffffffffffffffffffff82169050919050565b6000620003b58262000388565b9050919050565b620003c781620003a8565b8114620003d357600080fd5b50565b600081519050620003e781620003bc565b92915050565b60006020828403121562000406576200040562000383565b5b60006200041684828501620003d6565b91505092915050565b7f4e487b7100000000000000000000000000000000000000000000000000000000600052602260045260246000fd5b600060028204905060018216806200046757607f821691505b6020821081036200047d576200047c6200041f565b5b50919050565b613e0580620004936000396000f3fe608060405234801561001057600080fd5b506004361061014d5760003560e01c80634f6ccce7116100c357806395d89b411161007c57806395d89b411461039a578063a22cb465146103b8578063b88d4fde146103d4578063c87b56dd146103f0578063e985e9c514610420578063f2fde38b146104505761014d565b80634f6ccce7146102c657806352640e68146102f65780636352211e1461031257806370a0823114610342578063715018a6146103725780638da5cb5b1461037c5761014d565b806318160ddd1161011557806318160ddd1461020857806323b872dd146102265780632f745c591461024257806340d097c31461027257806342842e0e1461028e57806342966c68146102aa5761014d565b806301ffc9a71461015257806306fdde0314610182578063081812fc146101a0578063095ea7b3146101d0578063162094c4146101ec575b600080fd5b61016c6004803603810190610167919061282a565b61046c565b6040516101799190612872565b60405180910390f35b61018a61047e565b6040516101979190612926565b60405180910390f35b6101ba60048036038101906101b5919061297e565b610510565b6040516101c791906129ec565b60405180910390f35b6101ea60048036038101906101e59190612a33565b610595565b005b61020660048036038101906102019190612ba8565b6106ac565b005b610210610714565b60405161021d9190612c13565b60405180910390f35b610240600480360381019061023b9190612c2e565b610721565b005b61025c60048036038101906102579190612a33565b610781565b6040516102699190612c13565b60405180910390f35b61028c60048036038101906102879190612c81565b610826565b005b6102a860048036038101906102a39190612c2e565b6108c8565b005b6102c460048036038101906102bf919061297e565b6108e8565b005b6102e060048036038101906102db919061297e565b610944565b6040516102ed9190612c13565b60405180910390f35b610310600480360381019061030b9190612cae565b6109b5565b005b61032c6004803603810190610327919061297e565b610a62565b60405161033991906129ec565b60405180910390f35b61035c60048036038101906103579190612c81565b610b13565b6040516103699190612c13565b60405180910390f35b61037a610bca565b005b610384610c52565b60405161039191906129ec565b60405180910390f35b6103a2610c7c565b6040516103af9190612926565b60405180910390f35b6103d260048036038101906103cd9190612d36565b610d0e565b005b6103ee60048036038101906103e99190612e17565b610d24565b005b61040a6004803603810190610405919061297e565b610d86565b6040516104179190612926565b60405180910390f35b61043a60048036038101906104359190612e9a565b610d98565b6040516104479190612872565b60405180910390f35b61046a60048036038101906104659190612c81565b610dfd565b005b600061047782610fa4565b9050919050565b60606000805461048d90612f09565b80601f01602080910402602001604051908101604052809291908181526020018280546104b990612f09565b80156105065780601f106104db57610100808354040283529160200191610506565b820191906000526020600020905b8154815290600101906020018083116104e957829003601f168201915b5050505050905090565b600061051b8261101e565b61055a576040517f08c379a000000000000000000000000000000000000000000000000000000000815260040161055190612fac565b60405180910390fd5b6004600083815260200190815260200160002060009054906101000a900473ffffffffffffffffffffffffffffffffffffffff169050919050565b60006105a082610a62565b90508073ffffffffffffffffffffffffffffffffffffffff168373ffffffffffffffffffffffffffffffffffffffff1603610610576040517f08c379a00000000000000000000000000000000000000000000000000000000081526004016106079061303e565b60405180910390fd5b8073ffffffffffffffffffffffffffffffffffffffff1661062f61108a565b73ffffffffffffffffffffffffffffffffffffffff16148061065e575061065d8161065861108a565b610d98565b5b61069d576040517f08c379a0000000000000000000000000000000000000000000000000000000008152600401610694906130d0565b60405180910390fd5b6106a78383611099565b505050565b600e60009054906101000a900473ffffffffffffffffffffffffffffffffffffffff1673ffffffffffffffffffffffffffffffffffffffff163373ffffffffffffffffffffffffffffffffffffffff161461070657600080fd5b6107108282611152565b5050565b6000600880549050905090565b61073261072c61108a565b826111c6565b610771576040517f08c379a000000000000000000000000000000000000000000000000000000000815260040161076890613162565b60405180910390fd5b61077c8383836112a4565b505050565b600061078c83610b13565b82106107cd576040517f08c379a00000000000000000000000000000000000000000000000000000000081526004016107c4906131f4565b60405180910390fd5b600660008473ffffffffffffffffffffffffffffffffffffffff1673ffffffffffffffffffffffffffffffffffffffff168152602001908152602001600020600083815260200190815260200160002054905092915050565b61082e61108a565b73ffffffffffffffffffffffffffffffffffffffff1661084c610c52565b73ffffffffffffffffffffffffffffffffffffffff16146108a2576040517f08c379a000000000000000000000000000000000000000000000000000000000815260040161089990613260565b60405180910390fd5b60006108ae600c61150a565b90506108ba600c611518565b6108c4828261152e565b5050565b6108e383838360405180602001604052806000815250610d24565b505050565b6108f96108f361108a565b826111c6565b610938576040517f08c379a000000000000000000000000000000000000000000000000000000000815260040161092f906132f2565b60405180910390fd5b6109418161154c565b50565b600061094e610714565b821061098f576040517f08c379a000000000000000000000000000000000000000000000000000000000815260040161098690613384565b60405180910390fd5b600882815481106109a3576109a26133a4565b5b90600052602060002001549050919050565b6109bd61108a565b73ffffffffffffffffffffffffffffffffffffffff166109db610c52565b73ffffffffffffffffffffffffffffffffffffffff1614610a31576040517f08c379a0000000000000000000000000000000000000000000000000000000008152600401610a2890613260565b60405180910390fd5b6000610a3d600c61150a565b9050610a49600c611518565b610a53838261152e565b610a5d8183611152565b505050565b6000806002600084815260200190815260200160002060009054906101000a900473ffffffffffffffffffffffffffffffffffffffff169050600073ffffffffffffffffffffffffffffffffffffffff168173ffffffffffffffffffffffffffffffffffffffff1603610b0a576040517f08c379a0000000000000000000000000000000000000000000000000000000008152600401610b0190613445565b60405180910390fd5b80915050919050565b60008073ffffffffffffffffffffffffffffffffffffffff168273ffffffffffffffffffffffffffffffffffffffff1603610b83576040517f08c379a0000000000000000000000000000000000000000000000000000000008152600401610b7a906134d7565b60405180910390fd5b600360008373ffffffffffffffffffffffffffffffffffffffff1673ffffffffffffffffffffffffffffffffffffffff168152602001908152602001600020549050919050565b610bd261108a565b73ffffffffffffffffffffffffffffffffffffffff16610bf0610c52565b73ffffffffffffffffffffffffffffffffffffffff1614610c46576040517f08c379a0000000000000000000000000000000000000000000000000000000008152600401610c3d90613260565b60405180910390fd5b610c506000611558565b565b6000600b60009054906101000a900473ffffffffffffffffffffffffffffffffffffffff16905090565b606060018054610c8b90612f09565b80601f0160208091040260200160405190810160405280929190818152602001828054610cb790612f09565b8015610d045780601f10610cd957610100808354040283529160200191610d04565b820191906000526020600020905b815481529060010190602001808311610ce757829003601f168201915b5050505050905090565b610d20610d1961108a565b838361161e565b5050565b610d35610d2f61108a565b836111c6565b610d74576040517f08c379a0000000000000000000000000000000000000000000000000000000008152600401610d6b90613162565b60405180910390fd5b610d808484848461178a565b50505050565b6060610d91826117e6565b9050919050565b60007358807bad0b376efc12f5ad86aac70e78ed67deae73ffffffffffffffffffffffffffffffffffffffff168273ffffffffffffffffffffffffffffffffffffffff1603610dea5760019050610df7565b610df48383611937565b90505b92915050565b610e0561108a565b73ffffffffffffffffffffffffffffffffffffffff16610e23610c52565b73ffffffffffffffffffffffffffffffffffffffff1614610e79576040517f08c379a0000000000000000000000000000000000000000000000000000000008152600401610e7090613260565b60405180910390fd5b600073ffffffffffffffffffffffffffffffffffffffff168173ffffffffffffffffffffffffffffffffffffffff1603610ee8576040517f08c379a0000000000000000000000000000000000000000000000000000000008152600401610edf90613569565b60405180910390fd5b610ef181611558565b50565b60003073ffffffffffffffffffffffffffffffffffffffff163373ffffffffffffffffffffffffffffffffffffffff1603610f9d57600080368080601f016020809104026020016040519081016040528093929190818152602001838380828437600081840152601f19601f820116905080830192505050505050509050600080369050905073ffffffffffffffffffffffffffffffffffffffff818301511692505050610fa1565b3390505b90565b60007f780e9d63000000000000000000000000000000000000000000000000000000007bffffffffffffffffffffffffffffffffffffffffffffffffffffffff1916827bffffffffffffffffffffffffffffffffffffffffffffffffffffffff191614806110175750611016826119cb565b5b9050919050565b60008073ffffffffffffffffffffffffffffffffffffffff166002600084815260200190815260200160002060009054906101000a900473ffffffffffffffffffffffffffffffffffffffff1673ffffffffffffffffffffffffffffffffffffffff1614159050919050565b6000611094610ef4565b905090565b816004600083815260200190815260200160002060006101000a81548173ffffffffffffffffffffffffffffffffffffffff021916908373ffffffffffffffffffffffffffffffffffffffff160217905550808273ffffffffffffffffffffffffffffffffffffffff1661110c83610a62565b73ffffffffffffffffffffffffffffffffffffffff167f8c5be1e5ebec7d5bd14f71427d1e84f3dd0314c0f7b2291e5b200ac8c7c3b92560405160405180910390a45050565b61115b8261101e565b61119a576040517f08c379a0000000000000000000000000000000000000000000000000000000008152600401611191906135fb565b60405180910390fd5b80600a600084815260200190815260200160002090805190602001906111c19291906126db565b505050565b60006111d18261101e565b611210576040517f08c379a00000000000000000000000000000000000000000000000000000000081526004016112079061368d565b60405180910390fd5b600061121b83610a62565b90508073ffffffffffffffffffffffffffffffffffffffff168473ffffffffffffffffffffffffffffffffffffffff16148061125d575061125c8185610d98565b5b8061129b57508373ffffffffffffffffffffffffffffffffffffffff1661128384610510565b73ffffffffffffffffffffffffffffffffffffffff16145b91505092915050565b8273ffffffffffffffffffffffffffffffffffffffff166112c482610a62565b73ffffffffffffffffffffffffffffffffffffffff161461131a576040517f08c379a00000000000000000000000000000000000000000000000000000000081526004016113119061371f565b60405180910390fd5b600073ffffffffffffffffffffffffffffffffffffffff168273ffffffffffffffffffffffffffffffffffffffff1603611389576040517f08c379a0000000000000000000000000000000000000000000000000000000008152600401611380906137b1565b60405180910390fd5b611394838383611aad565b61139f600082611099565b6001600360008573ffffffffffffffffffffffffffffffffffffffff1673ffffffffffffffffffffffffffffffffffffffff16815260200190815260200160002060008282546113ef9190613800565b925050819055506001600360008473ffffffffffffffffffffffffffffffffffffffff1673ffffffffffffffffffffffffffffffffffffffff16815260200190815260200160002060008282546114469190613834565b92505081905550816002600083815260200190815260200160002060006101000a81548173ffffffffffffffffffffffffffffffffffffffff021916908373ffffffffffffffffffffffffffffffffffffffff160217905550808273ffffffffffffffffffffffffffffffffffffffff168473ffffffffffffffffffffffffffffffffffffffff167fddf252ad1be2c89b69c2b068fc378daa952ba7f163c4a11628f55a4df523b3ef60405160405180910390a4611505838383611abd565b505050565b600081600001549050919050565b6001816000016000828254019250508190555050565b611548828260405180602001604052806000815250611ac2565b5050565b61155581611b1d565b50565b6000600b60009054906101000a900473ffffffffffffffffffffffffffffffffffffffff16905081600b60006101000a81548173ffffffffffffffffffffffffffffffffffffffff021916908373ffffffffffffffffffffffffffffffffffffffff1602179055508173ffffffffffffffffffffffffffffffffffffffff168173ffffffffffffffffffffffffffffffffffffffff167f8be0079c531659141344cd1fd0a4f28419497f9722a3daafe3b4186f6b6457e060405160405180910390a35050565b8173ffffffffffffffffffffffffffffffffffffffff168373ffffffffffffffffffffffffffffffffffffffff160361168c576040517f08c379a0000000000000000000000000000000000000000000000000000000008152600401611683906138d6565b60405180910390fd5b80600560008573ffffffffffffffffffffffffffffffffffffffff1673ffffffffffffffffffffffffffffffffffffffff16815260200190815260200160002060008473ffffffffffffffffffffffffffffffffffffffff1673ffffffffffffffffffffffffffffffffffffffff16815260200190815260200160002060006101000a81548160ff0219169083151502179055508173ffffffffffffffffffffffffffffffffffffffff168373ffffffffffffffffffffffffffffffffffffffff167f17307eab39ab6107e8899845ad3d59bd9653f200f220920489ca2b5937696c318360405161177d9190612872565b60405180910390a3505050565b6117958484846112a4565b6117a184848484611b70565b6117e0576040517f08c379a00000000000000000000000000000000000000000000000000000000081526004016117d790613968565b60405180910390fd5b50505050565b60606117f18261101e565b611830576040517f08c379a0000000000000000000000000000000000000000000000000000000008152600401611827906139fa565b60405180910390fd5b6000600a6000848152602001908152602001600020805461185090612f09565b80601f016020809104026020016040519081016040528092919081815260200182805461187c90612f09565b80156118c95780601f1061189e576101008083540402835291602001916118c9565b820191906000526020600020905b8154815290600101906020018083116118ac57829003601f168201915b5050505050905060006118da611cf7565b905060008151036118ef578192505050611932565b60008251111561192457808260405160200161190c929190613a56565b60405160208183030381529060405292505050611932565b61192d84611d34565b925050505b919050565b6000600560008473ffffffffffffffffffffffffffffffffffffffff1673ffffffffffffffffffffffffffffffffffffffff16815260200190815260200160002060008373ffffffffffffffffffffffffffffffffffffffff1673ffffffffffffffffffffffffffffffffffffffff16815260200190815260200160002060009054906101000a900460ff16905092915050565b60007f80ac58cd000000000000000000000000000000000000000000000000000000007bffffffffffffffffffffffffffffffffffffffffffffffffffffffff1916827bffffffffffffffffffffffffffffffffffffffffffffffffffffffff19161480611a9657507f5b5e139f000000000000000000000000000000000000000000000000000000007bffffffffffffffffffffffffffffffffffffffffffffffffffffffff1916827bffffffffffffffffffffffffffffffffffffffffffffffffffffffff1916145b80611aa65750611aa582611ddb565b5b9050919050565b611ab8838383611e45565b505050565b505050565b611acc8383611f57565b611ad96000848484611b70565b611b18576040517f08c379a0000000000000000000000000000000000000000000000000000000008152600401611b0f90613968565b60405180910390fd5b505050565b611b2681612130565b6000600a60008381526020019081526020016000208054611b4690612f09565b905014611b6d57600a60008281526020019081526020016000206000611b6c9190612761565b5b50565b6000611b918473ffffffffffffffffffffffffffffffffffffffff1661224d565b15611cea578373ffffffffffffffffffffffffffffffffffffffff1663150b7a02611bba61108a565b8786866040518563ffffffff1660e01b8152600401611bdc9493929190613acf565b6020604051808303816000875af1925050508015611c1857506040513d601f19601f82011682018060405250810190611c159190613b30565b60015b611c9a573d8060008114611c48576040519150601f19603f3d011682016040523d82523d6000602084013e611c4d565b606091505b506000815103611c92576040517f08c379a0000000000000000000000000000000000000000000000000000000008152600401611c8990613968565b60405180910390fd5b805181602001fd5b63150b7a0260e01b7bffffffffffffffffffffffffffffffffffffffffffffffffffffffff1916817bffffffffffffffffffffffffffffffffffffffffffffffffffffffff191614915050611cef565b600190505b949350505050565b60606040518060400160405280600781526020017f697066733a2f2f00000000000000000000000000000000000000000000000000815250905090565b6060611d3f8261101e565b611d7e576040517f08c379a0000000000000000000000000000000000000000000000000000000008152600401611d7590613bcf565b60405180910390fd5b6000611d88611cf7565b90506000815111611da85760405180602001604052806000815250611dd3565b80611db284612270565b604051602001611dc3929190613a56565b6040516020818303038152906040525b915050919050565b60007f01ffc9a7000000000000000000000000000000000000000000000000000000007bffffffffffffffffffffffffffffffffffffffffffffffffffffffff1916827bffffffffffffffffffffffffffffffffffffffffffffffffffffffff1916149050919050565b611e508383836123d0565b600073ffffffffffffffffffffffffffffffffffffffff168373ffffffffffffffffffffffffffffffffffffffff1603611e9257611e8d816123d5565b611ed1565b8173ffffffffffffffffffffffffffffffffffffffff168373ffffffffffffffffffffffffffffffffffffffff1614611ed057611ecf838261241e565b5b5b600073ffffffffffffffffffffffffffffffffffffffff168273ffffffffffffffffffffffffffffffffffffffff1603611f1357611f0e8161258b565b611f52565b8273ffffffffffffffffffffffffffffffffffffffff168273ffffffffffffffffffffffffffffffffffffffff1614611f5157611f50828261265c565b5b5b505050565b600073ffffffffffffffffffffffffffffffffffffffff168273ffffffffffffffffffffffffffffffffffffffff1603611fc6576040517f08c379a0000000000000000000000000000000000000000000000000000000008152600401611fbd90613c3b565b60405180910390fd5b611fcf8161101e565b1561200f576040517f08c379a000000000000000000000000000000000000000000000000000000000815260040161200690613ca7565b60405180910390fd5b61201b60008383611aad565b6001600360008473ffffffffffffffffffffffffffffffffffffffff1673ffffffffffffffffffffffffffffffffffffffff168152602001908152602001600020600082825461206b9190613834565b92505081905550816002600083815260200190815260200160002060006101000a81548173ffffffffffffffffffffffffffffffffffffffff021916908373ffffffffffffffffffffffffffffffffffffffff160217905550808273ffffffffffffffffffffffffffffffffffffffff16600073ffffffffffffffffffffffffffffffffffffffff167fddf252ad1be2c89b69c2b068fc378daa952ba7f163c4a11628f55a4df523b3ef60405160405180910390a461212c60008383611abd565b5050565b600061213b82610a62565b905061214981600084611aad565b612154600083611099565b6001600360008373ffffffffffffffffffffffffffffffffffffffff1673ffffffffffffffffffffffffffffffffffffffff16815260200190815260200160002060008282546121a49190613800565b925050819055506002600083815260200190815260200160002060006101000a81549073ffffffffffffffffffffffffffffffffffffffff021916905581600073ffffffffffffffffffffffffffffffffffffffff168273ffffffffffffffffffffffffffffffffffffffff167fddf252ad1be2c89b69c2b068fc378daa952ba7f163c4a11628f55a4df523b3ef60405160405180910390a461224981600084611abd565b5050565b6000808273ffffffffffffffffffffffffffffffffffffffff163b119050919050565b6060600082036122b7576040518060400160405280600181526020017f300000000000000000000000000000000000000000000000000000000000000081525090506123cb565b600082905060005b600082146122e95780806122d290613cc7565b915050600a826122e29190613d3e565b91506122bf565b60008167ffffffffffffffff81111561230557612304612a7d565b5b6040519080825280601f01601f1916602001820160405280156123375781602001600182028036833780820191505090505b5090505b600085146123c4576001826123509190613800565b9150600a8561235f9190613d6f565b603061236b9190613834565b60f81b818381518110612381576123806133a4565b5b60200101907effffffffffffffffffffffffffffffffffffffffffffffffffffffffffffff1916908160001a905350600a856123bd9190613d3e565b945061233b565b8093505050505b919050565b505050565b6008805490506009600083815260200190815260200160002081905550600881908060018154018082558091505060019003906000526020600020016000909190919091505550565b6000600161242b84610b13565b6124359190613800565b905060006007600084815260200190815260200160002054905081811461251a576000600660008673ffffffffffffffffffffffffffffffffffffffff1673ffffffffffffffffffffffffffffffffffffffff168152602001908152602001600020600084815260200190815260200160002054905080600660008773ffffffffffffffffffffffffffffffffffffffff1673ffffffffffffffffffffffffffffffffffffffff168152602001908152602001600020600084815260200190815260200160002081905550816007600083815260200190815260200160002081905550505b6007600084815260200190815260200160002060009055600660008573ffffffffffffffffffffffffffffffffffffffff1673ffffffffffffffffffffffffffffffffffffffff16815260200190815260200160002060008381526020019081526020016000206000905550505050565b6000600160088054905061259f9190613800565b90506000600960008481526020019081526020016000205490506000600883815481106125cf576125ce6133a4565b5b9060005260206000200154905080600883815481106125f1576125f06133a4565b5b9060005260206000200181905550816009600083815260200190815260200160002081905550600960008581526020019081526020016000206000905560088054806126405761263f613da0565b5b6001900381819060005260206000200160009055905550505050565b600061266783610b13565b905081600660008573ffffffffffffffffffffffffffffffffffffffff1673ffffffffffffffffffffffffffffffffffffffff168152602001908152602001600020600083815260200190815260200160002081905550806007600084815260200190815260200160002081905550505050565b8280546126e790612f09565b90600052602060002090601f0160209004810192826127095760008555612750565b82601f1061272257805160ff1916838001178555612750565b82800160010185558215612750579182015b8281111561274f578251825591602001919060010190612734565b5b50905061275d91906127a1565b5090565b50805461276d90612f09565b6000825580601f1061277f575061279e565b601f01602090049060005260206000209081019061279d91906127a1565b5b50565b5b808211156127ba5760008160009055506001016127a2565b5090565b6000604051905090565b600080fd5b600080fd5b60007fffffffff0000000000000000000000000000000000000000000000000000000082169050919050565b612807816127d2565b811461281257600080fd5b50565b600081359050612824816127fe565b92915050565b6000602082840312156128405761283f6127c8565b5b600061284e84828501612815565b91505092915050565b60008115159050919050565b61286c81612857565b82525050565b60006020820190506128876000830184612863565b92915050565b600081519050919050565b600082825260208201905092915050565b60005b838110156128c75780820151818401526020810190506128ac565b838111156128d6576000848401525b50505050565b6000601f19601f8301169050919050565b60006128f88261288d565b6129028185612898565b93506129128185602086016128a9565b61291b816128dc565b840191505092915050565b6000602082019050818103600083015261294081846128ed565b905092915050565b6000819050919050565b61295b81612948565b811461296657600080fd5b50565b60008135905061297881612952565b92915050565b600060208284031215612994576129936127c8565b5b60006129a284828501612969565b91505092915050565b600073ffffffffffffffffffffffffffffffffffffffff82169050919050565b60006129d6826129ab565b9050919050565b6129e6816129cb565b82525050565b6000602082019050612a0160008301846129dd565b92915050565b612a10816129cb565b8114612a1b57600080fd5b50565b600081359050612a2d81612a07565b92915050565b60008060408385031215612a4a57612a496127c8565b5b6000612a5885828601612a1e565b9250506020612a6985828601612969565b9150509250929050565b600080fd5b600080fd5b7f4e487b7100000000000000000000000000000000000000000000000000000000600052604160045260246000fd5b612ab5826128dc565b810181811067ffffffffffffffff82111715612ad457612ad3612a7d565b5b80604052505050565b6000612ae76127be565b9050612af38282612aac565b919050565b600067ffffffffffffffff821115612b1357612b12612a7d565b5b612b1c826128dc565b9050602081019050919050565b82818337600083830152505050565b6000612b4b612b4684612af8565b612add565b905082815260208101848484011115612b6757612b66612a78565b5b612b72848285612b29565b509392505050565b600082601f830112612b8f57612b8e612a73565b5b8135612b9f848260208601612b38565b91505092915050565b60008060408385031215612bbf57612bbe6127c8565b5b6000612bcd85828601612969565b925050602083013567ffffffffffffffff811115612bee57612bed6127cd565b5b612bfa85828601612b7a565b9150509250929050565b612c0d81612948565b82525050565b6000602082019050612c286000830184612c04565b92915050565b600080600060608486031215612c4757612c466127c8565b5b6000612c5586828701612a1e565b9350506020612c6686828701612a1e565b9250506040612c7786828701612969565b9150509250925092565b600060208284031215612c9757612c966127c8565b5b6000612ca584828501612a1e565b91505092915050565b60008060408385031215612cc557612cc46127c8565b5b6000612cd385828601612a1e565b925050602083013567ffffffffffffffff811115612cf457612cf36127cd565b5b612d0085828601612b7a565b9150509250929050565b612d1381612857565b8114612d1e57600080fd5b50565b600081359050612d3081612d0a565b92915050565b60008060408385031215612d4d57612d4c6127c8565b5b6000612d5b85828601612a1e565b9250506020612d6c85828601612d21565b9150509250929050565b600067ffffffffffffffff821115612d9157612d90612a7d565b5b612d9a826128dc565b9050602081019050919050565b6000612dba612db584612d76565b612add565b905082815260208101848484011115612dd657612dd5612a78565b5b612de1848285612b29565b509392505050565b600082601f830112612dfe57612dfd612a73565b5b8135612e0e848260208601612da7565b91505092915050565b60008060008060808587031215612e3157612e306127c8565b5b6000612e3f87828801612a1e565b9450506020612e5087828801612a1e565b9350506040612e6187828801612969565b925050606085013567ffffffffffffffff811115612e8257612e816127cd565b5b612e8e87828801612de9565b91505092959194509250565b60008060408385031215612eb157612eb06127c8565b5b6000612ebf85828601612a1e565b9250506020612ed085828601612a1e565b9150509250929050565b7f4e487b7100000000000000000000000000000000000000000000000000000000600052602260045260246000fd5b60006002820490506001821680612f2157607f821691505b602082108103612f3457612f33612eda565b5b50919050565b7f4552433732313a20617070726f76656420717565727920666f72206e6f6e657860008201527f697374656e7420746f6b656e0000000000000000000000000000000000000000602082015250565b6000612f96602c83612898565b9150612fa182612f3a565b604082019050919050565b60006020820190508181036000830152612fc581612f89565b9050919050565b7f4552433732313a20617070726f76616c20746f2063757272656e74206f776e6560008201527f7200000000000000000000000000000000000000000000000000000000000000602082015250565b6000613028602183612898565b915061303382612fcc565b604082019050919050565b600060208201905081810360008301526130578161301b565b9050919050565b7f4552433732313a20617070726f76652063616c6c6572206973206e6f74206f7760008201527f6e6572206e6f7220617070726f76656420666f7220616c6c0000000000000000602082015250565b60006130ba603883612898565b91506130c58261305e565b604082019050919050565b600060208201905081810360008301526130e9816130ad565b9050919050565b7f4552433732313a207472616e736665722063616c6c6572206973206e6f74206f60008201527f776e6572206e6f7220617070726f766564000000000000000000000000000000602082015250565b600061314c603183612898565b9150613157826130f0565b604082019050919050565b6000602082019050818103600083015261317b8161313f565b9050919050565b7f455243373231456e756d657261626c653a206f776e657220696e646578206f7560008201527f74206f6620626f756e6473000000000000000000000000000000000000000000602082015250565b60006131de602b83612898565b91506131e982613182565b604082019050919050565b6000602082019050818103600083015261320d816131d1565b9050919050565b7f4f776e61626c653a2063616c6c6572206973206e6f7420746865206f776e6572600082015250565b600061324a602083612898565b915061325582613214565b602082019050919050565b600060208201905081810360008301526132798161323d565b9050919050565b7f4552433732314275726e61626c653a2063616c6c6572206973206e6f74206f7760008201527f6e6572206e6f7220617070726f76656400000000000000000000000000000000602082015250565b60006132dc603083612898565b91506132e782613280565b604082019050919050565b6000602082019050818103600083015261330b816132cf565b9050919050565b7f455243373231456e756d657261626c653a20676c6f62616c20696e646578206f60008201527f7574206f6620626f756e64730000000000000000000000000000000000000000602082015250565b600061336e602c83612898565b915061337982613312565b604082019050919050565b6000602082019050818103600083015261339d81613361565b9050919050565b7f4e487b7100000000000000000000000000000000000000000000000000000000600052603260045260246000fd5b7f4552433732313a206f776e657220717565727920666f72206e6f6e657869737460008201527f656e7420746f6b656e0000000000000000000000000000000000000000000000602082015250565b600061342f602983612898565b915061343a826133d3565b604082019050919050565b6000602082019050818103600083015261345e81613422565b9050919050565b7f4552433732313a2062616c616e636520717565727920666f7220746865207a6560008201527f726f206164647265737300000000000000000000000000000000000000000000602082015250565b60006134c1602a83612898565b91506134cc82613465565b604082019050919050565b600060208201905081810360008301526134f0816134b4565b9050919050565b7f4f776e61626c653a206e6577206f776e657220697320746865207a65726f206160008201527f6464726573730000000000000000000000000000000000000000000000000000602082015250565b6000613553602683612898565b915061355e826134f7565b604082019050919050565b6000602082019050818103600083015261358281613546565b9050919050565b7f45524337323155524953746f726167653a2055524920736574206f66206e6f6e60008201527f6578697374656e7420746f6b656e000000000000000000000000000000000000602082015250565b60006135e5602e83612898565b91506135f082613589565b604082019050919050565b60006020820190508181036000830152613614816135d8565b9050919050565b7f4552433732313a206f70657261746f7220717565727920666f72206e6f6e657860008201527f697374656e7420746f6b656e0000000000000000000000000000000000000000602082015250565b6000613677602c83612898565b91506136828261361b565b604082019050919050565b600060208201905081810360008301526136a68161366a565b9050919050565b7f4552433732313a207472616e736665722066726f6d20696e636f72726563742060008201527f6f776e6572000000000000000000000000000000000000000000000000000000602082015250565b6000613709602583612898565b9150613714826136ad565b604082019050919050565b60006020820190508181036000830152613738816136fc565b9050919050565b7f4552433732313a207472616e7366657220746f20746865207a65726f2061646460008201527f7265737300000000000000000000000000000000000000000000000000000000602082015250565b600061379b602483612898565b91506137a68261373f565b604082019050919050565b600060208201905081810360008301526137ca8161378e565b9050919050565b7f4e487b7100000000000000000000000000000000000000000000000000000000600052601160045260246000fd5b600061380b82612948565b915061381683612948565b925082821015613829576138286137d1565b5b828203905092915050565b600061383f82612948565b915061384a83612948565b9250827fffffffffffffffffffffffffffffffffffffffffffffffffffffffffffffffff0382111561387f5761387e6137d1565b5b828201905092915050565b7f4552433732313a20617070726f766520746f2063616c6c657200000000000000600082015250565b60006138c0601983612898565b91506138cb8261388a565b602082019050919050565b600060208201905081810360008301526138ef816138b3565b9050919050565b7f4552433732313a207472616e7366657220746f206e6f6e20455243373231526560008201527f63656976657220696d706c656d656e7465720000000000000000000000000000602082015250565b6000613952603283612898565b915061395d826138f6565b604082019050919050565b6000602082019050818103600083015261398181613945565b9050919050565b7f45524337323155524953746f726167653a2055524920717565727920666f722060008201527f6e6f6e6578697374656e7420746f6b656e000000000000000000000000000000602082015250565b60006139e4603183612898565b91506139ef82613988565b604082019050919050565b60006020820190508181036000830152613a13816139d7565b9050919050565b600081905092915050565b6000613a308261288d565b613a3a8185613a1a565b9350613a4a8185602086016128a9565b80840191505092915050565b6000613a628285613a25565b9150613a6e8284613a25565b91508190509392505050565b600081519050919050565b600082825260208201905092915050565b6000613aa182613a7a565b613aab8185613a85565b9350613abb8185602086016128a9565b613ac4816128dc565b840191505092915050565b6000608082019050613ae460008301876129dd565b613af160208301866129dd565b613afe6040830185612c04565b8181036060830152613b108184613a96565b905095945050505050565b600081519050613b2a816127fe565b92915050565b600060208284031215613b4657613b456127c8565b5b6000613b5484828501613b1b565b91505092915050565b7f4552433732314d657461646174613a2055524920717565727920666f72206e6f60008201527f6e6578697374656e7420746f6b656e0000000000000000000000000000000000602082015250565b6000613bb9602f83612898565b9150613bc482613b5d565b604082019050919050565b60006020820190508181036000830152613be881613bac565b9050919050565b7f4552433732313a206d696e7420746f20746865207a65726f2061646472657373600082015250565b6000613c25602083612898565b9150613c3082613bef565b602082019050919050565b60006020820190508181036000830152613c5481613c18565b9050919050565b7f4552433732313a20746f6b656e20616c7265616479206d696e74656400000000600082015250565b6000613c91601c83612898565b9150613c9c82613c5b565b602082019050919050565b60006020820190508181036000830152613cc081613c84565b9050919050565b6000613cd282612948565b91507fffffffffffffffffffffffffffffffffffffffffffffffffffffffffffffffff8203613d0457613d036137d1565b5b600182019050919050565b7f4e487b7100000000000000000000000000000000000000000000000000000000600052601260045260246000fd5b6000613d4982612948565b9150613d5483612948565b925082613d6457613d63613d0f565b5b828204905092915050565b6000613d7a82612948565b9150613d8583612948565b925082613d9557613d94613d0f565b5b828206905092915050565b7f4e487b7100000000000000000000000000000000000000000000000000000000600052603160045260246000fdfea2646970667358221220f7b32269506cf5c4332c66a2e383bc236c0f4feb6eb5b6cba84daa4d865b1ef664736f6c634300080d0033",
  "immutableReferences": {},
  "source": "// SPDX-License-Identifier: MIT\r\npragma solidity ^0.8.4;\r\n\r\nimport \"@openzeppelin/contracts/token/ERC721/ERC721.sol\";\r\nimport \"@openzeppelin/contracts/token/ERC721/extensions/ERC721Burnable.sol\";\r\nimport \"@openzeppelin/contracts/metatx/ERC2771Context.sol\";\r\nimport \"@openzeppelin/contracts/utils/Counters.sol\";\r\nimport \"@openzeppelin/contracts/access/Ownable.sol\";\r\nimport \"@openzeppelin/contracts/token/ERC721/extensions/ERC721URIStorage.sol\";\r\nimport \"@openzeppelin/contracts/token/ERC721/extensions/ERC721Enumerable.sol\";\r\n\r\nimport \"./SLMToken.sol\";\r\n\r\n/**\r\n * https://github.com/maticnetwork/pos-portal/blob/master/contracts/common/ContextMixin.sol\r\n */\r\nabstract contract ContextMixin {\r\n    function msgSender() internal view returns (address payable sender) {\r\n        if (msg.sender == address(this)) {\r\n            bytes memory array = msg.data;\r\n            uint256 index = msg.data.length;\r\n            assembly {\r\n                // Load the 32 bytes word from memory with the address on the lower 20 bytes, and mask those.\r\n                sender := and(\r\n                    mload(add(array, index)),\r\n                    0xffffffffffffffffffffffffffffffffffffffff\r\n                )\r\n            }\r\n        } else {\r\n            sender = payable(msg.sender);\r\n        }\r\n        return sender;\r\n    }\r\n}\r\n\r\ncontract SLMNFT is ERC721Enumerable, ERC721URIStorage, ERC721Burnable, ContextMixin, Ownable {\r\n    using Counters for Counters.Counter;\r\n\r\n    Counters.Counter private _tokenIdCounter;\r\n    string private ipfsMetadata;\r\n    address private apiAddress;\r\n\r\n    constructor(address apiAddress_) ERC721(\"SLMNFT\", \"SLM\") {\r\n        apiAddress = apiAddress_;\r\n    }\r\n\r\n    function _burn(uint256 tokenId) internal override(ERC721, ERC721URIStorage) {\r\n        super._burn(tokenId);\r\n    }\r\n\r\n    function safeMint(address to) public onlyOwner {\r\n        uint256 tokenId = _tokenIdCounter.current();\r\n\r\n        _tokenIdCounter.increment();\r\n        _safeMint(to, tokenId);\r\n    }\r\n\r\n    function safeMintWithMetadata(address to, string memory ipfsCID) public onlyOwner {\r\n        uint256 tokenId = _tokenIdCounter.current();\r\n\r\n        _tokenIdCounter.increment();\r\n        _safeMint(to, tokenId);\r\n        _setTokenURI(tokenId, ipfsCID);\r\n    }\r\n\r\n    function tokenURI(uint256 tokenId)\r\n        public\r\n        view\r\n        override(ERC721, ERC721URIStorage)\r\n        returns (string memory)\r\n    {\r\n        return super.tokenURI(tokenId);\r\n    }\r\n\r\n    function _baseURI() internal view virtual override returns (string memory) {\r\n        return \"ipfs://\";\r\n    }\r\n\r\n    function setTokenURI(uint256 tokenId, string memory ipfsCID) public {\r\n        require(msg.sender==apiAddress);\r\n        _setTokenURI(tokenId, ipfsCID);\r\n    }\r\n\r\n    /**\r\n     * Override isApprovedForAll to auto-approve OS's proxy contract\r\n     */\r\n    function isApprovedForAll(address _owner, address _operator)\r\n        public\r\n        view\r\n        override(ERC721, IERC721)\r\n        returns (bool isOperator)\r\n    {\r\n        // if OpenSea's ERC721 Proxy Address is detected, auto-return true\r\n        if (_operator == address(0x58807baD0B376efc12F5AD86aAc70E78ed67deaE)) {\r\n            return true;\r\n        }\r\n\r\n        // otherwise, use the default ERC721.isApprovedForAll()\r\n        return ERC721.isApprovedForAll(_owner, _operator);\r\n    }\r\n\r\n    /**\r\n     * This is used instead of msg.sender as transactions won't be sent by the original token owner, but by OpenSea.\r\n     */\r\n    function _msgSender() internal view override returns (address sender) {\r\n        return ContextMixin.msgSender();\r\n    }\r\n\r\n    function _beforeTokenTransfer(address from, address to, uint256 tokenId)\r\n        internal\r\n        override(ERC721, ERC721Enumerable)\r\n    {\r\n        super._beforeTokenTransfer(from, to, tokenId);\r\n    }\r\n\r\n    function supportsInterface(bytes4 interfaceId)\r\n        public\r\n        view\r\n        override(ERC721, ERC721Enumerable)\r\n        returns (bool)\r\n    {\r\n        return super.supportsInterface(interfaceId);\r\n    }\r\n}\r\n",
  "sourcePath": "/mnt/c/Users/Sergei/git/SLM-Coin/contracts/SLMNFT.sol",
  "compiler": {
    "name": "solc",
    "version": "0.8.13+commit.abaa5c0e.Emscripten.clang"
  },
  "schemaVersion": "3.4.7",
  "updatedAt": "2022-05-03T18:33:52.757Z",
  "networkType": "ethereum",
  "devdoc": {
    "kind": "dev",
    "methods": {
      "approve(address,uint256)": {
        "details": "See {IERC721-approve}."
      },
      "balanceOf(address)": {
        "details": "See {IERC721-balanceOf}."
      },
      "burn(uint256)": {
        "details": "Burns `tokenId`. See {ERC721-_burn}. Requirements: - The caller must own `tokenId` or be an approved operator."
      },
      "getApproved(uint256)": {
        "details": "See {IERC721-getApproved}."
      },
      "name()": {
        "details": "See {IERC721Metadata-name}."
      },
      "owner()": {
        "details": "Returns the address of the current owner."
      },
      "ownerOf(uint256)": {
        "details": "See {IERC721-ownerOf}."
      },
      "renounceOwnership()": {
        "details": "Leaves the contract without owner. It will not be possible to call `onlyOwner` functions anymore. Can only be called by the current owner. NOTE: Renouncing ownership will leave the contract without an owner, thereby removing any functionality that is only available to the owner."
      },
      "safeTransferFrom(address,address,uint256)": {
        "details": "See {IERC721-safeTransferFrom}."
      },
      "safeTransferFrom(address,address,uint256,bytes)": {
        "details": "See {IERC721-safeTransferFrom}."
      },
      "setApprovalForAll(address,bool)": {
        "details": "See {IERC721-setApprovalForAll}."
      },
      "symbol()": {
        "details": "See {IERC721Metadata-symbol}."
      },
      "tokenByIndex(uint256)": {
        "details": "See {IERC721Enumerable-tokenByIndex}."
      },
      "tokenOfOwnerByIndex(address,uint256)": {
        "details": "See {IERC721Enumerable-tokenOfOwnerByIndex}."
      },
      "totalSupply()": {
        "details": "See {IERC721Enumerable-totalSupply}."
      },
      "transferFrom(address,address,uint256)": {
        "details": "See {IERC721-transferFrom}."
      },
      "transferOwnership(address)": {
        "details": "Transfers ownership of the contract to a new account (`newOwner`). Can only be called by the current owner."
      }
    },
    "version": 1
  },
  "userdoc": {
    "kind": "user",
    "methods": {
      "isApprovedForAll(address,address)": {
        "notice": "Override isApprovedForAll to auto-approve OS's proxy contract"
      }
    },
    "version": 1
  }
}