{
  "contractName": "SLMSwap",
  "abi": [
    {
      "inputs": [
        {
          "internalType": "address",
          "name": "slmToken_",
          "type": "address"
        }
      ],
      "stateMutability": "nonpayable",
      "type": "constructor"
    },
    {
      "inputs": [],
      "name": "exchangeRate",
      "outputs": [
        {
          "internalType": "uint256",
          "name": "",
          "type": "uint256"
        }
      ],
      "stateMutability": "view",
      "type": "function"
    },
    {
      "inputs": [],
      "name": "exchangeETHForSLM",
      "outputs": [],
      "stateMutability": "payable",
      "type": "function"
    },
    {
      "inputs": [
        {
          "internalType": "uint256",
          "name": "slmAmount",
          "type": "uint256"
        }
      ],
      "name": "exchangeSLMForETH",
      "outputs": [],
      "stateMutability": "nonpayable",
      "type": "function"
    }
  ],
  "bytecode": "0x608060405234801561001057600080fd5b50604051610a94380380610a94833981810160405281019061003291906100db565b806000806101000a81548173ffffffffffffffffffffffffffffffffffffffff021916908373ffffffffffffffffffffffffffffffffffffffff16021790555050610108565b600080fd5b600073ffffffffffffffffffffffffffffffffffffffff82169050919050565b60006100a88261007d565b9050919050565b6100b88161009d565b81146100c357600080fd5b50565b6000815190506100d5816100af565b92915050565b6000602082840312156100f1576100f0610078565b5b60006100ff848285016100c6565b91505092915050565b61097d806101176000396000f3fe6080604052600436106100345760003560e01c80633ba0b9a9146100395780637622017914610064578063b658d10e1461006e575b600080fd5b34801561004557600080fd5b5061004e610097565b60405161005b9190610597565b60405180910390f35b61006c61015a565b005b34801561007a57600080fd5b50610095600480360381019061009091906105e3565b6102e2565b005b60008060008054906101000a900473ffffffffffffffffffffffffffffffffffffffff16905060008173ffffffffffffffffffffffffffffffffffffffff166370a08231306040518263ffffffff1660e01b81526004016100f89190610651565b602060405180830381865afa158015610115573d6000803e3d6000fd5b505050506040513d601f19601f820116820180604052508101906101399190610681565b905060004790506000828261014e919061070c565b90508094505050505090565b60003490506000610169610097565b905060008060009054906101000a900473ffffffffffffffffffffffffffffffffffffffff1690506000828461019f919061070c565b9050808273ffffffffffffffffffffffffffffffffffffffff166370a08231306040518263ffffffff1660e01b81526004016101db9190610651565b602060405180830381865afa1580156101f8573d6000803e3d6000fd5b505050506040513d601f19601f8201168201806040525081019061021c9190610681565b101561025d576040517f08c379a00000000000000000000000000000000000000000000000000000000081526004016102549061079a565b60405180910390fd5b8173ffffffffffffffffffffffffffffffffffffffff1663a9059cbb33836040518363ffffffff1660e01b81526004016102989291906107ba565b6020604051808303816000875af11580156102b7573d6000803e3d6000fd5b505050506040513d601f19601f820116820180604052508101906102db919061081b565b5050505050565b60008060009054906101000a900473ffffffffffffffffffffffffffffffffffffffff169050818173ffffffffffffffffffffffffffffffffffffffff166370a08231336040518263ffffffff1660e01b81526004016103429190610651565b602060405180830381865afa15801561035f573d6000803e3d6000fd5b505050506040513d601f19601f820116820180604052508101906103839190610681565b101561038e57600080fd5b6000610398610097565b836103a39190610848565b9050804710156103b257600080fd5b8173ffffffffffffffffffffffffffffffffffffffff1663095ea7b330856040518363ffffffff1660e01b81526004016103ed9291906107ba565b6020604051808303816000875af115801561040c573d6000803e3d6000fd5b505050506040513d601f19601f82011682018060405250810190610430919061081b565b508173ffffffffffffffffffffffffffffffffffffffff166323b872dd3330866040518463ffffffff1660e01b815260040161046e939291906108a2565b6020604051808303816000875af115801561048d573d6000803e3d6000fd5b505050506040513d601f19601f820116820180604052508101906104b1919061081b565b503373ffffffffffffffffffffffffffffffffffffffff166108fc829081150290604051600060405180830381858888f193505050501580156104f8573d6000803e3d6000fd5b508173ffffffffffffffffffffffffffffffffffffffff1663095ea7b33060006040518363ffffffff1660e01b815260040161053592919061091e565b6020604051808303816000875af1158015610554573d6000803e3d6000fd5b505050506040513d601f19601f82011682018060405250810190610578919061081b565b50505050565b6000819050919050565b6105918161057e565b82525050565b60006020820190506105ac6000830184610588565b92915050565b600080fd5b6105c08161057e565b81146105cb57600080fd5b50565b6000813590506105dd816105b7565b92915050565b6000602082840312156105f9576105f86105b2565b5b6000610607848285016105ce565b91505092915050565b600073ffffffffffffffffffffffffffffffffffffffff82169050919050565b600061063b82610610565b9050919050565b61064b81610630565b82525050565b60006020820190506106666000830184610642565b92915050565b60008151905061067b816105b7565b92915050565b600060208284031215610697576106966105b2565b5b60006106a58482850161066c565b91505092915050565b7f4e487b7100000000000000000000000000000000000000000000000000000000600052601260045260246000fd5b7f4e487b7100000000000000000000000000000000000000000000000000000000600052601160045260246000fd5b60006107178261057e565b91506107228361057e565b925082610732576107316106ae565b5b828204905092915050565b600082825260208201905092915050565b7f496e73756666696369656e7420534c4d20616d6f756e74000000000000000000600082015250565b600061078460178361073d565b915061078f8261074e565b602082019050919050565b600060208201905081810360008301526107b381610777565b9050919050565b60006040820190506107cf6000830185610642565b6107dc6020830184610588565b9392505050565b60008115159050919050565b6107f8816107e3565b811461080357600080fd5b50565b600081519050610815816107ef565b92915050565b600060208284031215610831576108306105b2565b5b600061083f84828501610806565b91505092915050565b60006108538261057e565b915061085e8361057e565b9250817fffffffffffffffffffffffffffffffffffffffffffffffffffffffffffffffff0483118215151615610897576108966106dd565b5b828202905092915050565b60006060820190506108b76000830186610642565b6108c46020830185610642565b6108d16040830184610588565b949350505050565b6000819050919050565b6000819050919050565b60006109086109036108fe846108d9565b6108e3565b61057e565b9050919050565b610918816108ed565b82525050565b60006040820190506109336000830185610642565b610940602083018461090f565b939250505056fea2646970667358221220321d74a098b32e663e54eaf228622822a10cec9ad33a282884ac24fede340c3864736f6c634300080d0033",
  "immutableReferences": {},
  "source": "// SPDX-License-Identifier: GPL-2.0-or-later\r\npragma solidity ^0.8.4;\r\npragma abicoder v2;\r\n\r\nimport \"./SLMToken.sol\";\r\n\r\ncontract SLMSwap {\r\n    address private slmTokenAddress;\r\n\r\n    constructor(address slmToken_) {\r\n        slmTokenAddress = slmToken_;\r\n    }\r\n\r\n    function exchangeRate() public view returns (uint) {\r\n        SLMToken slmToken = SLMToken(slmTokenAddress);\r\n        uint slmBalance = slmToken.balanceOf(address(this));\r\n        uint ethBalance = address(this).balance;\r\n        uint rate = ethBalance / slmBalance;\r\n        return rate;\r\n    }\r\n\r\n    function exchangeETHForSLM() public payable {\r\n        uint256 amountEth = msg.value;\r\n        uint256 rate = exchangeRate();\r\n        SLMToken slmToken = SLMToken(slmTokenAddress);\r\n        uint256 slmAmount = amountEth/rate;\r\n        require(slmToken.balanceOf(address(this)) >= slmAmount, \"Insufficient SLM amount\");\r\n        slmToken.transfer(msg.sender, slmAmount);\r\n    }\r\n\r\n    function exchangeSLMForETH(uint256 slmAmount) public {\r\n        SLMToken slmToken = SLMToken(slmTokenAddress);\r\n        require(slmToken.balanceOf(address(msg.sender)) >= slmAmount);\r\n        uint256 ethAMount = slmAmount * exchangeRate();\r\n        require(address(this).balance >= ethAMount);\r\n        slmToken.approve(address(this), slmAmount);\r\n        slmToken.transferFrom(msg.sender, address(this), slmAmount);\r\n        payable(msg.sender).transfer(ethAMount);\r\n        slmToken.approve(address(this), 0);\r\n    }\r\n}",
  "sourcePath": "/mnt/c/Users/Sergei/git/SLM-Coin/contracts/SLMSwap.sol",
  "compiler": {
    "name": "solc",
    "version": "0.8.13+commit.abaa5c0e.Emscripten.clang"
  },
  "schemaVersion": "3.4.7",
  "updatedAt": "2022-04-27T16:10:54.727Z",
  "devdoc": {
    "kind": "dev",
    "methods": {},
    "version": 1
  },
  "userdoc": {
    "kind": "user",
    "methods": {},
    "version": 1
  }
}